{
  "_format": "hh-sol-artifact-1",
  "contractName": "CrowdFunding",
  "sourceName": "contracts/CrowdFunding.sol",
  "abi": [
    {
      "inputs": [
        {
          "internalType": "address",
          "name": "_manager",
          "type": "address"
        },
        {
          "internalType": "address",
          "name": "_projectOwner",
          "type": "address"
        },
        {
          "internalType": "uint256",
          "name": "_natLotSize",
          "type": "uint256"
        },
        {
          "internalType": "uint256",
          "name": "_tokenLotSize",
          "type": "uint256"
        },
        {
          "internalType": "uint256",
          "name": "_lotQty",
          "type": "uint256"
        },
        {
          "internalType": "uint256",
          "name": "_raiseDeadline",
          "type": "uint256"
        },
        {
          "internalType": "uint256",
          "name": "_stakingDuration",
          "type": "uint256"
        },
        {
          "internalType": "string",
          "name": "_projectDescription",
          "type": "string"
        },
        {
          "internalType": "string",
          "name": "_iouName",
          "type": "string"
        },
        {
          "internalType": "string",
          "name": "_iouSymbol",
          "type": "string"
        },
        {
          "internalType": "uint8",
          "name": "_iouDecimals",
          "type": "uint8"
        }
      ],
      "stateMutability": "nonpayable",
      "type": "constructor"
    },
    {
      "anonymous": false,
      "inputs": [
        {
          "indexed": false,
          "internalType": "uint256",
          "name": "month",
          "type": "uint256"
        },
        {
          "indexed": false,
          "internalType": "uint256",
          "name": "amount",
          "type": "uint256"
        }
      ],
      "name": "AirdropAmount",
      "type": "event"
    },
    {
      "anonymous": false,
      "inputs": [
        {
          "indexed": true,
          "internalType": "address",
          "name": "beneficiary",
          "type": "address"
        },
        {
          "indexed": true,
          "internalType": "address",
          "name": "to",
          "type": "address"
        },
        {
          "indexed": false,
          "internalType": "uint256",
          "name": "month",
          "type": "uint256"
        },
        {
          "indexed": false,
          "internalType": "uint256",
          "name": "amount",
          "type": "uint256"
        }
      ],
      "name": "AirdropClaimed",
      "type": "event"
    },
    {
      "anonymous": false,
      "inputs": [
        {
          "indexed": true,
          "internalType": "address",
          "name": "owner",
          "type": "address"
        },
        {
          "indexed": true,
          "internalType": "address",
          "name": "spender",
          "type": "address"
        },
        {
          "indexed": false,
          "internalType": "uint256",
          "name": "value",
          "type": "uint256"
        }
      ],
      "name": "Approval",
      "type": "event"
    },
    {
      "anonymous": false,
      "inputs": [
        {
          "indexed": false,
          "internalType": "address",
          "name": "ftsoRewardManager",
          "type": "address"
        },
        {
          "indexed": false,
          "internalType": "uint256[]",
          "name": "epochs",
          "type": "uint256[]"
        }
      ],
      "name": "ClaimRewardError",
      "type": "event"
    },
    {
      "anonymous": false,
      "inputs": [
        {
          "indexed": false,
          "internalType": "address",
          "name": "account",
          "type": "address"
        },
        {
          "indexed": false,
          "internalType": "uint256",
          "name": "amount",
          "type": "uint256"
        }
      ],
      "name": "ExtraBalance",
      "type": "event"
    },
    {
      "anonymous": false,
      "inputs": [
        {
          "indexed": false,
          "internalType": "address",
          "name": "account",
          "type": "address"
        },
        {
          "indexed": false,
          "internalType": "uint256",
          "name": "amount",
          "type": "uint256"
        }
      ],
      "name": "PlatformFee",
      "type": "event"
    },
    {
      "anonymous": false,
      "inputs": [
        {
          "indexed": false,
          "internalType": "address",
          "name": "account",
          "type": "address"
        },
        {
          "indexed": false,
          "internalType": "uint256",
          "name": "amount",
          "type": "uint256"
        }
      ],
      "name": "ProjectReward",
      "type": "event"
    },
    {
      "anonymous": false,
      "inputs": [
        {
          "indexed": true,
          "internalType": "address",
          "name": "beneficiary",
          "type": "address"
        },
        {
          "indexed": true,
          "internalType": "address",
          "name": "to",
          "type": "address"
        },
        {
          "indexed": false,
          "internalType": "uint256",
          "name": "epoch",
          "type": "uint256"
        },
        {
          "indexed": false,
          "internalType": "uint256",
          "name": "amount",
          "type": "uint256"
        }
      ],
      "name": "StakerRewardClaimed",
      "type": "event"
    },
    {
      "anonymous": false,
      "inputs": [
        {
          "indexed": false,
          "internalType": "uint256",
          "name": "epoch",
          "type": "uint256"
        },
        {
          "indexed": false,
          "internalType": "uint256",
          "name": "amount",
          "type": "uint256"
        }
      ],
      "name": "StakersRewards",
      "type": "event"
    },
    {
      "anonymous": false,
      "inputs": [
        {
          "indexed": true,
          "internalType": "address",
          "name": "from",
          "type": "address"
        },
        {
          "indexed": true,
          "internalType": "address",
          "name": "to",
          "type": "address"
        },
        {
          "indexed": false,
          "internalType": "uint256",
          "name": "value",
          "type": "uint256"
        }
      ],
      "name": "Transfer",
      "type": "event"
    },
    {
      "inputs": [],
      "name": "DOMAIN_SEPARATOR",
      "outputs": [
        {
          "internalType": "bytes32",
          "name": "",
          "type": "bytes32"
        }
      ],
      "stateMutability": "view",
      "type": "function"
    },
    {
      "inputs": [
        {
          "internalType": "address",
          "name": "account",
          "type": "address"
        }
      ],
      "name": "accountCapital",
      "outputs": [
        {
          "internalType": "uint256",
          "name": "",
          "type": "uint256"
        }
      ],
      "stateMutability": "view",
      "type": "function"
    },
    {
      "inputs": [
        {
          "internalType": "address",
          "name": "account",
          "type": "address"
        },
        {
          "internalType": "uint256",
          "name": "blockNum",
          "type": "uint256"
        }
      ],
      "name": "accountCapitalAt",
      "outputs": [
        {
          "internalType": "uint256",
          "name": "",
          "type": "uint256"
        }
      ],
      "stateMutability": "view",
      "type": "function"
    },
    {
      "inputs": [
        {
          "internalType": "address",
          "name": "owner",
          "type": "address"
        },
        {
          "internalType": "address",
          "name": "spender",
          "type": "address"
        }
      ],
      "name": "allowance",
      "outputs": [
        {
          "internalType": "uint256",
          "name": "",
          "type": "uint256"
        }
      ],
      "stateMutability": "view",
      "type": "function"
    },
    {
      "inputs": [
        {
          "internalType": "address",
          "name": "spender",
          "type": "address"
        },
        {
          "internalType": "uint256",
          "name": "amount",
          "type": "uint256"
        }
      ],
      "name": "approve",
      "outputs": [
        {
          "internalType": "bool",
          "name": "",
          "type": "bool"
        }
      ],
      "stateMutability": "nonpayable",
      "type": "function"
    },
    {
      "inputs": [
        {
          "internalType": "address",
          "name": "account",
          "type": "address"
        }
      ],
      "name": "balanceOf",
      "outputs": [
        {
          "internalType": "uint256",
          "name": "",
          "type": "uint256"
        }
      ],
      "stateMutability": "view",
      "type": "function"
    },
    {
      "inputs": [
        {
          "internalType": "address[]",
          "name": "providers",
          "type": "address[]"
        },
        {
          "internalType": "uint256[]",
          "name": "bips",
          "type": "uint256[]"
        }
      ],
      "name": "changeDelegations",
      "outputs": [],
      "stateMutability": "nonpayable",
      "type": "function"
    },
    {
      "inputs": [
        {
          "internalType": "address",
          "name": "account",
          "type": "address"
        }
      ],
      "name": "changeProjectRewardAccount",
      "outputs": [],
      "stateMutability": "nonpayable",
      "type": "function"
    },
    {
      "inputs": [
        {
          "internalType": "uint256[]",
          "name": "months",
          "type": "uint256[]"
        },
        {
          "internalType": "address",
          "name": "to",
          "type": "address"
        },
        {
          "internalType": "bool",
          "name": "wrapped",
          "type": "bool"
        }
      ],
      "name": "claimAirdrops",
      "outputs": [],
      "stateMutability": "nonpayable",
      "type": "function"
    },
    {
      "inputs": [
        {
          "internalType": "uint256[]",
          "name": "epochs",
          "type": "uint256[]"
        },
        {
          "internalType": "address",
          "name": "to",
          "type": "address"
        },
        {
          "internalType": "bool",
          "name": "wrapped",
          "type": "bool"
        }
      ],
      "name": "claimStakerRewards",
      "outputs": [],
      "stateMutability": "nonpayable",
      "type": "function"
    },
    {
      "inputs": [],
      "name": "decimals",
      "outputs": [
        {
          "internalType": "uint8",
          "name": "",
          "type": "uint8"
        }
      ],
      "stateMutability": "view",
      "type": "function"
    },
    {
      "inputs": [
        {
          "internalType": "address",
          "name": "spender",
          "type": "address"
        },
        {
          "internalType": "uint256",
          "name": "subtractedValue",
          "type": "uint256"
        }
      ],
      "name": "decreaseAllowance",
      "outputs": [
        {
          "internalType": "bool",
          "name": "",
          "type": "bool"
        }
      ],
      "stateMutability": "nonpayable",
      "type": "function"
    },
    {
      "inputs": [
        {
          "internalType": "uint256",
          "name": "month",
          "type": "uint256"
        }
      ],
      "name": "distributeAirdrop",
      "outputs": [],
      "stateMutability": "nonpayable",
      "type": "function"
    },
    {
      "inputs": [
        {
          "internalType": "uint256[]",
          "name": "epochs",
          "type": "uint256[]"
        }
      ],
      "name": "distributeFtsoRewardsToProject",
      "outputs": [],
      "stateMutability": "nonpayable",
      "type": "function"
    },
    {
      "inputs": [
        {
          "internalType": "uint256[]",
          "name": "epochs",
          "type": "uint256[]"
        }
      ],
      "name": "distributeFtsoRewardsToStakers",
      "outputs": [],
      "stateMutability": "nonpayable",
      "type": "function"
    },
    {
      "inputs": [
        {
          "internalType": "address",
          "name": "beneficiary",
          "type": "address"
        }
      ],
      "name": "epochsWithUnclaimedStakerReward",
      "outputs": [
        {
          "internalType": "uint256[]",
          "name": "epochs",
          "type": "uint256[]"
        },
        {
          "internalType": "uint256[]",
          "name": "amounts",
          "type": "uint256[]"
        }
      ],
      "stateMutability": "view",
      "type": "function"
    },
    {
      "inputs": [],
      "name": "fund",
      "outputs": [],
      "stateMutability": "payable",
      "type": "function"
    },
    {
      "inputs": [
        {
          "internalType": "address",
          "name": "spender",
          "type": "address"
        },
        {
          "internalType": "uint256",
          "name": "addedValue",
          "type": "uint256"
        }
      ],
      "name": "increaseAllowance",
      "outputs": [
        {
          "internalType": "bool",
          "name": "",
          "type": "bool"
        }
      ],
      "stateMutability": "nonpayable",
      "type": "function"
    },
    {
      "inputs": [],
      "name": "lotQty",
      "outputs": [
        {
          "internalType": "uint256",
          "name": "",
          "type": "uint256"
        }
      ],
      "stateMutability": "view",
      "type": "function"
    },
    {
      "inputs": [
        {
          "internalType": "address",
          "name": "beneficiary",
          "type": "address"
        }
      ],
      "name": "monthsWithUnclaimedAirdrop",
      "outputs": [
        {
          "internalType": "uint256[]",
          "name": "months",
          "type": "uint256[]"
        },
        {
          "internalType": "uint256[]",
          "name": "amounts",
          "type": "uint256[]"
        },
        {
          "internalType": "bool",
          "name": "claimable",
          "type": "bool"
        }
      ],
      "stateMutability": "view",
      "type": "function"
    },
    {
      "inputs": [],
      "name": "name",
      "outputs": [
        {
          "internalType": "string",
          "name": "",
          "type": "string"
        }
      ],
      "stateMutability": "view",
      "type": "function"
    },
    {
      "inputs": [],
      "name": "natLotSize",
      "outputs": [
        {
          "internalType": "uint256",
          "name": "",
          "type": "uint256"
        }
      ],
      "stateMutability": "view",
      "type": "function"
    },
    {
      "inputs": [
        {
          "internalType": "address",
          "name": "owner",
          "type": "address"
        }
      ],
      "name": "nonces",
      "outputs": [
        {
          "internalType": "uint256",
          "name": "",
          "type": "uint256"
        }
      ],
      "stateMutability": "view",
      "type": "function"
    },
    {
      "inputs": [
        {
          "internalType": "address",
          "name": "owner",
          "type": "address"
        },
        {
          "internalType": "address",
          "name": "spender",
          "type": "address"
        },
        {
          "internalType": "uint256",
          "name": "value",
          "type": "uint256"
        },
        {
          "internalType": "uint256",
          "name": "deadline",
          "type": "uint256"
        },
        {
          "internalType": "uint8",
          "name": "v",
          "type": "uint8"
        },
        {
          "internalType": "bytes32",
          "name": "r",
          "type": "bytes32"
        },
        {
          "internalType": "bytes32",
          "name": "s",
          "type": "bytes32"
        }
      ],
      "name": "permit",
      "outputs": [],
      "stateMutability": "nonpayable",
      "type": "function"
    },
    {
      "inputs": [],
      "name": "platformFeeBips",
      "outputs": [
        {
          "internalType": "uint256",
          "name": "",
          "type": "uint256"
        }
      ],
      "stateMutability": "view",
      "type": "function"
    },
    {
      "inputs": [],
      "name": "projectDescription",
      "outputs": [
        {
          "internalType": "string",
          "name": "",
          "type": "string"
        }
      ],
      "stateMutability": "view",
      "type": "function"
    },
    {
      "inputs": [],
      "name": "projectOwner",
      "outputs": [
        {
          "internalType": "address",
          "name": "",
          "type": "address"
        }
      ],
      "stateMutability": "view",
      "type": "function"
    },
    {
      "inputs": [],
      "name": "projectRewardAccount",
      "outputs": [
        {
          "internalType": "address",
          "name": "",
          "type": "address"
        }
      ],
      "stateMutability": "view",
      "type": "function"
    },
    {
      "inputs": [],
      "name": "raiseCompletedAtBlock",
      "outputs": [
        {
          "internalType": "uint256",
          "name": "",
          "type": "uint256"
        }
      ],
      "stateMutability": "view",
      "type": "function"
    },
    {
      "inputs": [],
      "name": "raiseDeadline",
      "outputs": [
        {
          "internalType": "uint256",
          "name": "",
          "type": "uint256"
        }
      ],
      "stateMutability": "view",
      "type": "function"
    },
    {
      "inputs": [],
      "name": "skimExtraBalance",
      "outputs": [],
      "stateMutability": "nonpayable",
      "type": "function"
    },
    {
      "inputs": [],
      "name": "stakingDuration",
      "outputs": [
        {
          "internalType": "uint256",
          "name": "",
          "type": "uint256"
        }
      ],
      "stateMutability": "view",
      "type": "function"
    },
    {
      "inputs": [],
      "name": "stakingEnd",
      "outputs": [
        {
          "internalType": "uint256",
          "name": "",
          "type": "uint256"
        }
      ],
      "stateMutability": "view",
      "type": "function"
    },
    {
      "inputs": [],
      "name": "symbol",
      "outputs": [
        {
          "internalType": "string",
          "name": "",
          "type": "string"
        }
      ],
      "stateMutability": "view",
      "type": "function"
    },
    {
      "inputs": [],
      "name": "targetRaiseAmount",
      "outputs": [
        {
          "internalType": "uint256",
          "name": "",
          "type": "uint256"
        }
      ],
      "stateMutability": "view",
      "type": "function"
    },
    {
      "inputs": [],
      "name": "tokenLotSize",
      "outputs": [
        {
          "internalType": "uint256",
          "name": "",
          "type": "uint256"
        }
      ],
      "stateMutability": "view",
      "type": "function"
    },
    {
      "inputs": [],
      "name": "totalCapital",
      "outputs": [
        {
          "internalType": "uint256",
          "name": "",
          "type": "uint256"
        }
      ],
      "stateMutability": "view",
      "type": "function"
    },
    {
      "inputs": [
        {
          "internalType": "uint256",
          "name": "blockNum",
          "type": "uint256"
        }
      ],
      "name": "totalCapitalAt",
      "outputs": [
        {
          "internalType": "uint256",
          "name": "",
          "type": "uint256"
        }
      ],
      "stateMutability": "view",
      "type": "function"
    },
    {
      "inputs": [],
      "name": "totalOfferedIOU",
      "outputs": [
        {
          "internalType": "uint256",
          "name": "",
          "type": "uint256"
        }
      ],
      "stateMutability": "view",
      "type": "function"
    },
    {
      "inputs": [],
      "name": "totalSupply",
      "outputs": [
        {
          "internalType": "uint256",
          "name": "",
          "type": "uint256"
        }
      ],
      "stateMutability": "view",
      "type": "function"
    },
    {
      "inputs": [
        {
          "internalType": "address",
          "name": "to",
          "type": "address"
        },
        {
          "internalType": "uint256",
          "name": "amount",
          "type": "uint256"
        }
      ],
      "name": "transfer",
      "outputs": [
        {
          "internalType": "bool",
          "name": "",
          "type": "bool"
        }
      ],
      "stateMutability": "nonpayable",
      "type": "function"
    },
    {
      "inputs": [
        {
          "internalType": "address",
          "name": "from",
          "type": "address"
        },
        {
          "internalType": "address",
          "name": "to",
          "type": "address"
        },
        {
          "internalType": "uint256",
          "name": "amount",
          "type": "uint256"
        }
      ],
      "name": "transferFrom",
      "outputs": [
        {
          "internalType": "bool",
          "name": "",
          "type": "bool"
        }
      ],
      "stateMutability": "nonpayable",
      "type": "function"
    },
    {
      "inputs": [],
      "name": "transfersAllowed",
      "outputs": [
        {
          "internalType": "bool",
          "name": "",
          "type": "bool"
        }
      ],
      "stateMutability": "view",
      "type": "function"
    },
    {
      "inputs": [],
      "name": "withdrawInitialCapital",
      "outputs": [],
      "stateMutability": "nonpayable",
      "type": "function"
    },
    {
      "stateMutability": "payable",
      "type": "receive"
    }
  ],
  "bytecode": "0x6102806040523480156200001257600080fd5b50604051620059da380380620059da833981016040819052620000359162000435565b8282828280604051806040016040528060018152602001603160f81b81525085858160059081620000679190620005ce565b506006620000768282620005ce565b5050825160208085019190912083518483012060e08290526101008190524660a0818152604080517f8b73c3c69bb8fe3d512ecc4cf759cc79239f7b179b0ffacaa9a75d522b39400f81880181905281830187905260608201869052608082019490945230818401528151808203909301835260c0019052805194019390932091935091906080523060c0526101205250506009805460ff191660ff959095169490941790935550505050506001600160a01b038a16158015906200013b5750600089115b8015620001485750600088115b80156200016157506000196200015f888b620006b0565b105b80156200017a575060001962000178888a620006b0565b105b80156200018657504286115b8015620001935750600085115b620001d85760405162461bcd60e51b8152602060048201526011602482015270496e76616c696420617267756d656e747360781b604482015260640160405180910390fd5b6001600160a01b038b1661014081905260408051639edbf00760e01b81529051639edbf007916004808201926020929091908290030181865afa15801562000224573d6000803e3d6000fd5b505050506040513d601f19601f820116820180604052508101906200024a9190620006d2565b6001600160a01b03908116610160528a811661018081905260098054610100600160a81b031916610100909202919091179055610140516040805163cc4248f760e01b81529051919092169163cc4248f79160048083019260209291908290030181865afa158015620002c1573d6000803e3d6000fd5b505050506040513d601f19601f82011682018060405250810190620002e79190620006f7565b6101a0526101c08990526101e088905261020087905261022086905261024085905262000315858762000711565b61026052600a620003278582620005ce565b5050505050505050505050506200072c565b80516001600160a01b03811681146200035157600080fd5b919050565b634e487b7160e01b600052604160045260246000fd5b600082601f8301126200037e57600080fd5b81516001600160401b03808211156200039b576200039b62000356565b604051601f8301601f19908116603f01168101908282118183101715620003c657620003c662000356565b81604052838152602092508683858801011115620003e357600080fd5b600091505b83821015620004075785820183015181830184015290820190620003e8565b83821115620004195760008385830101525b9695505050505050565b805160ff811681146200035157600080fd5b60008060008060008060008060008060006101608c8e0312156200045857600080fd5b620004638c62000339565b9a506200047360208d0162000339565b995060408c0151985060608c0151975060808c0151965060a08c0151955060c08c0151945060e08c015160018060401b03811115620004b157600080fd5b620004bf8e828f016200036c565b6101008e015190955090506001600160401b03811115620004df57600080fd5b620004ed8e828f016200036c565b6101208e015190945090506001600160401b038111156200050d57600080fd5b6200051b8e828f016200036c565b9250506200052d6101408d0162000423565b90509295989b509295989b9093969950565b600181811c908216806200055457607f821691505b6020821081036200057557634e487b7160e01b600052602260045260246000fd5b50919050565b601f821115620005c957600081815260208120601f850160051c81016020861015620005a45750805b601f850160051c820191505b81811015620005c557828155600101620005b0565b5050505b505050565b81516001600160401b03811115620005ea57620005ea62000356565b6200060281620005fb84546200053f565b846200057b565b602080601f8311600181146200063a5760008415620006215750858301515b600019600386901b1c1916600185901b178555620005c5565b600085815260208120601f198616915b828110156200066b578886015182559484019460019091019084016200064a565b50858210156200068a5787850151600019600388901b60f8161c191681555b5050505050600190811b01905550565b634e487b7160e01b600052601160045260246000fd5b6000816000190483118215151615620006cd57620006cd6200069a565b500290565b600060208284031215620006e557600080fd5b620006f08262000339565b9392505050565b6000602082840312156200070a57600080fd5b5051919050565b600082198211156200072757620007276200069a565b500190565b60805160a05160c05160e05161010051610120516101405161016051610180516101a0516101c0516101e051610200516102205161024051610260516150ed620008ed6000396000818161051401528181610c1601526136b6015260006105e801526000818161061c01528181610c40015281816110fa01528181612687015261369001526000818161074b01528181611c2801526125210152600081816104a001528181610d070152818161254201526128640152600081816107fe01528181610d2b01528181611c490152818161270401526128880152600081816108320152612ada0152600081816106f7015281816116f2015261241801526000818161096001528181610a1401528181610da0015281816115260152818161176f015281816117ed01528181611b0701528181611ba901528181611db401528181611e560152818161226b01526127e2015260008181610a8401528181610e85015281816111aa015281816115a301528181611f83015281816123280152818161293b01528181612b8f015261315601526000613955015260006139a40152600061397f015260006138d8015260006139020152600061392c01526150ed6000f3fe6080604052600436106102eb5760003560e01c80638005a7de11610184578063b0660c3d116100d6578063cc4248f71161008a578063d505accf11610064578063d505accf146108a2578063dd62ed3e146108c2578063e4b1cc381461090857600080fd5b8063cc4248f714610820578063cca7471214610854578063cf62d89e1461087457600080fd5b8063b9cd4168116100bb578063b9cd4168146107ac578063bb5e85fe146107cc578063be0775b3146107ec57600080fd5b8063b0660c3d1461078d578063b60d4288146107a457600080fd5b8063a301027511610138578063a457c2d711610112578063a457c2d714610719578063a7a9eff014610739578063a9059cbb1461076d57600080fd5b8063a3010275146106b0578063a3220d5a146106d0578063a4475ce4146106e557600080fd5b806395d89b411161016957806395d89b411461063e57806399dfe8ca146106535780639c7e08d01461067357600080fd5b80638005a7de146105d65780638a382b8b1461060a57600080fd5b8063383032ea1161023d578063517d0411116101f157806370a08231116101cb57806370a082311461056b578063755f047b146105a15780637ecebe00146105b657600080fd5b8063517d04111461050257806356da67ec1461053657806367fd33e91461054b57600080fd5b80633dbaa06f116102225780633dbaa06f1461048e57806342d8c2b9146104c257806349015e77146104e257600080fd5b8063383032ea14610459578063395093511461046e57600080fd5b806323b872dd1161029f5780633307cbaf116102795780633307cbaf1461040e5780633644e5151461042e57806336b8cd1e1461044357600080fd5b806323b872dd1461039d5780632434da4e146103bd578063313ce567146103ec57600080fd5b8063095ea7b3116102d0578063095ea7b31461033957806318160ddd14610369578063236db7fe1461038857600080fd5b806304e7d3e6146102f757806306fdde031461030e57600080fd5b366102f257005b600080fd5b34801561030357600080fd5b5061030c610928565b005b34801561031a57600080fd5b50610323610b68565b6040516103309190614752565b60405180910390f35b34801561034557600080fd5b5061035961035436600461479a565b610bfa565b6040519015158152602001610330565b34801561037557600080fd5b506004545b604051908152602001610330565b34801561039457600080fd5b5061030c610c14565b3480156103a957600080fd5b506103596103b83660046147c6565b610e11565b3480156103c957600080fd5b506103dd6103d8366004614807565b610e7d565b6040516103309392919061485f565b3480156103f857600080fd5b5060095460405160ff9091168152602001610330565b34801561041a57600080fd5b5061030c6104293660046148e3565b6110f8565b34801561043a57600080fd5b5061037a61168c565b34801561044f57600080fd5b5061037a600b5481565b34801561046557600080fd5b5061037a61169b565b34801561047a57600080fd5b5061035961048936600461479a565b6116a8565b34801561049a57600080fd5b5061037a7f000000000000000000000000000000000000000000000000000000000000000081565b3480156104ce57600080fd5b5061030c6104dd366004614925565b6116e7565b3480156104ee57600080fd5b5061030c6104fd36600461499f565b611963565b34801561050e57600080fd5b5061037a7f000000000000000000000000000000000000000000000000000000000000000081565b34801561054257600080fd5b5061037a611c21565b34801561055757600080fd5b5061030c61056636600461499f565b611c6d565b34801561057757600080fd5b5061037a610586366004614807565b6001600160a01b031660009081526002602052604090205490565b3480156105ad57600080fd5b50610323611ec4565b3480156105c257600080fd5b5061037a6105d1366004614807565b611f52565b3480156105e257600080fd5b5061037a7f000000000000000000000000000000000000000000000000000000000000000081565b34801561061657600080fd5b5061037a7f000000000000000000000000000000000000000000000000000000000000000081565b34801561064a57600080fd5b50610323611f70565b34801561065f57600080fd5b5061030c61066e366004614a07565b611f7f565b34801561067f57600080fd5b506009546106989061010090046001600160a01b031681565b6040516001600160a01b039091168152602001610330565b3480156106bc57600080fd5b5061030c6106cb366004614807565b61240d565b3480156106dc57600080fd5b5061037a61251a565b3480156106f157600080fd5b506106987f000000000000000000000000000000000000000000000000000000000000000081565b34801561072557600080fd5b5061035961073436600461479a565b612566565b34801561074557600080fd5b5061037a7f000000000000000000000000000000000000000000000000000000000000000081565b34801561077957600080fd5b5061035961078836600461479a565b61261b565b34801561079957600080fd5b50600b541515610359565b61030c612685565b3480156107b857600080fd5b5061037a6107c7366004614a07565b6128d8565b3480156107d857600080fd5b5061030c6107e73660046148e3565b6128e5565b3480156107f857600080fd5b5061037a7f000000000000000000000000000000000000000000000000000000000000000081565b34801561082c57600080fd5b5061037a7f000000000000000000000000000000000000000000000000000000000000000081565b34801561086057600080fd5b5061037a61086f36600461479a565b612c5a565b34801561088057600080fd5b5061089461088f366004614807565b612c7d565b604051610330929190614a20565b3480156108ae57600080fd5b5061030c6108bd366004614a45565b612eac565b3480156108ce57600080fd5b5061037a6108dd366004614abc565b6001600160a01b03918216600090815260036020908152604080832093909416825291909152205490565b34801561091457600080fd5b5061037a610923366004614807565b613010565b6000610932613033565b6040517f70a082310000000000000000000000000000000000000000000000000000000081523060048201527f00000000000000000000000000000000000000000000000000000000000000006001600160a01b0316906370a0823190602401602060405180830381865afa1580156109af573d6000803e3d6000fd5b505050506040513d601f19601f820116820180604052508101906109d39190614af5565b6109dd9190614b3d565b90508015610a79576040517f2e1a7d4d000000000000000000000000000000000000000000000000000000008152600481018290527f00000000000000000000000000000000000000000000000000000000000000006001600160a01b031690632e1a7d4d90602401600060405180830381600087803b158015610a6057600080fd5b505af1158015610a74573d6000803e3d6000fd5b505050505b478015610b645760007f00000000000000000000000000000000000000000000000000000000000000006001600160a01b0316638af2c0486040518163ffffffff1660e01b8152600401602060405180830381865afa158015610ae0573d6000803e3d6000fd5b505050506040513d601f19601f82011682018060405250810190610b049190614b54565b90506001600160a01b03811615610b6257610b1f818361328e565b604080516001600160a01b0383168152602081018490527f11bed7b3116d18b20dd62d7f9cbdce33fb73f2094dca5af45df3508f7a964c8c910160405180910390a15b505b5050565b606060058054610b7790614b71565b80601f0160208091040260200160405190810160405280929190818152602001828054610ba390614b71565b8015610bf05780601f10610bc557610100808354040283529160200191610bf0565b820191906000526020600020905b815481529060010190602001808311610bd357829003601f168201915b5050505050905090565b600033610c0881858561334b565b60019150505b92915050565b7f000000000000000000000000000000000000000000000000000000000000000042101580610c6e57507f00000000000000000000000000000000000000000000000000000000000000004210158015610c6e5750600b54155b610ce45760405162461bcd60e51b8152602060048201526024808201527f596f752063616e6e6f7420776974686472617720796f7572206361706974616c60448201527f207965740000000000000000000000000000000000000000000000000000000060648201526084015b60405180910390fd5b6000610cef33613010565b90508015610e0e57600b54600003610d5f57610d5f337f0000000000000000000000000000000000000000000000000000000000000000610d507f000000000000000000000000000000000000000000000000000000000000000085614bed565b610d5a9190614c01565b6134a3565b610d7133610d6c83614c3e565b61363b565b6040517f2e1a7d4d000000000000000000000000000000000000000000000000000000008152600481018290527f00000000000000000000000000000000000000000000000000000000000000006001600160a01b031690632e1a7d4d90602401600060405180830381600087803b158015610dec57600080fd5b505af1158015610e00573d6000803e3d6000fd5b50505050610e0e338261328e565b50565b6000610e1e600b54151590565b610e6a5760405162461bcd60e51b815260206004820152601960248201527f5472616e736665727320617265206e6f7420656e61626c6564000000000000006044820152606401610cdb565b610e75848484613668565b949350505050565b6060806000807f00000000000000000000000000000000000000000000000000000000000000006001600160a01b03166302aa63186040518163ffffffff1660e01b8152600401600060405180830381865afa158015610ee1573d6000803e3d6000fd5b505050506040513d6000823e601f3d908101601f19168201604052610f099190810190614cfa565b8051909150156110f057600080610f1e613681565b91509150804210156110ed576000610f35846136eb565b90508067ffffffffffffffff811115610f5057610f50614c76565b604051908082528060200260200182016040528015610f79578160200160208202803683370190505b5096508067ffffffffffffffff811115610f9557610f95614c76565b604051908082528060200260200182016040528015610fbe578160200160208202803683370190505b5095506000805b828110156110c1576000818152600e60205260408120905b8154811015611060576000828281548110610ffa57610ffa614d99565b906000526020600020906003020190506000611017828f87613795565b915050801561104b57808c878151811061103357611033614d99565b602002602001018181516110479190614dc8565b9052505b5050808061105890614de0565b915050610fdd565b50600089848151811061107557611075614d99565b602002602001015111156110ae57818a8461108f81614de0565b9550815181106110a1576110a1614d99565b6020026020010181815250505b50806110b981614de0565b915050610fc5565b5060006110ce8284614b3d565b905080156110e3578089510389528088510388525b8442101596505050505b50505b509193909250565b7f000000000000000000000000000000000000000000000000000000000000000042101580156111285750600b54155b61119a5760405162461bcd60e51b815260206004820152602160248201527f5261697365206e6f7420636f6d706c65746564206f722073756363657373667560448201527f6c000000000000000000000000000000000000000000000000000000000000006064820152608401610cdb565b60006111a4613853565b905060007f00000000000000000000000000000000000000000000000000000000000000006001600160a01b03166377fb67496040518163ffffffff1660e01b8152600401600060405180830381865afa158015611206573d6000803e3d6000fd5b505050506040513d6000823e601f3d908101601f1916820160405261122e9190810190614e18565b905060008060005b8581101561150d57600087878381811061125257611252614d99565b9050602002013590506000866001600160a01b031663f2edab5a836040518263ffffffff1660e01b815260040161128b91815260200190565b602060405180830381865afa1580156112a8573d6000803e3d6000fd5b505050506040513d601f19601f820116820180604052508101906112cc9190614af5565b905060006112d9826128d8565b6040805160018082528183019092529192506000919060208083019080368337019050509050838160008151811061131357611313614d99565b6020026020010181815250506000805b89518110156114555789818151811061133e5761133e614d99565b60200260200101516001600160a01b03166302fb0c5e6040518163ffffffff1660e01b8152600401602060405180830381865afa158015611383573d6000803e3d6000fd5b505050506040513d601f19601f820116820180604052508101906113a79190614ea7565b15611443578981815181106113be576113be614d99565b60200260200101516001600160a01b031663b2af870a30856040518363ffffffff1660e01b81526004016113f3929190614ec4565b6020604051808303816000875af1158015611412573d6000803e3d6000fd5b505050506040513d601f19601f820116820180604052508101906114369190614af5565b6114409083614dc8565b91505b8061144d81614de0565b915050611323565b5080156114f557826000036114755761146e8188614dc8565b96506114f5565b61147f8189614dc8565b60408051606081018252868152602080820185815282840188815260008b8152600c845285902093518455905160018401555160029092019190915581518881529081018490529199507f1cc856b5fc4708df8bd73f1d1566f2c0ac4a225419018e57db59c160397d6db0910160405180910390a15b5050505050808061150590614de0565b915050611236565b508115611599578147101561152457611524614ee6565b7f00000000000000000000000000000000000000000000000000000000000000006001600160a01b031663d0e30db0476040518263ffffffff1660e01b81526004016000604051808303818588803b15801561157f57600080fd5b505af1158015611593573d6000803e3d6000fd5b50505050505b80156116845760007f00000000000000000000000000000000000000000000000000000000000000006001600160a01b0316638af2c0486040518163ffffffff1660e01b8152600401602060405180830381865afa1580156115ff573d6000803e3d6000fd5b505050506040513d601f19601f820116820180604052508101906116239190614b54565b90506001600160a01b038116156116825761163e818361328e565b604080516001600160a01b0383168152602081018490527f11bed7b3116d18b20dd62d7f9cbdce33fb73f2094dca5af45df3508f7a964c8c91015b60405180910390a15b505b505050505050565b60006116966138cb565b905090565b60006116964360016139f2565b3360008181526003602090815260408083206001600160a01b0387168452909152812054909190610c0890829086906116e2908790614dc8565b61334b565b336001600160a01b037f0000000000000000000000000000000000000000000000000000000000000000161461175f5760405162461bcd60e51b815260206004820152601160248201527f4e6f742070726f6a656374206f776e65720000000000000000000000000000006044820152606401610cdb565b82811461176b57600080fd5b60007f00000000000000000000000000000000000000000000000000000000000000006001600160a01b031663b302f3936040518163ffffffff1660e01b8152600401600060405180830381600087803b1580156117c857600080fd5b505af11580156117dc573d6000803e3d6000fd5b5050505060005b8481101561190a577f00000000000000000000000000000000000000000000000000000000000000006001600160a01b031663026e402b87878481811061182c5761182c614d99565b90506020020160208101906118419190614807565b86868581811061185357611853614d99565b6040517fffffffff0000000000000000000000000000000000000000000000000000000060e087901b1681526001600160a01b0390941660048501526020029190910135602483015250604401600060405180830381600087803b1580156118ba57600080fd5b505af11580156118ce573d6000803e3d6000fd5b505050508383828181106118e4576118e4614d99565b90506020020135826118f69190614dc8565b91508061190281614de0565b9150506117e3565b50806127101461195c5760405162461bcd60e51b815260206004820152601260248201527f4e6f7420313030252064656c65676174656400000000000000000000000000006044820152606401610cdb565b5050505050565b600061196d613853565b90506000816001600160a01b031663e7c830d46040518163ffffffff1660e01b8152600401602060405180830381865afa1580156119af573d6000803e3d6000fd5b505050506040513d601f19601f820116820180604052508101906119d39190614af5565b90506000826001600160a01b0316633e7ff8576040518163ffffffff1660e01b8152600401602060405180830381865afa158015611a15573d6000803e3d6000fd5b505050506040513d601f19601f82011682018060405250810190611a399190614af5565b90506000805b87811015611abb576000898983818110611a5b57611a5b614d99565b905060200201359050838110158015611a7357508481105b15611aa857611a9b33898c8c86818110611a8f57611a8f614d99565b90506020020135613b49565b611aa59084614dc8565b92505b5080611ab381614de0565b915050611a3f565b508015611c17578415611b7a576040517fa9059cbb0000000000000000000000000000000000000000000000000000000081526001600160a01b038781166004830152602482018390527f0000000000000000000000000000000000000000000000000000000000000000169063a9059cbb906044016020604051808303816000875af1158015611b50573d6000803e3d6000fd5b505050506040513d601f19601f82011682018060405250810190611b749190614ea7565b50611c17565b6040517f2e1a7d4d000000000000000000000000000000000000000000000000000000008152600481018290527f00000000000000000000000000000000000000000000000000000000000000006001600160a01b031690632e1a7d4d90602401600060405180830381600087803b158015611bf557600080fd5b505af1158015611c09573d6000803e3d6000fd5b50505050611c17868261328e565b5050505050505050565b60006116967f00000000000000000000000000000000000000000000000000000000000000007f0000000000000000000000000000000000000000000000000000000000000000614c01565b600080611c78613681565b9150915081421015611ccc5760405162461bcd60e51b815260206004820152601160248201527f4e6f7420636c61696d61626c65207965740000000000000000000000000000006044820152606401610cdb565b804210611d1b5760405162461bcd60e51b815260206004820152601560248201527f4e6f7420636c61696d61626c6520616e796d6f726500000000000000000000006044820152606401610cdb565b6000805b86811015611d6857611d4a33878a8a85818110611d3e57611d3e614d99565b90506020020135613c44565b611d549083614dc8565b915080611d6081614de0565b915050611d1f565b508015611682578315611e27576040517fa9059cbb0000000000000000000000000000000000000000000000000000000081526001600160a01b038681166004830152602482018390527f0000000000000000000000000000000000000000000000000000000000000000169063a9059cbb906044016020604051808303816000875af1158015611dfd573d6000803e3d6000fd5b505050506040513d601f19601f82011682018060405250810190611e219190614ea7565b50611682565b6040517f2e1a7d4d000000000000000000000000000000000000000000000000000000008152600481018290527f00000000000000000000000000000000000000000000000000000000000000006001600160a01b031690632e1a7d4d90602401600060405180830381600087803b158015611ea257600080fd5b505af1158015611eb6573d6000803e3d6000fd5b50505050611682858261328e565b600a8054611ed190614b71565b80601f0160208091040260200160405190810160405280929190818152602001828054611efd90614b71565b8015611f4a5780601f10611f1f57610100808354040283529160200191611f4a565b820191906000526020600020905b815481529060010190602001808311611f2d57829003601f168201915b505050505081565b6001600160a01b038116600090815260076020526040812054610c0e565b606060068054610b7790614b71565b60007f00000000000000000000000000000000000000000000000000000000000000006001600160a01b03166302aa63186040518163ffffffff1660e01b8152600401600060405180830381865afa158015611fdf573d6000803e3d6000fd5b505050506040513d6000823e601f3d908101601f191682016040526120079190810190614cfa565b6000838152600e60205260408120919250908190815b845181101561225257600085828151811061203a5761203a614d99565b60209081029190910101516040517faad3ec96000000000000000000000000000000000000000000000000000000008152306004820152602481018990529091506000906001600160a01b0383169063aad3ec96906044016020604051808303816000875af11580156120b1573d6000803e3d6000fd5b505050506040513d601f19601f820116820180604052508101906120d59190614af5565b9050801561223d576040517f978d80ab000000000000000000000000000000000000000000000000000000008152600481018990526000906001600160a01b0384169063978d80ab90602401600060405180830381865afa15801561213e573d6000803e3d6000fd5b505050506040513d6000823e601f3d908101601f191682016040526121669190810190614f15565b90506000805b82518110156121b55761219783828151811061218a5761218a614d99565b60200260200101516128d8565b6121a19083614dc8565b9150806121ad81614de0565b91505061216c565b50806000036121cf576121c88388614dc8565b965061223a565b6121d98389614dc8565b6040805160608101825284815260208082018790529181018490528854600181018a5560008a815283902082518051959d509294600390920201926122229284929101906146c6565b50602082015181600101556040820151816002015550505b50505b5050808061224a90614de0565b91505061201d565b50821561231e578247101561226957612269614ee6565b7f00000000000000000000000000000000000000000000000000000000000000006001600160a01b031663d0e30db0476040518263ffffffff1660e01b81526004016000604051808303818588803b1580156122c457600080fd5b505af11580156122d8573d6000803e3d6000fd5b505060408051898152602081018890527fe71c6901892c335282cc8e7159ae79586e0a87b0b7507ad6c8c6da48c45db2cb94500191506123159050565b60405180910390a15b811561195c5760007f00000000000000000000000000000000000000000000000000000000000000006001600160a01b0316638af2c0486040518163ffffffff1660e01b8152600401602060405180830381865afa158015612384573d6000803e3d6000fd5b505050506040513d601f19601f820116820180604052508101906123a89190614b54565b90506001600160a01b03811615611684576123c3818461328e565b604080516001600160a01b0383168152602081018590527f11bed7b3116d18b20dd62d7f9cbdce33fb73f2094dca5af45df3508f7a964c8c910160405180910390a1505050505050565b336001600160a01b037f000000000000000000000000000000000000000000000000000000000000000016146124855760405162461bcd60e51b815260206004820152601160248201527f4e6f742070726f6a656374206f776e65720000000000000000000000000000006044820152606401610cdb565b6001600160a01b0381166124db5760405162461bcd60e51b815260206004820152600c60248201527f41646472657373205a65726f00000000000000000000000000000000000000006044820152606401610cdb565b600980546001600160a01b03909216610100027fffffffffffffffffffffff0000000000000000000000000000000000000000ff909216919091179055565b60006116967f00000000000000000000000000000000000000000000000000000000000000007f0000000000000000000000000000000000000000000000000000000000000000614c01565b3360008181526003602090815260408083206001600160a01b0387168452909152812054909190838110156126035760405162461bcd60e51b815260206004820152602560248201527f45524332303a2064656372656173656420616c6c6f77616e63652062656c6f7760448201527f207a65726f0000000000000000000000000000000000000000000000000000006064820152608401610cdb565b612610828686840361334b565b506001949350505050565b6000612628600b54151590565b6126745760405162461bcd60e51b815260206004820152601960248201527f5472616e736665727320617265206e6f7420656e61626c6564000000000000006044820152606401610cdb565b61267e8383613da5565b9392505050565b7f000000000000000000000000000000000000000000000000000000000000000042106126f45760405162461bcd60e51b815260206004820152601560248201527f526169736520706861736520636f6e636c7564656400000000000000000000006044820152606401610cdb565b60003411801561272b57506127297f000000000000000000000000000000000000000000000000000000000000000034614f9b565b155b6127775760405162461bcd60e51b815260206004820152601660248201527f496e76616c69642066756e64696e6720616d6f756e74000000000000000000006044820152606401610cdb565b61277f611c21565b3461278861169b565b6127929190614dc8565b11156127e05760405162461bcd60e51b815260206004820152601560248201527f526169736520616d6f756e7420657863656564656400000000000000000000006044820152606401610cdb565b7f00000000000000000000000000000000000000000000000000000000000000006001600160a01b031663d0e30db0346040518263ffffffff1660e01b81526004016000604051808303818588803b15801561283b57600080fd5b505af115801561284f573d6000803e3d6000fd5b505050505061285e333461363b565b6128bc337f00000000000000000000000000000000000000000000000000000000000000006128ad7f000000000000000000000000000000000000000000000000000000000000000034614bed565b6128b79190614c01565b613db3565b6128c4611c21565b6128cc61169b565b036128d65743600b555b565b6000610c0e8260016139f2565b6000600b54116129375760405162461bcd60e51b815260206004820152601360248201527f5261697365206e6f7420636f6d706c65746564000000000000000000000000006044820152606401610cdb565b60007f00000000000000000000000000000000000000000000000000000000000000006001600160a01b03166377fb67496040518163ffffffff1660e01b8152600401600060405180830381865afa158015612997573d6000803e3d6000fd5b505050506040513d6000823e601f3d908101601f191682016040526129bf9190810190614e18565b90506000805b8251811015612acf578281815181106129e0576129e0614d99565b60200260200101516001600160a01b031663b2af870a3087876040518463ffffffff1660e01b8152600401612a1793929190614ffe565b6020604051808303816000875af1925050508015612a52575060408051601f3d908101601f19168201909252612a4f91810190614af5565b60015b612aaf577fa75bdc620b7e57f38a54b46ec03bff2ac3569bfa5e23699a4038512716e2d2f9838281518110612a8957612a89614d99565b60200260200101518686604051612aa293929190614ffe565b60405180910390a1612abd565b612ab98184614dc8565b9250505b80612ac781614de0565b9150506129c5565b506000612710612aff7f000000000000000000000000000000000000000000000000000000000000000084614c01565b612b099190614bed565b90506000612b178284614b3d565b90508015612b8557600954612b3a9061010090046001600160a01b03168261328e565b600954604080516101009092046001600160a01b03168252602082018390527fc8672ede520b81478ac0faa333bca181b30a513fef4b0d68d7816798d98b522f910160405180910390a15b81156116845760007f00000000000000000000000000000000000000000000000000000000000000006001600160a01b0316638af2c0486040518163ffffffff1660e01b8152600401602060405180830381865afa158015612beb573d6000803e3d6000fd5b505050506040513d601f19601f82011682018060405250810190612c0f9190614b54565b9050612c1b818461328e565b604080516001600160a01b0383168152602081018590527fa4c6a382f73ff9613852e022f107d783974efe6f56975cafa30fcf48256f09359101611679565b6001600160a01b038216600090815260208190526040812061267e9083906139f2565b6060806000612c8a613853565b90506000816001600160a01b031663e7c830d46040518163ffffffff1660e01b8152600401602060405180830381865afa158015612ccc573d6000803e3d6000fd5b505050506040513d601f19601f82011682018060405250810190612cf09190614af5565b90506000826001600160a01b0316633e7ff8576040518163ffffffff1660e01b8152600401602060405180830381865afa158015612d32573d6000803e3d6000fd5b505050506040513d601f19601f82011682018060405250810190612d569190614af5565b90506000612d648284614b3d565b90508067ffffffffffffffff811115612d7f57612d7f614c76565b604051908082528060200260200182016040528015612da8578160200160208202803683370190505b5095508067ffffffffffffffff811115612dc457612dc4614c76565b604051908082528060200260200182016040528015612ded578160200160208202803683370190505b5094506000825b84811015612e7f576000818152600c6020526040812090612e16828c85613ea6565b9150508015612e6a57828a8581518110612e3257612e32614d99565b60200260200101818152505080898581518110612e5157612e51614d99565b602090810291909101015283612e6681614de0565b9450505b50508080612e7790614de0565b915050612df4565b506000612e8c8284614b3d565b90508015612ea1578088510388528087510387525b505050505050915091565b83421115612efc5760405162461bcd60e51b815260206004820152601d60248201527f45524332305065726d69743a206578706972656420646561646c696e650000006044820152606401610cdb565b60007f6e71edae12b1b97f4d1f60370fef10105fa2faae0126114a169c64845d6126c9888888612f2b8c613f0b565b6040805160208101969096526001600160a01b0394851690860152929091166060840152608083015260a082015260c0810186905260e0016040516020818303038152906040528051906020012090506000612f8682613f33565b90506000612f9682878787613f9c565b9050896001600160a01b0316816001600160a01b031614612ff95760405162461bcd60e51b815260206004820152601e60248201527f45524332305065726d69743a20696e76616c6964207369676e617475726500006044820152606401610cdb565b6130048a8a8a61334b565b50505050505050505050565b6001600160a01b0381166000908152602081905260408120610c0e9043906139f2565b600061303d61169b565b90506000613049613853565b90506000816001600160a01b031663e7c830d46040518163ffffffff1660e01b8152600401602060405180830381865afa15801561308b573d6000803e3d6000fd5b505050506040513d601f19601f820116820180604052508101906130af9190614af5565b90506000826001600160a01b0316633e7ff8576040518163ffffffff1660e01b8152600401602060405180830381865afa1580156130f1573d6000803e3d6000fd5b505050506040513d601f19601f820116820180604052508101906131159190614af5565b9050805b82811015613151576000818152600c602052604090206001015461313d9086614dc8565b94508061314981614de0565b915050613119565b5060007f00000000000000000000000000000000000000000000000000000000000000006001600160a01b03166302aa63186040518163ffffffff1660e01b8152600401600060405180830381865afa1580156131b2573d6000803e3d6000fd5b505050506040513d6000823e601f3d908101601f191682016040526131da9190810190614cfa565b8051909150156132875760006131ee613681565b91505080421015613285576000613204836136eb565b905060005b81811015613282576000818152600e60205260408120905b815481101561326d5781818154811061323c5761323c614d99565b9060005260206000209060030201600101548a6132599190614dc8565b99508061326581614de0565b915050613221565b5050808061327a90614de0565b915050613209565b50505b505b5050505090565b604080516000808252602082019092526001600160a01b0384169083906040516132b89190615021565b60006040518083038185875af1925050503d80600081146132f5576040519150601f19603f3d011682016040523d82523d6000602084013e6132fa565b606091505b5050905080610b625760405162461bcd60e51b815260206004820152600e60248201527f5472616e73666572206572726f720000000000000000000000000000000000006044820152606401610cdb565b6001600160a01b0383166133c65760405162461bcd60e51b8152602060048201526024808201527f45524332303a20617070726f76652066726f6d20746865207a65726f2061646460448201527f72657373000000000000000000000000000000000000000000000000000000006064820152608401610cdb565b6001600160a01b0382166134425760405162461bcd60e51b815260206004820152602260248201527f45524332303a20617070726f766520746f20746865207a65726f20616464726560448201527f73730000000000000000000000000000000000000000000000000000000000006064820152608401610cdb565b6001600160a01b0383811660008181526003602090815260408083209487168084529482529182902085905590518481527f8c5be1e5ebec7d5bd14f71427d1e84f3dd0314c0f7b2291e5b200ac8c7c3b925910160405180910390a3505050565b6001600160a01b03821661351f5760405162461bcd60e51b815260206004820152602160248201527f45524332303a206275726e2066726f6d20746865207a65726f2061646472657360448201527f73000000000000000000000000000000000000000000000000000000000000006064820152608401610cdb565b61352b82600083610b62565b6001600160a01b038216600090815260026020526040902054818110156135ba5760405162461bcd60e51b815260206004820152602260248201527f45524332303a206275726e20616d6f756e7420657863656564732062616c616e60448201527f63650000000000000000000000000000000000000000000000000000000000006064820152608401610cdb565b6001600160a01b03831660009081526002602052604081208383039055600480548492906135e9908490614b3d565b90915550506040518281526000906001600160a01b038516907fddf252ad1be2c89b69c2b068fc378daa952ba7f163c4a11628f55a4df523b3ef9060200160405180910390a3610b6283600084610b62565b6001600160a01b038216600090815260208190526040902061365d9082613fc4565b610b64600182613fc4565b600033613676858285614115565b6126108585856141c5565b6000806000600b54116136b4577f00000000000000000000000000000000000000000000000000000000000000006136d6565b7f00000000000000000000000000000000000000000000000000000000000000005b91506136e5826276a700614dc8565b90509091565b60008082600184516136fd9190614b3d565b8151811061370d5761370d614d99565b602002602001015190506000816001600160a01b031663ddd1b67e6040518163ffffffff1660e01b8152600401602060405180830381865afa158015613757573d6000803e3d6000fd5b505050506040513d601f19601f8201168201806040525081019061377b9190614af5565b90506024811161378b5780610e75565b6024949350505050565b600080600085600201541180156137d057506001600160a01b0384166000908152600f6020908152604080832086845290915290205460ff16155b1561384b5760005b85548110156138285761380a858760000183815481106137fa576137fa614d99565b9060005260206000200154612c5a565b6138149084614dc8565b92508061382081614de0565b9150506137d8565b50846002015482866001015461383e9190614c01565b6138489190614bed565b90505b935093915050565b60007310000000000000000000000000000000000000036001600160a01b031663b39c68586040518163ffffffff1660e01b8152600401602060405180830381865afa1580156138a7573d6000803e3d6000fd5b505050506040513d601f19601f820116820180604052508101906116969190614b54565b6000306001600160a01b037f00000000000000000000000000000000000000000000000000000000000000001614801561392457507f000000000000000000000000000000000000000000000000000000000000000046145b1561394e57507f000000000000000000000000000000000000000000000000000000000000000090565b50604080517f00000000000000000000000000000000000000000000000000000000000000006020808301919091527f0000000000000000000000000000000000000000000000000000000000000000828401527f000000000000000000000000000000000000000000000000000000000000000060608301524660808301523060a0808401919091528351808403909101815260c0909201909252805191012090565b600043831115613a445760405162461bcd60e51b815260206004820152601e60248201527f426c617a65537761703a20494e56414c49445f534e415053484f545f494400006044820152606401610cdb565b8154600003613a5557506000610c0e565b438303613a955781548290613a6c90600190614b3d565b81548110613a7c57613a7c614d99565b9060005260206000209060020201600101549050610c0e565b81546000905b80821015613b045760006002613ab18385614dc8565b613abb9190614bed565b905085858281548110613ad057613ad0614d99565b9060005260206000209060020201600001541115613af057809150613afe565b613afb816001614dc8565b92505b50613a9b565b8115613b3d5783613b16600184614b3d565b81548110613b2657613b26614d99565b906000526020600020906002020160010154613b40565b60005b95945050505050565b6000818152600c602052604081208180613b64838887613ea6565b90925090508015613c3a576001600160a01b0387166000908152600d60209081526040808320888452909152812080547fffffffffffffffffffffffffffffffffffffffffffffffffffffffffffffff0016600190811790915584018054839290613bd0908490614b3d565b9250508190555081836002016000828254613beb9190614b3d565b909155505060408051868152602081018390526001600160a01b0380891692908a16917f42b87e81d693bc481b9c8bc5cabcc873466053c71a3529a6d52aa6fc3352b7cb910160405180910390a35b9695505050505050565b6000818152600e60205260408120815b8154811015613d3f576000828281548110613c7157613c71614d99565b90600052602060002090600302019050600080613c8f838a89613795565b90925090508015613d29576001600160a01b0389166000908152600f602090815260408083208a8452909152812080547fffffffffffffffffffffffffffffffffffffffffffffffffffffffffffffff0016600190811790915584018054839290613cfb908490614b3d565b9250508190555081836002016000828254613d169190614b3d565b90915550613d2690508187614dc8565b95505b5050508080613d3790614de0565b915050613c54565b508115613d9d57836001600160a01b0316856001600160a01b03167fd399c6e7fad358fc300beda3f056717c94a04c7233ce92683de6500ba509022e8585604051613d94929190918252602082015260400190565b60405180910390a35b509392505050565b600033610c088185856141c5565b6001600160a01b038216613e095760405162461bcd60e51b815260206004820152601f60248201527f45524332303a206d696e7420746f20746865207a65726f2061646472657373006044820152606401610cdb565b613e1560008383610b62565b8060046000828254613e279190614dc8565b90915550506001600160a01b03821660009081526002602052604081208054839290613e54908490614dc8565b90915550506040518181526001600160a01b038316906000907fddf252ad1be2c89b69c2b068fc378daa952ba7f163c4a11628f55a4df523b3ef9060200160405180910390a3610b6460008383610b62565b60008060008560020154118015613ee157506001600160a01b0384166000908152600d6020908152604080832086845290915290205460ff16155b1561384b57613ef4848660000154612c5a565b9150846002015482866001015461383e9190614c01565b6001600160a01b03811660009081526007602052604090208054600181018255905b50919050565b6000610c0e613f406138cb565b836040517f19010000000000000000000000000000000000000000000000000000000000006020820152602281018390526042810182905260009060620160405160208183030381529060405280519060200120905092915050565b6000806000613fad878787876143ed565b91509150613fba816144da565b5095945050505050565b815460000361400857604080518082019091524381526020808201928352835460018082018655600095865291909420915160029094029091019283559051910155565b81544390839061401a90600190614b3d565b8154811061402a5761402a614d99565b90600052602060002090600202016000015410156140c8578154600090839061405590600190614b3d565b8154811061406557614065614d99565b9060005260206000209060020201600101549050600060405180604001604052804381526020018484614098919061503d565b9052845460018181018755600087815260209081902084516002909402019283559092015191015550610b649050565b815460009083906140db90600190614b3d565b815481106140eb576140eb614d99565b9060005260206000209060020201905081816001015461410b919061503d565b6001909101555050565b6001600160a01b038381166000908152600360209081526040808320938616835292905220547fffffffffffffffffffffffffffffffffffffffffffffffffffffffffffffffff81146141bf57818110156141b25760405162461bcd60e51b815260206004820152601d60248201527f45524332303a20696e73756666696369656e7420616c6c6f77616e63650000006044820152606401610cdb565b6141bf848484840361334b565b50505050565b6001600160a01b0383166142415760405162461bcd60e51b815260206004820152602560248201527f45524332303a207472616e736665722066726f6d20746865207a65726f20616460448201527f64726573730000000000000000000000000000000000000000000000000000006064820152608401610cdb565b6001600160a01b0382166142bd5760405162461bcd60e51b815260206004820152602360248201527f45524332303a207472616e7366657220746f20746865207a65726f206164647260448201527f65737300000000000000000000000000000000000000000000000000000000006064820152608401610cdb565b6142c8838383610b62565b6001600160a01b038316600090815260026020526040902054818110156143575760405162461bcd60e51b815260206004820152602660248201527f45524332303a207472616e7366657220616d6f756e742065786365656473206260448201527f616c616e636500000000000000000000000000000000000000000000000000006064820152608401610cdb565b6001600160a01b0380851660009081526002602052604080822085850390559185168152908120805484929061438e908490614dc8565b92505081905550826001600160a01b0316846001600160a01b03167fddf252ad1be2c89b69c2b068fc378daa952ba7f163c4a11628f55a4df523b3ef846040516143da91815260200190565b60405180910390a36141bf848484610b62565b6000807f7fffffffffffffffffffffffffffffff5d576e7357a4501ddfe92f46681b20a083111561442457506000905060036144d1565b8460ff16601b1415801561443c57508460ff16601c14155b1561444d57506000905060046144d1565b6040805160008082526020820180845289905260ff881692820192909252606081018690526080810185905260019060a0016020604051602081039080840390855afa1580156144a1573d6000803e3d6000fd5b5050604051601f1901519150506001600160a01b0381166144ca576000600192509250506144d1565b9150600090505b94509492505050565b60008160048111156144ee576144ee6150b1565b036144f65750565b600181600481111561450a5761450a6150b1565b036145575760405162461bcd60e51b815260206004820152601860248201527f45434453413a20696e76616c6964207369676e617475726500000000000000006044820152606401610cdb565b600281600481111561456b5761456b6150b1565b036145b85760405162461bcd60e51b815260206004820152601f60248201527f45434453413a20696e76616c6964207369676e6174757265206c656e677468006044820152606401610cdb565b60038160048111156145cc576145cc6150b1565b0361463f5760405162461bcd60e51b815260206004820152602260248201527f45434453413a20696e76616c6964207369676e6174757265202773272076616c60448201527f75650000000000000000000000000000000000000000000000000000000000006064820152608401610cdb565b6004816004811115614653576146536150b1565b03610e0e5760405162461bcd60e51b815260206004820152602260248201527f45434453413a20696e76616c6964207369676e6174757265202776272076616c60448201527f75650000000000000000000000000000000000000000000000000000000000006064820152608401610cdb565b828054828255906000526020600020908101928215614701579160200282015b828111156147015782518255916020019190600101906146e6565b5061470d929150614711565b5090565b5b8082111561470d5760008155600101614712565b60005b83811015614741578181015183820152602001614729565b838111156141bf5750506000910152565b6020815260008251806020840152614771816040850160208701614726565b601f01601f19169190910160400192915050565b6001600160a01b0381168114610e0e57600080fd5b600080604083850312156147ad57600080fd5b82356147b881614785565b946020939093013593505050565b6000806000606084860312156147db57600080fd5b83356147e681614785565b925060208401356147f681614785565b929592945050506040919091013590565b60006020828403121561481957600080fd5b813561267e81614785565b600081518084526020808501945080840160005b8381101561485457815187529582019590820190600101614838565b509495945050505050565b6060815260006148726060830186614824565b82810360208401526148848186614824565b9150508215156040830152949350505050565b60008083601f8401126148a957600080fd5b50813567ffffffffffffffff8111156148c157600080fd5b6020830191508360208260051b85010111156148dc57600080fd5b9250929050565b600080602083850312156148f657600080fd5b823567ffffffffffffffff81111561490d57600080fd5b61491985828601614897565b90969095509350505050565b6000806000806040858703121561493b57600080fd5b843567ffffffffffffffff8082111561495357600080fd5b61495f88838901614897565b9096509450602087013591508082111561497857600080fd5b5061498587828801614897565b95989497509550505050565b8015158114610e0e57600080fd5b600080600080606085870312156149b557600080fd5b843567ffffffffffffffff8111156149cc57600080fd5b6149d887828801614897565b90955093505060208501356149ec81614785565b915060408501356149fc81614991565b939692955090935050565b600060208284031215614a1957600080fd5b5035919050565b604081526000614a336040830185614824565b8281036020840152613b408185614824565b600080600080600080600060e0888a031215614a6057600080fd5b8735614a6b81614785565b96506020880135614a7b81614785565b95506040880135945060608801359350608088013560ff81168114614a9f57600080fd5b9699959850939692959460a0840135945060c09093013592915050565b60008060408385031215614acf57600080fd5b8235614ada81614785565b91506020830135614aea81614785565b809150509250929050565b600060208284031215614b0757600080fd5b5051919050565b7f4e487b7100000000000000000000000000000000000000000000000000000000600052601160045260246000fd5b600082821015614b4f57614b4f614b0e565b500390565b600060208284031215614b6657600080fd5b815161267e81614785565b600181811c90821680614b8557607f821691505b602082108103613f2d577f4e487b7100000000000000000000000000000000000000000000000000000000600052602260045260246000fd5b7f4e487b7100000000000000000000000000000000000000000000000000000000600052601260045260246000fd5b600082614bfc57614bfc614bbe565b500490565b6000817fffffffffffffffffffffffffffffffffffffffffffffffffffffffffffffffff0483118215151615614c3957614c39614b0e565b500290565b60007f80000000000000000000000000000000000000000000000000000000000000008203614c6f57614c6f614b0e565b5060000390565b7f4e487b7100000000000000000000000000000000000000000000000000000000600052604160045260246000fd5b604051601f8201601f1916810167ffffffffffffffff81118282101715614cce57614cce614c76565b604052919050565b600067ffffffffffffffff821115614cf057614cf0614c76565b5060051b60200190565b60006020808385031215614d0d57600080fd5b825167ffffffffffffffff811115614d2457600080fd5b8301601f81018513614d3557600080fd5b8051614d48614d4382614cd6565b614ca5565b81815260059190911b82018301908381019087831115614d6757600080fd5b928401925b82841015614d8e578351614d7f81614785565b82529284019290840190614d6c565b979650505050505050565b7f4e487b7100000000000000000000000000000000000000000000000000000000600052603260045260246000fd5b60008219821115614ddb57614ddb614b0e565b500190565b60007fffffffffffffffffffffffffffffffffffffffffffffffffffffffffffffffff8203614e1157614e11614b0e565b5060010190565b60006020808385031215614e2b57600080fd5b825167ffffffffffffffff811115614e4257600080fd5b8301601f81018513614e5357600080fd5b8051614e61614d4382614cd6565b81815260059190911b82018301908381019087831115614e8057600080fd5b928401925b82841015614d8e578351614e9881614785565b82529284019290840190614e85565b600060208284031215614eb957600080fd5b815161267e81614991565b6001600160a01b0383168152604060208201526000610e756040830184614824565b7f4e487b7100000000000000000000000000000000000000000000000000000000600052600160045260246000fd5b60006020808385031215614f2857600080fd5b825167ffffffffffffffff811115614f3f57600080fd5b8301601f81018513614f5057600080fd5b8051614f5e614d4382614cd6565b81815260059190911b82018301908381019087831115614f7d57600080fd5b928401925b82841015614d8e57835182529284019290840190614f82565b600082614faa57614faa614bbe565b500690565b81835260007f07ffffffffffffffffffffffffffffffffffffffffffffffffffffffffffffff831115614fe157600080fd5b8260051b8083602087013760009401602001938452509192915050565b6001600160a01b0384168152604060208201526000613b40604083018486614faf565b60008251615033818460208701614726565b9190910192915050565b6000808212827f7fffffffffffffffffffffffffffffffffffffffffffffffffffffffffffffff0384138115161561507757615077614b0e565b827f80000000000000000000000000000000000000000000000000000000000000000384128116156150ab576150ab614b0e565b50500190565b7f4e487b7100000000000000000000000000000000000000000000000000000000600052602160045260246000fdfea164736f6c634300080f000a",
  "linkReferences": {},
  "deployedLinkReferences": {}
}