{
  "_format": "hh-sol-artifact-1",
  "contractName": "CrowdFunding",
  "sourceName": "contracts/CrowdFunding.sol",
  "abi": [
    {
      "inputs": [
        {
          "internalType": "address",
          "name": "_manager",
          "type": "address"
        },
        {
          "internalType": "address",
          "name": "_projectOwner",
          "type": "address"
        },
        {
          "internalType": "uint256",
          "name": "_natLotSize",
          "type": "uint256"
        },
        {
          "internalType": "uint256",
          "name": "_tokenLotSize",
          "type": "uint256"
        },
        {
          "internalType": "uint256",
          "name": "_lotQty",
          "type": "uint256"
        },
        {
          "internalType": "uint256",
          "name": "_raiseDeadline",
          "type": "uint256"
        },
        {
          "internalType": "uint256",
          "name": "_stakingDuration",
          "type": "uint256"
        },
        {
          "internalType": "string",
          "name": "_projectDescription",
          "type": "string"
        },
        {
          "internalType": "string",
          "name": "_iouName",
          "type": "string"
        },
        {
          "internalType": "string",
          "name": "_iouSymbol",
          "type": "string"
        },
        {
          "internalType": "uint8",
          "name": "_iouDecimals",
          "type": "uint8"
        }
      ],
      "stateMutability": "nonpayable",
      "type": "constructor"
    },
    {
      "anonymous": false,
      "inputs": [
        {
          "indexed": false,
          "internalType": "uint256",
          "name": "month",
          "type": "uint256"
        },
        {
          "indexed": false,
          "internalType": "uint256",
          "name": "amount",
          "type": "uint256"
        }
      ],
      "name": "AirdropAmount",
      "type": "event"
    },
    {
      "anonymous": false,
      "inputs": [
        {
          "indexed": true,
          "internalType": "address",
          "name": "beneficiary",
          "type": "address"
        },
        {
          "indexed": true,
          "internalType": "address",
          "name": "to",
          "type": "address"
        },
        {
          "indexed": false,
          "internalType": "uint256",
          "name": "month",
          "type": "uint256"
        },
        {
          "indexed": false,
          "internalType": "uint256",
          "name": "amount",
          "type": "uint256"
        }
      ],
      "name": "AirdropClaimed",
      "type": "event"
    },
    {
      "anonymous": false,
      "inputs": [
        {
          "indexed": true,
          "internalType": "address",
          "name": "owner",
          "type": "address"
        },
        {
          "indexed": true,
          "internalType": "address",
          "name": "spender",
          "type": "address"
        },
        {
          "indexed": false,
          "internalType": "uint256",
          "name": "value",
          "type": "uint256"
        }
      ],
      "name": "Approval",
      "type": "event"
    },
    {
      "anonymous": false,
      "inputs": [
        {
          "indexed": false,
          "internalType": "address",
          "name": "ftsoRewardManager",
          "type": "address"
        },
        {
          "indexed": false,
          "internalType": "uint256[]",
          "name": "epochs",
          "type": "uint256[]"
        }
      ],
      "name": "ClaimRewardError",
      "type": "event"
    },
    {
      "anonymous": false,
      "inputs": [
        {
          "indexed": false,
          "internalType": "address",
          "name": "account",
          "type": "address"
        },
        {
          "indexed": false,
          "internalType": "uint256",
          "name": "amount",
          "type": "uint256"
        }
      ],
      "name": "ExtraBalance",
      "type": "event"
    },
    {
      "anonymous": false,
      "inputs": [
        {
          "indexed": false,
          "internalType": "address",
          "name": "account",
          "type": "address"
        },
        {
          "indexed": false,
          "internalType": "uint256",
          "name": "amount",
          "type": "uint256"
        }
      ],
      "name": "PlatformFee",
      "type": "event"
    },
    {
      "anonymous": false,
      "inputs": [
        {
          "indexed": false,
          "internalType": "address",
          "name": "account",
          "type": "address"
        },
        {
          "indexed": false,
          "internalType": "uint256",
          "name": "amount",
          "type": "uint256"
        }
      ],
      "name": "ProjectReward",
      "type": "event"
    },
    {
      "anonymous": false,
      "inputs": [
        {
          "indexed": true,
          "internalType": "address",
          "name": "beneficiary",
          "type": "address"
        },
        {
          "indexed": true,
          "internalType": "address",
          "name": "to",
          "type": "address"
        },
        {
          "indexed": false,
          "internalType": "uint256",
          "name": "epoch",
          "type": "uint256"
        },
        {
          "indexed": false,
          "internalType": "uint256",
          "name": "amount",
          "type": "uint256"
        }
      ],
      "name": "StakerRewardClaimed",
      "type": "event"
    },
    {
      "anonymous": false,
      "inputs": [
        {
          "indexed": false,
          "internalType": "uint256",
          "name": "epoch",
          "type": "uint256"
        },
        {
          "indexed": false,
          "internalType": "uint256",
          "name": "amount",
          "type": "uint256"
        }
      ],
      "name": "StakersRewards",
      "type": "event"
    },
    {
      "anonymous": false,
      "inputs": [
        {
          "indexed": true,
          "internalType": "address",
          "name": "from",
          "type": "address"
        },
        {
          "indexed": true,
          "internalType": "address",
          "name": "to",
          "type": "address"
        },
        {
          "indexed": false,
          "internalType": "uint256",
          "name": "value",
          "type": "uint256"
        }
      ],
      "name": "Transfer",
      "type": "event"
    },
    {
      "inputs": [],
      "name": "DOMAIN_SEPARATOR",
      "outputs": [
        {
          "internalType": "bytes32",
          "name": "",
          "type": "bytes32"
        }
      ],
      "stateMutability": "view",
      "type": "function"
    },
    {
      "inputs": [
        {
          "internalType": "address",
          "name": "account",
          "type": "address"
        }
      ],
      "name": "accountCapital",
      "outputs": [
        {
          "internalType": "uint256",
          "name": "",
          "type": "uint256"
        }
      ],
      "stateMutability": "view",
      "type": "function"
    },
    {
      "inputs": [
        {
          "internalType": "address",
          "name": "account",
          "type": "address"
        },
        {
          "internalType": "uint256",
          "name": "blockNum",
          "type": "uint256"
        }
      ],
      "name": "accountCapitalAt",
      "outputs": [
        {
          "internalType": "uint256",
          "name": "",
          "type": "uint256"
        }
      ],
      "stateMutability": "view",
      "type": "function"
    },
    {
      "inputs": [
        {
          "internalType": "address",
          "name": "owner",
          "type": "address"
        },
        {
          "internalType": "address",
          "name": "spender",
          "type": "address"
        }
      ],
      "name": "allowance",
      "outputs": [
        {
          "internalType": "uint256",
          "name": "",
          "type": "uint256"
        }
      ],
      "stateMutability": "view",
      "type": "function"
    },
    {
      "inputs": [
        {
          "internalType": "address",
          "name": "spender",
          "type": "address"
        },
        {
          "internalType": "uint256",
          "name": "amount",
          "type": "uint256"
        }
      ],
      "name": "approve",
      "outputs": [
        {
          "internalType": "bool",
          "name": "",
          "type": "bool"
        }
      ],
      "stateMutability": "nonpayable",
      "type": "function"
    },
    {
      "inputs": [
        {
          "internalType": "address",
          "name": "account",
          "type": "address"
        }
      ],
      "name": "balanceOf",
      "outputs": [
        {
          "internalType": "uint256",
          "name": "",
          "type": "uint256"
        }
      ],
      "stateMutability": "view",
      "type": "function"
    },
    {
      "inputs": [
        {
          "internalType": "address[]",
          "name": "providers",
          "type": "address[]"
        },
        {
          "internalType": "uint256[]",
          "name": "bips",
          "type": "uint256[]"
        }
      ],
      "name": "changeDelegations",
      "outputs": [],
      "stateMutability": "nonpayable",
      "type": "function"
    },
    {
      "inputs": [
        {
          "internalType": "address",
          "name": "account",
          "type": "address"
        }
      ],
      "name": "changeProjectRewardAccount",
      "outputs": [],
      "stateMutability": "nonpayable",
      "type": "function"
    },
    {
      "inputs": [
        {
          "internalType": "uint256[]",
          "name": "months",
          "type": "uint256[]"
        },
        {
          "internalType": "address",
          "name": "to",
          "type": "address"
        },
        {
          "internalType": "bool",
          "name": "wrapped",
          "type": "bool"
        }
      ],
      "name": "claimAirdrops",
      "outputs": [],
      "stateMutability": "nonpayable",
      "type": "function"
    },
    {
      "inputs": [
        {
          "internalType": "uint256[]",
          "name": "epochs",
          "type": "uint256[]"
        },
        {
          "internalType": "address",
          "name": "to",
          "type": "address"
        },
        {
          "internalType": "bool",
          "name": "wrapped",
          "type": "bool"
        }
      ],
      "name": "claimStakerRewards",
      "outputs": [],
      "stateMutability": "nonpayable",
      "type": "function"
    },
    {
      "inputs": [],
      "name": "decimals",
      "outputs": [
        {
          "internalType": "uint8",
          "name": "",
          "type": "uint8"
        }
      ],
      "stateMutability": "view",
      "type": "function"
    },
    {
      "inputs": [
        {
          "internalType": "address",
          "name": "spender",
          "type": "address"
        },
        {
          "internalType": "uint256",
          "name": "subtractedValue",
          "type": "uint256"
        }
      ],
      "name": "decreaseAllowance",
      "outputs": [
        {
          "internalType": "bool",
          "name": "",
          "type": "bool"
        }
      ],
      "stateMutability": "nonpayable",
      "type": "function"
    },
    {
      "inputs": [
        {
          "internalType": "uint256",
          "name": "month",
          "type": "uint256"
        }
      ],
      "name": "distributeAirdrop",
      "outputs": [],
      "stateMutability": "nonpayable",
      "type": "function"
    },
    {
      "inputs": [
        {
          "internalType": "uint256[]",
          "name": "epochs",
          "type": "uint256[]"
        }
      ],
      "name": "distributeFtsoRewardsToProject",
      "outputs": [],
      "stateMutability": "nonpayable",
      "type": "function"
    },
    {
      "inputs": [
        {
          "internalType": "uint256[]",
          "name": "epochs",
          "type": "uint256[]"
        }
      ],
      "name": "distributeFtsoRewardsToStakers",
      "outputs": [],
      "stateMutability": "nonpayable",
      "type": "function"
    },
    {
      "inputs": [
        {
          "internalType": "address",
          "name": "beneficiary",
          "type": "address"
        }
      ],
      "name": "epochsWithUnclaimedStakerReward",
      "outputs": [
        {
          "internalType": "uint256[]",
          "name": "epochs",
          "type": "uint256[]"
        },
        {
          "internalType": "uint256[]",
          "name": "amounts",
          "type": "uint256[]"
        }
      ],
      "stateMutability": "view",
      "type": "function"
    },
    {
      "inputs": [],
      "name": "fund",
      "outputs": [],
      "stateMutability": "payable",
      "type": "function"
    },
    {
      "inputs": [
        {
          "internalType": "address",
          "name": "spender",
          "type": "address"
        },
        {
          "internalType": "uint256",
          "name": "addedValue",
          "type": "uint256"
        }
      ],
      "name": "increaseAllowance",
      "outputs": [
        {
          "internalType": "bool",
          "name": "",
          "type": "bool"
        }
      ],
      "stateMutability": "nonpayable",
      "type": "function"
    },
    {
      "inputs": [],
      "name": "lotQty",
      "outputs": [
        {
          "internalType": "uint256",
          "name": "",
          "type": "uint256"
        }
      ],
      "stateMutability": "view",
      "type": "function"
    },
    {
      "inputs": [
        {
          "internalType": "address",
          "name": "beneficiary",
          "type": "address"
        }
      ],
      "name": "monthsWithUnclaimedAirdrop",
      "outputs": [
        {
          "internalType": "uint256[]",
          "name": "months",
          "type": "uint256[]"
        },
        {
          "internalType": "uint256[]",
          "name": "amounts",
          "type": "uint256[]"
        },
        {
          "internalType": "bool",
          "name": "claimable",
          "type": "bool"
        }
      ],
      "stateMutability": "view",
      "type": "function"
    },
    {
      "inputs": [],
      "name": "name",
      "outputs": [
        {
          "internalType": "string",
          "name": "",
          "type": "string"
        }
      ],
      "stateMutability": "view",
      "type": "function"
    },
    {
      "inputs": [],
      "name": "natLotSize",
      "outputs": [
        {
          "internalType": "uint256",
          "name": "",
          "type": "uint256"
        }
      ],
      "stateMutability": "view",
      "type": "function"
    },
    {
      "inputs": [
        {
          "internalType": "address",
          "name": "owner",
          "type": "address"
        }
      ],
      "name": "nonces",
      "outputs": [
        {
          "internalType": "uint256",
          "name": "",
          "type": "uint256"
        }
      ],
      "stateMutability": "view",
      "type": "function"
    },
    {
      "inputs": [
        {
          "internalType": "address",
          "name": "owner",
          "type": "address"
        },
        {
          "internalType": "address",
          "name": "spender",
          "type": "address"
        },
        {
          "internalType": "uint256",
          "name": "value",
          "type": "uint256"
        },
        {
          "internalType": "uint256",
          "name": "deadline",
          "type": "uint256"
        },
        {
          "internalType": "uint8",
          "name": "v",
          "type": "uint8"
        },
        {
          "internalType": "bytes32",
          "name": "r",
          "type": "bytes32"
        },
        {
          "internalType": "bytes32",
          "name": "s",
          "type": "bytes32"
        }
      ],
      "name": "permit",
      "outputs": [],
      "stateMutability": "nonpayable",
      "type": "function"
    },
    {
      "inputs": [],
      "name": "platformFeeBips",
      "outputs": [
        {
          "internalType": "uint256",
          "name": "",
          "type": "uint256"
        }
      ],
      "stateMutability": "view",
      "type": "function"
    },
    {
      "inputs": [],
      "name": "projectDescription",
      "outputs": [
        {
          "internalType": "string",
          "name": "",
          "type": "string"
        }
      ],
      "stateMutability": "view",
      "type": "function"
    },
    {
      "inputs": [],
      "name": "projectOwner",
      "outputs": [
        {
          "internalType": "address",
          "name": "",
          "type": "address"
        }
      ],
      "stateMutability": "view",
      "type": "function"
    },
    {
      "inputs": [],
      "name": "projectRewardAccount",
      "outputs": [
        {
          "internalType": "address",
          "name": "",
          "type": "address"
        }
      ],
      "stateMutability": "view",
      "type": "function"
    },
    {
      "inputs": [],
      "name": "raiseCompletedAtBlock",
      "outputs": [
        {
          "internalType": "uint256",
          "name": "",
          "type": "uint256"
        }
      ],
      "stateMutability": "view",
      "type": "function"
    },
    {
      "inputs": [],
      "name": "raiseDeadline",
      "outputs": [
        {
          "internalType": "uint256",
          "name": "",
          "type": "uint256"
        }
      ],
      "stateMutability": "view",
      "type": "function"
    },
    {
      "inputs": [],
      "name": "skimExtraBalance",
      "outputs": [],
      "stateMutability": "nonpayable",
      "type": "function"
    },
    {
      "inputs": [],
      "name": "stakingDuration",
      "outputs": [
        {
          "internalType": "uint256",
          "name": "",
          "type": "uint256"
        }
      ],
      "stateMutability": "view",
      "type": "function"
    },
    {
      "inputs": [],
      "name": "stakingEnd",
      "outputs": [
        {
          "internalType": "uint256",
          "name": "",
          "type": "uint256"
        }
      ],
      "stateMutability": "view",
      "type": "function"
    },
    {
      "inputs": [],
      "name": "symbol",
      "outputs": [
        {
          "internalType": "string",
          "name": "",
          "type": "string"
        }
      ],
      "stateMutability": "view",
      "type": "function"
    },
    {
      "inputs": [],
      "name": "targetRaiseAmount",
      "outputs": [
        {
          "internalType": "uint256",
          "name": "",
          "type": "uint256"
        }
      ],
      "stateMutability": "view",
      "type": "function"
    },
    {
      "inputs": [],
      "name": "tokenLotSize",
      "outputs": [
        {
          "internalType": "uint256",
          "name": "",
          "type": "uint256"
        }
      ],
      "stateMutability": "view",
      "type": "function"
    },
    {
      "inputs": [],
      "name": "totalCapital",
      "outputs": [
        {
          "internalType": "uint256",
          "name": "",
          "type": "uint256"
        }
      ],
      "stateMutability": "view",
      "type": "function"
    },
    {
      "inputs": [
        {
          "internalType": "uint256",
          "name": "blockNum",
          "type": "uint256"
        }
      ],
      "name": "totalCapitalAt",
      "outputs": [
        {
          "internalType": "uint256",
          "name": "",
          "type": "uint256"
        }
      ],
      "stateMutability": "view",
      "type": "function"
    },
    {
      "inputs": [],
      "name": "totalOfferedIOU",
      "outputs": [
        {
          "internalType": "uint256",
          "name": "",
          "type": "uint256"
        }
      ],
      "stateMutability": "view",
      "type": "function"
    },
    {
      "inputs": [],
      "name": "totalSupply",
      "outputs": [
        {
          "internalType": "uint256",
          "name": "",
          "type": "uint256"
        }
      ],
      "stateMutability": "view",
      "type": "function"
    },
    {
      "inputs": [
        {
          "internalType": "address",
          "name": "to",
          "type": "address"
        },
        {
          "internalType": "uint256",
          "name": "amount",
          "type": "uint256"
        }
      ],
      "name": "transfer",
      "outputs": [
        {
          "internalType": "bool",
          "name": "",
          "type": "bool"
        }
      ],
      "stateMutability": "nonpayable",
      "type": "function"
    },
    {
      "inputs": [
        {
          "internalType": "address",
          "name": "from",
          "type": "address"
        },
        {
          "internalType": "address",
          "name": "to",
          "type": "address"
        },
        {
          "internalType": "uint256",
          "name": "amount",
          "type": "uint256"
        }
      ],
      "name": "transferFrom",
      "outputs": [
        {
          "internalType": "bool",
          "name": "",
          "type": "bool"
        }
      ],
      "stateMutability": "nonpayable",
      "type": "function"
    },
    {
      "inputs": [],
      "name": "transfersAllowed",
      "outputs": [
        {
          "internalType": "bool",
          "name": "",
          "type": "bool"
        }
      ],
      "stateMutability": "view",
      "type": "function"
    },
    {
      "inputs": [],
      "name": "withdrawInitialCapital",
      "outputs": [],
      "stateMutability": "nonpayable",
      "type": "function"
    },
    {
      "stateMutability": "payable",
      "type": "receive"
    }
  ],
  "bytecode": "0x6102806040523480156200001257600080fd5b506040516200587b3803806200587b833981016040819052620000359162000435565b8282828280604051806040016040528060018152602001603160f81b81525085858160059081620000679190620005ce565b506006620000768282620005ce565b5050825160208085019190912083518483012060e08290526101008190524660a0818152604080517f8b73c3c69bb8fe3d512ecc4cf759cc79239f7b179b0ffacaa9a75d522b39400f81880181905281830187905260608201869052608082019490945230818401528151808203909301835260c0019052805194019390932091935091906080523060c0526101205250506009805460ff191660ff959095169490941790935550505050506001600160a01b038a16158015906200013b5750600089115b8015620001485750600088115b80156200016157506000196200015f888b620006b0565b105b80156200017a575060001962000178888a620006b0565b105b80156200018657504286115b8015620001935750600085115b620001d85760405162461bcd60e51b8152602060048201526011602482015270496e76616c696420617267756d656e747360781b604482015260640160405180910390fd5b6001600160a01b038b1661014081905260408051639edbf00760e01b81529051639edbf007916004808201926020929091908290030181865afa15801562000224573d6000803e3d6000fd5b505050506040513d601f19601f820116820180604052508101906200024a9190620006d2565b6001600160a01b03908116610160528a811661018081905260098054610100600160a81b031916610100909202919091179055610140516040805163cc4248f760e01b81529051919092169163cc4248f79160048083019260209291908290030181865afa158015620002c1573d6000803e3d6000fd5b505050506040513d601f19601f82011682018060405250810190620002e79190620006f7565b6101a0526101c08990526101e088905261020087905261022086905261024085905262000315858762000711565b61026052600a620003278582620005ce565b5050505050505050505050506200072c565b80516001600160a01b03811681146200035157600080fd5b919050565b634e487b7160e01b600052604160045260246000fd5b600082601f8301126200037e57600080fd5b81516001600160401b03808211156200039b576200039b62000356565b604051601f8301601f19908116603f01168101908282118183101715620003c657620003c662000356565b81604052838152602092508683858801011115620003e357600080fd5b600091505b83821015620004075785820183015181830184015290820190620003e8565b83821115620004195760008385830101525b9695505050505050565b805160ff811681146200035157600080fd5b60008060008060008060008060008060006101608c8e0312156200045857600080fd5b620004638c62000339565b9a506200047360208d0162000339565b995060408c0151985060608c0151975060808c0151965060a08c0151955060c08c0151945060e08c015160018060401b03811115620004b157600080fd5b620004bf8e828f016200036c565b6101008e015190955090506001600160401b03811115620004df57600080fd5b620004ed8e828f016200036c565b6101208e015190945090506001600160401b038111156200050d57600080fd5b6200051b8e828f016200036c565b9250506200052d6101408d0162000423565b90509295989b509295989b9093969950565b600181811c908216806200055457607f821691505b6020821081036200057557634e487b7160e01b600052602260045260246000fd5b50919050565b601f821115620005c957600081815260208120601f850160051c81016020861015620005a45750805b601f850160051c820191505b81811015620005c557828155600101620005b0565b5050505b505050565b81516001600160401b03811115620005ea57620005ea62000356565b6200060281620005fb84546200053f565b846200057b565b602080601f8311600181146200063a5760008415620006215750858301515b600019600386901b1c1916600185901b178555620005c5565b600085815260208120601f198616915b828110156200066b578886015182559484019460019091019084016200064a565b50858210156200068a5787850151600019600388901b60f8161c191681555b5050505050600190811b01905550565b634e487b7160e01b600052601160045260246000fd5b6000816000190483118215151615620006cd57620006cd6200069a565b500290565b600060208284031215620006e557600080fd5b620006f08262000339565b9392505050565b6000602082840312156200070a57600080fd5b5051919050565b600082198211156200072757620007276200069a565b500190565b60805160a05160c05160e05161010051610120516101405161016051610180516101a0516101c0516101e05161020051610220516102405161026051614f9c620008df6000396000818161051401528181610c160152613658015260006105e801526000818161061c01528181610c40015281816110fa01528181612687015261363201526000818161074b01528181611c2801526125210152600081816104a001528181610d0701526125420152600081816107fe01528181610d2b01528181611c4901526127040152600081816108320152612a7c0152600081816106f7015281816116f2015261241801526000818161096001528181610a1401528181610da0015281816115260152818161176f015281816117ed01528181611b0701528181611ba901528181611db401528181611e560152818161226b01526127e2015260008181610a8401528181610e85015281816111aa015281816115a301528181611f8301528181612328015281816128dd01528181612b3101526130f8015260006138f701526000613946015260006139210152600061387a015260006138a4015260006138ce0152614f9c6000f3fe6080604052600436106102eb5760003560e01c80638005a7de11610184578063b0660c3d116100d6578063cc4248f71161008a578063d505accf11610064578063d505accf146108a2578063dd62ed3e146108c2578063e4b1cc381461090857600080fd5b8063cc4248f714610820578063cca7471214610854578063cf62d89e1461087457600080fd5b8063b9cd4168116100bb578063b9cd4168146107ac578063bb5e85fe146107cc578063be0775b3146107ec57600080fd5b8063b0660c3d1461078d578063b60d4288146107a457600080fd5b8063a301027511610138578063a457c2d711610112578063a457c2d714610719578063a7a9eff014610739578063a9059cbb1461076d57600080fd5b8063a3010275146106b0578063a3220d5a146106d0578063a4475ce4146106e557600080fd5b806395d89b411161016957806395d89b411461063e57806399dfe8ca146106535780639c7e08d01461067357600080fd5b80638005a7de146105d65780638a382b8b1461060a57600080fd5b8063383032ea1161023d578063517d0411116101f157806370a08231116101cb57806370a082311461056b578063755f047b146105a15780637ecebe00146105b657600080fd5b8063517d04111461050257806356da67ec1461053657806367fd33e91461054b57600080fd5b80633dbaa06f116102225780633dbaa06f1461048e57806342d8c2b9146104c257806349015e77146104e257600080fd5b8063383032ea14610459578063395093511461046e57600080fd5b806323b872dd1161029f5780633307cbaf116102795780633307cbaf1461040e5780633644e5151461042e57806336b8cd1e1461044357600080fd5b806323b872dd1461039d5780632434da4e146103bd578063313ce567146103ec57600080fd5b8063095ea7b3116102d0578063095ea7b31461033957806318160ddd14610369578063236db7fe1461038857600080fd5b806304e7d3e6146102f757806306fdde031461030e57600080fd5b366102f257005b600080fd5b34801561030357600080fd5b5061030c610928565b005b34801561031a57600080fd5b50610323610b68565b6040516103309190614601565b60405180910390f35b34801561034557600080fd5b50610359610354366004614649565b610bfa565b6040519015158152602001610330565b34801561037557600080fd5b506004545b604051908152602001610330565b34801561039457600080fd5b5061030c610c14565b3480156103a957600080fd5b506103596103b8366004614675565b610e11565b3480156103c957600080fd5b506103dd6103d83660046146b6565b610e7d565b6040516103309392919061470e565b3480156103f857600080fd5b5060095460405160ff9091168152602001610330565b34801561041a57600080fd5b5061030c610429366004614792565b6110f8565b34801561043a57600080fd5b5061037a61168c565b34801561044f57600080fd5b5061037a600b5481565b34801561046557600080fd5b5061037a61169b565b34801561047a57600080fd5b50610359610489366004614649565b6116a8565b34801561049a57600080fd5b5061037a7f000000000000000000000000000000000000000000000000000000000000000081565b3480156104ce57600080fd5b5061030c6104dd3660046147d4565b6116e7565b3480156104ee57600080fd5b5061030c6104fd36600461484e565b611963565b34801561050e57600080fd5b5061037a7f000000000000000000000000000000000000000000000000000000000000000081565b34801561054257600080fd5b5061037a611c21565b34801561055757600080fd5b5061030c61056636600461484e565b611c6d565b34801561057757600080fd5b5061037a6105863660046146b6565b6001600160a01b031660009081526002602052604090205490565b3480156105ad57600080fd5b50610323611ec4565b3480156105c257600080fd5b5061037a6105d13660046146b6565b611f52565b3480156105e257600080fd5b5061037a7f000000000000000000000000000000000000000000000000000000000000000081565b34801561061657600080fd5b5061037a7f000000000000000000000000000000000000000000000000000000000000000081565b34801561064a57600080fd5b50610323611f70565b34801561065f57600080fd5b5061030c61066e3660046148b6565b611f7f565b34801561067f57600080fd5b506009546106989061010090046001600160a01b031681565b6040516001600160a01b039091168152602001610330565b3480156106bc57600080fd5b5061030c6106cb3660046146b6565b61240d565b3480156106dc57600080fd5b5061037a61251a565b3480156106f157600080fd5b506106987f000000000000000000000000000000000000000000000000000000000000000081565b34801561072557600080fd5b50610359610734366004614649565b612566565b34801561074557600080fd5b5061037a7f000000000000000000000000000000000000000000000000000000000000000081565b34801561077957600080fd5b50610359610788366004614649565b61261b565b34801561079957600080fd5b50600b541515610359565b61030c612685565b3480156107b857600080fd5b5061037a6107c73660046148b6565b61287a565b3480156107d857600080fd5b5061030c6107e7366004614792565b612887565b3480156107f857600080fd5b5061037a7f000000000000000000000000000000000000000000000000000000000000000081565b34801561082c57600080fd5b5061037a7f000000000000000000000000000000000000000000000000000000000000000081565b34801561086057600080fd5b5061037a61086f366004614649565b612bfc565b34801561088057600080fd5b5061089461088f3660046146b6565b612c1f565b6040516103309291906148cf565b3480156108ae57600080fd5b5061030c6108bd3660046148f4565b612e4e565b3480156108ce57600080fd5b5061037a6108dd36600461496b565b6001600160a01b03918216600090815260036020908152604080832093909416825291909152205490565b34801561091457600080fd5b5061037a6109233660046146b6565b612fb2565b6000610932612fd5565b6040517f70a082310000000000000000000000000000000000000000000000000000000081523060048201527f00000000000000000000000000000000000000000000000000000000000000006001600160a01b0316906370a0823190602401602060405180830381865afa1580156109af573d6000803e3d6000fd5b505050506040513d601f19601f820116820180604052508101906109d391906149a4565b6109dd91906149ec565b90508015610a79576040517f2e1a7d4d000000000000000000000000000000000000000000000000000000008152600481018290527f00000000000000000000000000000000000000000000000000000000000000006001600160a01b031690632e1a7d4d90602401600060405180830381600087803b158015610a6057600080fd5b505af1158015610a74573d6000803e3d6000fd5b505050505b478015610b645760007f00000000000000000000000000000000000000000000000000000000000000006001600160a01b0316638af2c0486040518163ffffffff1660e01b8152600401602060405180830381865afa158015610ae0573d6000803e3d6000fd5b505050506040513d601f19601f82011682018060405250810190610b049190614a03565b90506001600160a01b03811615610b6257610b1f8183613230565b604080516001600160a01b0383168152602081018490527f11bed7b3116d18b20dd62d7f9cbdce33fb73f2094dca5af45df3508f7a964c8c910160405180910390a15b505b5050565b606060058054610b7790614a20565b80601f0160208091040260200160405190810160405280929190818152602001828054610ba390614a20565b8015610bf05780601f10610bc557610100808354040283529160200191610bf0565b820191906000526020600020905b815481529060010190602001808311610bd357829003601f168201915b5050505050905090565b600033610c088185856132ed565b60019150505b92915050565b7f000000000000000000000000000000000000000000000000000000000000000042101580610c6e57507f00000000000000000000000000000000000000000000000000000000000000004210158015610c6e5750600b54155b610ce45760405162461bcd60e51b8152602060048201526024808201527f596f752063616e6e6f7420776974686472617720796f7572206361706974616c60448201527f207965740000000000000000000000000000000000000000000000000000000060648201526084015b60405180910390fd5b6000610cef33612fb2565b90508015610e0e57600b54600003610d5f57610d5f337f0000000000000000000000000000000000000000000000000000000000000000610d507f000000000000000000000000000000000000000000000000000000000000000085614a9c565b610d5a9190614ab0565b613445565b610d7133610d6c83614aed565b6135dd565b6040517f2e1a7d4d000000000000000000000000000000000000000000000000000000008152600481018290527f00000000000000000000000000000000000000000000000000000000000000006001600160a01b031690632e1a7d4d90602401600060405180830381600087803b158015610dec57600080fd5b505af1158015610e00573d6000803e3d6000fd5b50505050610e0e3382613230565b50565b6000610e1e600b54151590565b610e6a5760405162461bcd60e51b815260206004820152601960248201527f5472616e736665727320617265206e6f7420656e61626c6564000000000000006044820152606401610cdb565b610e7584848461360a565b949350505050565b6060806000807f00000000000000000000000000000000000000000000000000000000000000006001600160a01b03166302aa63186040518163ffffffff1660e01b8152600401600060405180830381865afa158015610ee1573d6000803e3d6000fd5b505050506040513d6000823e601f3d908101601f19168201604052610f099190810190614ba9565b8051909150156110f057600080610f1e613623565b91509150804210156110ed576000610f358461368d565b90508067ffffffffffffffff811115610f5057610f50614b25565b604051908082528060200260200182016040528015610f79578160200160208202803683370190505b5096508067ffffffffffffffff811115610f9557610f95614b25565b604051908082528060200260200182016040528015610fbe578160200160208202803683370190505b5095506000805b828110156110c1576000818152600e60205260408120905b8154811015611060576000828281548110610ffa57610ffa614c48565b906000526020600020906003020190506000611017828f87613737565b915050801561104b57808c878151811061103357611033614c48565b602002602001018181516110479190614c77565b9052505b5050808061105890614c8f565b915050610fdd565b50600089848151811061107557611075614c48565b602002602001015111156110ae57818a8461108f81614c8f565b9550815181106110a1576110a1614c48565b6020026020010181815250505b50806110b981614c8f565b915050610fc5565b5060006110ce82846149ec565b905080156110e3578089510389528088510388525b8442101596505050505b50505b509193909250565b7f000000000000000000000000000000000000000000000000000000000000000042101580156111285750600b54155b61119a5760405162461bcd60e51b815260206004820152602160248201527f5261697365206e6f7420636f6d706c65746564206f722073756363657373667560448201527f6c000000000000000000000000000000000000000000000000000000000000006064820152608401610cdb565b60006111a46137f5565b905060007f00000000000000000000000000000000000000000000000000000000000000006001600160a01b03166377fb67496040518163ffffffff1660e01b8152600401600060405180830381865afa158015611206573d6000803e3d6000fd5b505050506040513d6000823e601f3d908101601f1916820160405261122e9190810190614cc7565b905060008060005b8581101561150d57600087878381811061125257611252614c48565b9050602002013590506000866001600160a01b031663f2edab5a836040518263ffffffff1660e01b815260040161128b91815260200190565b602060405180830381865afa1580156112a8573d6000803e3d6000fd5b505050506040513d601f19601f820116820180604052508101906112cc91906149a4565b905060006112d98261287a565b6040805160018082528183019092529192506000919060208083019080368337019050509050838160008151811061131357611313614c48565b6020026020010181815250506000805b89518110156114555789818151811061133e5761133e614c48565b60200260200101516001600160a01b03166302fb0c5e6040518163ffffffff1660e01b8152600401602060405180830381865afa158015611383573d6000803e3d6000fd5b505050506040513d601f19601f820116820180604052508101906113a79190614d56565b15611443578981815181106113be576113be614c48565b60200260200101516001600160a01b031663b2af870a30856040518363ffffffff1660e01b81526004016113f3929190614d73565b6020604051808303816000875af1158015611412573d6000803e3d6000fd5b505050506040513d601f19601f8201168201806040525081019061143691906149a4565b6114409083614c77565b91505b8061144d81614c8f565b915050611323565b5080156114f557826000036114755761146e8188614c77565b96506114f5565b61147f8189614c77565b60408051606081018252868152602080820185815282840188815260008b8152600c845285902093518455905160018401555160029092019190915581518881529081018490529199507f1cc856b5fc4708df8bd73f1d1566f2c0ac4a225419018e57db59c160397d6db0910160405180910390a15b5050505050808061150590614c8f565b915050611236565b508115611599578147101561152457611524614d95565b7f00000000000000000000000000000000000000000000000000000000000000006001600160a01b031663d0e30db0476040518263ffffffff1660e01b81526004016000604051808303818588803b15801561157f57600080fd5b505af1158015611593573d6000803e3d6000fd5b50505050505b80156116845760007f00000000000000000000000000000000000000000000000000000000000000006001600160a01b0316638af2c0486040518163ffffffff1660e01b8152600401602060405180830381865afa1580156115ff573d6000803e3d6000fd5b505050506040513d601f19601f820116820180604052508101906116239190614a03565b90506001600160a01b038116156116825761163e8183613230565b604080516001600160a01b0383168152602081018490527f11bed7b3116d18b20dd62d7f9cbdce33fb73f2094dca5af45df3508f7a964c8c91015b60405180910390a15b505b505050505050565b600061169661386d565b905090565b6000611696436001613994565b3360008181526003602090815260408083206001600160a01b0387168452909152812054909190610c0890829086906116e2908790614c77565b6132ed565b336001600160a01b037f0000000000000000000000000000000000000000000000000000000000000000161461175f5760405162461bcd60e51b815260206004820152601160248201527f4e6f742070726f6a656374206f776e65720000000000000000000000000000006044820152606401610cdb565b82811461176b57600080fd5b60007f00000000000000000000000000000000000000000000000000000000000000006001600160a01b031663b302f3936040518163ffffffff1660e01b8152600401600060405180830381600087803b1580156117c857600080fd5b505af11580156117dc573d6000803e3d6000fd5b5050505060005b8481101561190a577f00000000000000000000000000000000000000000000000000000000000000006001600160a01b031663026e402b87878481811061182c5761182c614c48565b905060200201602081019061184191906146b6565b86868581811061185357611853614c48565b6040517fffffffff0000000000000000000000000000000000000000000000000000000060e087901b1681526001600160a01b0390941660048501526020029190910135602483015250604401600060405180830381600087803b1580156118ba57600080fd5b505af11580156118ce573d6000803e3d6000fd5b505050508383828181106118e4576118e4614c48565b90506020020135826118f69190614c77565b91508061190281614c8f565b9150506117e3565b50806127101461195c5760405162461bcd60e51b815260206004820152601260248201527f4e6f7420313030252064656c65676174656400000000000000000000000000006044820152606401610cdb565b5050505050565b600061196d6137f5565b90506000816001600160a01b031663e7c830d46040518163ffffffff1660e01b8152600401602060405180830381865afa1580156119af573d6000803e3d6000fd5b505050506040513d601f19601f820116820180604052508101906119d391906149a4565b90506000826001600160a01b0316633e7ff8576040518163ffffffff1660e01b8152600401602060405180830381865afa158015611a15573d6000803e3d6000fd5b505050506040513d601f19601f82011682018060405250810190611a3991906149a4565b90506000805b87811015611abb576000898983818110611a5b57611a5b614c48565b905060200201359050838110158015611a7357508481105b15611aa857611a9b33898c8c86818110611a8f57611a8f614c48565b90506020020135613aeb565b611aa59084614c77565b92505b5080611ab381614c8f565b915050611a3f565b508015611c17578415611b7a576040517fa9059cbb0000000000000000000000000000000000000000000000000000000081526001600160a01b038781166004830152602482018390527f0000000000000000000000000000000000000000000000000000000000000000169063a9059cbb906044016020604051808303816000875af1158015611b50573d6000803e3d6000fd5b505050506040513d601f19601f82011682018060405250810190611b749190614d56565b50611c17565b6040517f2e1a7d4d000000000000000000000000000000000000000000000000000000008152600481018290527f00000000000000000000000000000000000000000000000000000000000000006001600160a01b031690632e1a7d4d90602401600060405180830381600087803b158015611bf557600080fd5b505af1158015611c09573d6000803e3d6000fd5b50505050611c178682613230565b5050505050505050565b60006116967f00000000000000000000000000000000000000000000000000000000000000007f0000000000000000000000000000000000000000000000000000000000000000614ab0565b600080611c78613623565b9150915081421015611ccc5760405162461bcd60e51b815260206004820152601160248201527f4e6f7420636c61696d61626c65207965740000000000000000000000000000006044820152606401610cdb565b804210611d1b5760405162461bcd60e51b815260206004820152601560248201527f4e6f7420636c61696d61626c6520616e796d6f726500000000000000000000006044820152606401610cdb565b6000805b86811015611d6857611d4a33878a8a85818110611d3e57611d3e614c48565b90506020020135613be6565b611d549083614c77565b915080611d6081614c8f565b915050611d1f565b508015611682578315611e27576040517fa9059cbb0000000000000000000000000000000000000000000000000000000081526001600160a01b038681166004830152602482018390527f0000000000000000000000000000000000000000000000000000000000000000169063a9059cbb906044016020604051808303816000875af1158015611dfd573d6000803e3d6000fd5b505050506040513d601f19601f82011682018060405250810190611e219190614d56565b50611682565b6040517f2e1a7d4d000000000000000000000000000000000000000000000000000000008152600481018290527f00000000000000000000000000000000000000000000000000000000000000006001600160a01b031690632e1a7d4d90602401600060405180830381600087803b158015611ea257600080fd5b505af1158015611eb6573d6000803e3d6000fd5b505050506116828582613230565b600a8054611ed190614a20565b80601f0160208091040260200160405190810160405280929190818152602001828054611efd90614a20565b8015611f4a5780601f10611f1f57610100808354040283529160200191611f4a565b820191906000526020600020905b815481529060010190602001808311611f2d57829003601f168201915b505050505081565b6001600160a01b038116600090815260076020526040812054610c0e565b606060068054610b7790614a20565b60007f00000000000000000000000000000000000000000000000000000000000000006001600160a01b03166302aa63186040518163ffffffff1660e01b8152600401600060405180830381865afa158015611fdf573d6000803e3d6000fd5b505050506040513d6000823e601f3d908101601f191682016040526120079190810190614ba9565b6000838152600e60205260408120919250908190815b845181101561225257600085828151811061203a5761203a614c48565b60209081029190910101516040517faad3ec96000000000000000000000000000000000000000000000000000000008152306004820152602481018990529091506000906001600160a01b0383169063aad3ec96906044016020604051808303816000875af11580156120b1573d6000803e3d6000fd5b505050506040513d601f19601f820116820180604052508101906120d591906149a4565b9050801561223d576040517f978d80ab000000000000000000000000000000000000000000000000000000008152600481018990526000906001600160a01b0384169063978d80ab90602401600060405180830381865afa15801561213e573d6000803e3d6000fd5b505050506040513d6000823e601f3d908101601f191682016040526121669190810190614dc4565b90506000805b82518110156121b55761219783828151811061218a5761218a614c48565b602002602001015161287a565b6121a19083614c77565b9150806121ad81614c8f565b91505061216c565b50806000036121cf576121c88388614c77565b965061223a565b6121d98389614c77565b6040805160608101825284815260208082018790529181018490528854600181018a5560008a815283902082518051959d50929460039092020192612222928492910190614575565b50602082015181600101556040820151816002015550505b50505b5050808061224a90614c8f565b91505061201d565b50821561231e578247101561226957612269614d95565b7f00000000000000000000000000000000000000000000000000000000000000006001600160a01b031663d0e30db0476040518263ffffffff1660e01b81526004016000604051808303818588803b1580156122c457600080fd5b505af11580156122d8573d6000803e3d6000fd5b505060408051898152602081018890527fe71c6901892c335282cc8e7159ae79586e0a87b0b7507ad6c8c6da48c45db2cb94500191506123159050565b60405180910390a15b811561195c5760007f00000000000000000000000000000000000000000000000000000000000000006001600160a01b0316638af2c0486040518163ffffffff1660e01b8152600401602060405180830381865afa158015612384573d6000803e3d6000fd5b505050506040513d601f19601f820116820180604052508101906123a89190614a03565b90506001600160a01b03811615611684576123c38184613230565b604080516001600160a01b0383168152602081018590527f11bed7b3116d18b20dd62d7f9cbdce33fb73f2094dca5af45df3508f7a964c8c910160405180910390a1505050505050565b336001600160a01b037f000000000000000000000000000000000000000000000000000000000000000016146124855760405162461bcd60e51b815260206004820152601160248201527f4e6f742070726f6a656374206f776e65720000000000000000000000000000006044820152606401610cdb565b6001600160a01b0381166124db5760405162461bcd60e51b815260206004820152600c60248201527f41646472657373205a65726f00000000000000000000000000000000000000006044820152606401610cdb565b600980546001600160a01b03909216610100027fffffffffffffffffffffff0000000000000000000000000000000000000000ff909216919091179055565b60006116967f00000000000000000000000000000000000000000000000000000000000000007f0000000000000000000000000000000000000000000000000000000000000000614ab0565b3360008181526003602090815260408083206001600160a01b0387168452909152812054909190838110156126035760405162461bcd60e51b815260206004820152602560248201527f45524332303a2064656372656173656420616c6c6f77616e63652062656c6f7760448201527f207a65726f0000000000000000000000000000000000000000000000000000006064820152608401610cdb565b61261082868684036132ed565b506001949350505050565b6000612628600b54151590565b6126745760405162461bcd60e51b815260206004820152601960248201527f5472616e736665727320617265206e6f7420656e61626c6564000000000000006044820152606401610cdb565b61267e8383613d47565b9392505050565b7f000000000000000000000000000000000000000000000000000000000000000042106126f45760405162461bcd60e51b815260206004820152601560248201527f526169736520706861736520636f6e636c7564656400000000000000000000006044820152606401610cdb565b60003411801561272b57506127297f000000000000000000000000000000000000000000000000000000000000000034614e4a565b155b6127775760405162461bcd60e51b815260206004820152601660248201527f496e76616c69642066756e64696e6720616d6f756e74000000000000000000006044820152606401610cdb565b61277f611c21565b3461278861169b565b6127929190614c77565b11156127e05760405162461bcd60e51b815260206004820152601560248201527f526169736520616d6f756e7420657863656564656400000000000000000000006044820152606401610cdb565b7f00000000000000000000000000000000000000000000000000000000000000006001600160a01b031663d0e30db0346040518263ffffffff1660e01b81526004016000604051808303818588803b15801561283b57600080fd5b505af115801561284f573d6000803e3d6000fd5b505050505061285e33346135dd565b612866611c21565b61286e61169b565b036128785743600b555b565b6000610c0e826001613994565b6000600b54116128d95760405162461bcd60e51b815260206004820152601360248201527f5261697365206e6f7420636f6d706c65746564000000000000000000000000006044820152606401610cdb565b60007f00000000000000000000000000000000000000000000000000000000000000006001600160a01b03166377fb67496040518163ffffffff1660e01b8152600401600060405180830381865afa158015612939573d6000803e3d6000fd5b505050506040513d6000823e601f3d908101601f191682016040526129619190810190614cc7565b90506000805b8251811015612a715782818151811061298257612982614c48565b60200260200101516001600160a01b031663b2af870a3087876040518463ffffffff1660e01b81526004016129b993929190614ead565b6020604051808303816000875af19250505080156129f4575060408051601f3d908101601f191682019092526129f1918101906149a4565b60015b612a51577fa75bdc620b7e57f38a54b46ec03bff2ac3569bfa5e23699a4038512716e2d2f9838281518110612a2b57612a2b614c48565b60200260200101518686604051612a4493929190614ead565b60405180910390a1612a5f565b612a5b8184614c77565b9250505b80612a6981614c8f565b915050612967565b506000612710612aa17f000000000000000000000000000000000000000000000000000000000000000084614ab0565b612aab9190614a9c565b90506000612ab982846149ec565b90508015612b2757600954612adc9061010090046001600160a01b031682613230565b600954604080516101009092046001600160a01b03168252602082018390527fc8672ede520b81478ac0faa333bca181b30a513fef4b0d68d7816798d98b522f910160405180910390a15b81156116845760007f00000000000000000000000000000000000000000000000000000000000000006001600160a01b0316638af2c0486040518163ffffffff1660e01b8152600401602060405180830381865afa158015612b8d573d6000803e3d6000fd5b505050506040513d601f19601f82011682018060405250810190612bb19190614a03565b9050612bbd8184613230565b604080516001600160a01b0383168152602081018590527fa4c6a382f73ff9613852e022f107d783974efe6f56975cafa30fcf48256f09359101611679565b6001600160a01b038216600090815260208190526040812061267e908390613994565b6060806000612c2c6137f5565b90506000816001600160a01b031663e7c830d46040518163ffffffff1660e01b8152600401602060405180830381865afa158015612c6e573d6000803e3d6000fd5b505050506040513d601f19601f82011682018060405250810190612c9291906149a4565b90506000826001600160a01b0316633e7ff8576040518163ffffffff1660e01b8152600401602060405180830381865afa158015612cd4573d6000803e3d6000fd5b505050506040513d601f19601f82011682018060405250810190612cf891906149a4565b90506000612d0682846149ec565b90508067ffffffffffffffff811115612d2157612d21614b25565b604051908082528060200260200182016040528015612d4a578160200160208202803683370190505b5095508067ffffffffffffffff811115612d6657612d66614b25565b604051908082528060200260200182016040528015612d8f578160200160208202803683370190505b5094506000825b84811015612e21576000818152600c6020526040812090612db8828c85613d55565b9150508015612e0c57828a8581518110612dd457612dd4614c48565b60200260200101818152505080898581518110612df357612df3614c48565b602090810291909101015283612e0881614c8f565b9450505b50508080612e1990614c8f565b915050612d96565b506000612e2e82846149ec565b90508015612e43578088510388528087510387525b505050505050915091565b83421115612e9e5760405162461bcd60e51b815260206004820152601d60248201527f45524332305065726d69743a206578706972656420646561646c696e650000006044820152606401610cdb565b60007f6e71edae12b1b97f4d1f60370fef10105fa2faae0126114a169c64845d6126c9888888612ecd8c613dba565b6040805160208101969096526001600160a01b0394851690860152929091166060840152608083015260a082015260c0810186905260e0016040516020818303038152906040528051906020012090506000612f2882613de2565b90506000612f3882878787613e4b565b9050896001600160a01b0316816001600160a01b031614612f9b5760405162461bcd60e51b815260206004820152601e60248201527f45524332305065726d69743a20696e76616c6964207369676e617475726500006044820152606401610cdb565b612fa68a8a8a6132ed565b50505050505050505050565b6001600160a01b0381166000908152602081905260408120610c0e904390613994565b6000612fdf61169b565b90506000612feb6137f5565b90506000816001600160a01b031663e7c830d46040518163ffffffff1660e01b8152600401602060405180830381865afa15801561302d573d6000803e3d6000fd5b505050506040513d601f19601f8201168201806040525081019061305191906149a4565b90506000826001600160a01b0316633e7ff8576040518163ffffffff1660e01b8152600401602060405180830381865afa158015613093573d6000803e3d6000fd5b505050506040513d601f19601f820116820180604052508101906130b791906149a4565b9050805b828110156130f3576000818152600c60205260409020600101546130df9086614c77565b9450806130eb81614c8f565b9150506130bb565b5060007f00000000000000000000000000000000000000000000000000000000000000006001600160a01b03166302aa63186040518163ffffffff1660e01b8152600401600060405180830381865afa158015613154573d6000803e3d6000fd5b505050506040513d6000823e601f3d908101601f1916820160405261317c9190810190614ba9565b805190915015613229576000613190613623565b915050804210156132275760006131a68361368d565b905060005b81811015613224576000818152600e60205260408120905b815481101561320f578181815481106131de576131de614c48565b9060005260206000209060030201600101548a6131fb9190614c77565b99508061320781614c8f565b9150506131c3565b5050808061321c90614c8f565b9150506131ab565b50505b505b5050505090565b604080516000808252602082019092526001600160a01b03841690839060405161325a9190614ed0565b60006040518083038185875af1925050503d8060008114613297576040519150601f19603f3d011682016040523d82523d6000602084013e61329c565b606091505b5050905080610b625760405162461bcd60e51b815260206004820152600e60248201527f5472616e73666572206572726f720000000000000000000000000000000000006044820152606401610cdb565b6001600160a01b0383166133685760405162461bcd60e51b8152602060048201526024808201527f45524332303a20617070726f76652066726f6d20746865207a65726f2061646460448201527f72657373000000000000000000000000000000000000000000000000000000006064820152608401610cdb565b6001600160a01b0382166133e45760405162461bcd60e51b815260206004820152602260248201527f45524332303a20617070726f766520746f20746865207a65726f20616464726560448201527f73730000000000000000000000000000000000000000000000000000000000006064820152608401610cdb565b6001600160a01b0383811660008181526003602090815260408083209487168084529482529182902085905590518481527f8c5be1e5ebec7d5bd14f71427d1e84f3dd0314c0f7b2291e5b200ac8c7c3b925910160405180910390a3505050565b6001600160a01b0382166134c15760405162461bcd60e51b815260206004820152602160248201527f45524332303a206275726e2066726f6d20746865207a65726f2061646472657360448201527f73000000000000000000000000000000000000000000000000000000000000006064820152608401610cdb565b6134cd82600083610b62565b6001600160a01b0382166000908152600260205260409020548181101561355c5760405162461bcd60e51b815260206004820152602260248201527f45524332303a206275726e20616d6f756e7420657863656564732062616c616e60448201527f63650000000000000000000000000000000000000000000000000000000000006064820152608401610cdb565b6001600160a01b038316600090815260026020526040812083830390556004805484929061358b9084906149ec565b90915550506040518281526000906001600160a01b038516907fddf252ad1be2c89b69c2b068fc378daa952ba7f163c4a11628f55a4df523b3ef9060200160405180910390a3610b6283600084610b62565b6001600160a01b03821660009081526020819052604090206135ff9082613e73565b610b64600182613e73565b600033613618858285613fc4565b612610858585614074565b6000806000600b5411613656577f0000000000000000000000000000000000000000000000000000000000000000613678565b7f00000000000000000000000000000000000000000000000000000000000000005b9150613687826276a700614c77565b90509091565b600080826001845161369f91906149ec565b815181106136af576136af614c48565b602002602001015190506000816001600160a01b031663ddd1b67e6040518163ffffffff1660e01b8152600401602060405180830381865afa1580156136f9573d6000803e3d6000fd5b505050506040513d601f19601f8201168201806040525081019061371d91906149a4565b90506024811161372d5780610e75565b6024949350505050565b6000806000856002015411801561377257506001600160a01b0384166000908152600f6020908152604080832086845290915290205460ff16155b156137ed5760005b85548110156137ca576137ac8587600001838154811061379c5761379c614c48565b9060005260206000200154612bfc565b6137b69084614c77565b9250806137c281614c8f565b91505061377a565b5084600201548286600101546137e09190614ab0565b6137ea9190614a9c565b90505b935093915050565b60007310000000000000000000000000000000000000036001600160a01b031663b39c68586040518163ffffffff1660e01b8152600401602060405180830381865afa158015613849573d6000803e3d6000fd5b505050506040513d601f19601f820116820180604052508101906116969190614a03565b6000306001600160a01b037f0000000000000000000000000000000000000000000000000000000000000000161480156138c657507f000000000000000000000000000000000000000000000000000000000000000046145b156138f057507f000000000000000000000000000000000000000000000000000000000000000090565b50604080517f00000000000000000000000000000000000000000000000000000000000000006020808301919091527f0000000000000000000000000000000000000000000000000000000000000000828401527f000000000000000000000000000000000000000000000000000000000000000060608301524660808301523060a0808401919091528351808403909101815260c0909201909252805191012090565b6000438311156139e65760405162461bcd60e51b815260206004820152601e60248201527f426c617a65537761703a20494e56414c49445f534e415053484f545f494400006044820152606401610cdb565b81546000036139f757506000610c0e565b438303613a375781548290613a0e906001906149ec565b81548110613a1e57613a1e614c48565b9060005260206000209060020201600101549050610c0e565b81546000905b80821015613aa65760006002613a538385614c77565b613a5d9190614a9c565b905085858281548110613a7257613a72614c48565b9060005260206000209060020201600001541115613a9257809150613aa0565b613a9d816001614c77565b92505b50613a3d565b8115613adf5783613ab86001846149ec565b81548110613ac857613ac8614c48565b906000526020600020906002020160010154613ae2565b60005b95945050505050565b6000818152600c602052604081208180613b06838887613d55565b90925090508015613bdc576001600160a01b0387166000908152600d60209081526040808320888452909152812080547fffffffffffffffffffffffffffffffffffffffffffffffffffffffffffffff0016600190811790915584018054839290613b729084906149ec565b9250508190555081836002016000828254613b8d91906149ec565b909155505060408051868152602081018390526001600160a01b0380891692908a16917f42b87e81d693bc481b9c8bc5cabcc873466053c71a3529a6d52aa6fc3352b7cb910160405180910390a35b9695505050505050565b6000818152600e60205260408120815b8154811015613ce1576000828281548110613c1357613c13614c48565b90600052602060002090600302019050600080613c31838a89613737565b90925090508015613ccb576001600160a01b0389166000908152600f602090815260408083208a8452909152812080547fffffffffffffffffffffffffffffffffffffffffffffffffffffffffffffff0016600190811790915584018054839290613c9d9084906149ec565b9250508190555081836002016000828254613cb891906149ec565b90915550613cc890508187614c77565b95505b5050508080613cd990614c8f565b915050613bf6565b508115613d3f57836001600160a01b0316856001600160a01b03167fd399c6e7fad358fc300beda3f056717c94a04c7233ce92683de6500ba509022e8585604051613d36929190918252602082015260400190565b60405180910390a35b509392505050565b600033610c08818585614074565b60008060008560020154118015613d9057506001600160a01b0384166000908152600d6020908152604080832086845290915290205460ff16155b156137ed57613da3848660000154612bfc565b915084600201548286600101546137e09190614ab0565b6001600160a01b03811660009081526007602052604090208054600181018255905b50919050565b6000610c0e613def61386d565b836040517f19010000000000000000000000000000000000000000000000000000000000006020820152602281018390526042810182905260009060620160405160208183030381529060405280519060200120905092915050565b6000806000613e5c8787878761429c565b91509150613e6981614389565b5095945050505050565b8154600003613eb757604080518082019091524381526020808201928352835460018082018655600095865291909420915160029094029091019283559051910155565b815443908390613ec9906001906149ec565b81548110613ed957613ed9614c48565b9060005260206000209060020201600001541015613f775781546000908390613f04906001906149ec565b81548110613f1457613f14614c48565b9060005260206000209060020201600101549050600060405180604001604052804381526020018484613f479190614eec565b9052845460018181018755600087815260209081902084516002909402019283559092015191015550610b649050565b81546000908390613f8a906001906149ec565b81548110613f9a57613f9a614c48565b90600052602060002090600202019050818160010154613fba9190614eec565b6001909101555050565b6001600160a01b038381166000908152600360209081526040808320938616835292905220547fffffffffffffffffffffffffffffffffffffffffffffffffffffffffffffffff811461406e57818110156140615760405162461bcd60e51b815260206004820152601d60248201527f45524332303a20696e73756666696369656e7420616c6c6f77616e63650000006044820152606401610cdb565b61406e84848484036132ed565b50505050565b6001600160a01b0383166140f05760405162461bcd60e51b815260206004820152602560248201527f45524332303a207472616e736665722066726f6d20746865207a65726f20616460448201527f64726573730000000000000000000000000000000000000000000000000000006064820152608401610cdb565b6001600160a01b03821661416c5760405162461bcd60e51b815260206004820152602360248201527f45524332303a207472616e7366657220746f20746865207a65726f206164647260448201527f65737300000000000000000000000000000000000000000000000000000000006064820152608401610cdb565b614177838383610b62565b6001600160a01b038316600090815260026020526040902054818110156142065760405162461bcd60e51b815260206004820152602660248201527f45524332303a207472616e7366657220616d6f756e742065786365656473206260448201527f616c616e636500000000000000000000000000000000000000000000000000006064820152608401610cdb565b6001600160a01b0380851660009081526002602052604080822085850390559185168152908120805484929061423d908490614c77565b92505081905550826001600160a01b0316846001600160a01b03167fddf252ad1be2c89b69c2b068fc378daa952ba7f163c4a11628f55a4df523b3ef8460405161428991815260200190565b60405180910390a361406e848484610b62565b6000807f7fffffffffffffffffffffffffffffff5d576e7357a4501ddfe92f46681b20a08311156142d35750600090506003614380565b8460ff16601b141580156142eb57508460ff16601c14155b156142fc5750600090506004614380565b6040805160008082526020820180845289905260ff881692820192909252606081018690526080810185905260019060a0016020604051602081039080840390855afa158015614350573d6000803e3d6000fd5b5050604051601f1901519150506001600160a01b03811661437957600060019250925050614380565b9150600090505b94509492505050565b600081600481111561439d5761439d614f60565b036143a55750565b60018160048111156143b9576143b9614f60565b036144065760405162461bcd60e51b815260206004820152601860248201527f45434453413a20696e76616c6964207369676e617475726500000000000000006044820152606401610cdb565b600281600481111561441a5761441a614f60565b036144675760405162461bcd60e51b815260206004820152601f60248201527f45434453413a20696e76616c6964207369676e6174757265206c656e677468006044820152606401610cdb565b600381600481111561447b5761447b614f60565b036144ee5760405162461bcd60e51b815260206004820152602260248201527f45434453413a20696e76616c6964207369676e6174757265202773272076616c60448201527f75650000000000000000000000000000000000000000000000000000000000006064820152608401610cdb565b600481600481111561450257614502614f60565b03610e0e5760405162461bcd60e51b815260206004820152602260248201527f45434453413a20696e76616c6964207369676e6174757265202776272076616c60448201527f75650000000000000000000000000000000000000000000000000000000000006064820152608401610cdb565b8280548282559060005260206000209081019282156145b0579160200282015b828111156145b0578251825591602001919060010190614595565b506145bc9291506145c0565b5090565b5b808211156145bc57600081556001016145c1565b60005b838110156145f05781810151838201526020016145d8565b8381111561406e5750506000910152565b60208152600082518060208401526146208160408501602087016145d5565b601f01601f19169190910160400192915050565b6001600160a01b0381168114610e0e57600080fd5b6000806040838503121561465c57600080fd5b823561466781614634565b946020939093013593505050565b60008060006060848603121561468a57600080fd5b833561469581614634565b925060208401356146a581614634565b929592945050506040919091013590565b6000602082840312156146c857600080fd5b813561267e81614634565b600081518084526020808501945080840160005b83811015614703578151875295820195908201906001016146e7565b509495945050505050565b60608152600061472160608301866146d3565b828103602084015261473381866146d3565b9150508215156040830152949350505050565b60008083601f84011261475857600080fd5b50813567ffffffffffffffff81111561477057600080fd5b6020830191508360208260051b850101111561478b57600080fd5b9250929050565b600080602083850312156147a557600080fd5b823567ffffffffffffffff8111156147bc57600080fd5b6147c885828601614746565b90969095509350505050565b600080600080604085870312156147ea57600080fd5b843567ffffffffffffffff8082111561480257600080fd5b61480e88838901614746565b9096509450602087013591508082111561482757600080fd5b5061483487828801614746565b95989497509550505050565b8015158114610e0e57600080fd5b6000806000806060858703121561486457600080fd5b843567ffffffffffffffff81111561487b57600080fd5b61488787828801614746565b909550935050602085013561489b81614634565b915060408501356148ab81614840565b939692955090935050565b6000602082840312156148c857600080fd5b5035919050565b6040815260006148e260408301856146d3565b8281036020840152613ae281856146d3565b600080600080600080600060e0888a03121561490f57600080fd5b873561491a81614634565b9650602088013561492a81614634565b95506040880135945060608801359350608088013560ff8116811461494e57600080fd5b9699959850939692959460a0840135945060c09093013592915050565b6000806040838503121561497e57600080fd5b823561498981614634565b9150602083013561499981614634565b809150509250929050565b6000602082840312156149b657600080fd5b5051919050565b7f4e487b7100000000000000000000000000000000000000000000000000000000600052601160045260246000fd5b6000828210156149fe576149fe6149bd565b500390565b600060208284031215614a1557600080fd5b815161267e81614634565b600181811c90821680614a3457607f821691505b602082108103613ddc577f4e487b7100000000000000000000000000000000000000000000000000000000600052602260045260246000fd5b7f4e487b7100000000000000000000000000000000000000000000000000000000600052601260045260246000fd5b600082614aab57614aab614a6d565b500490565b6000817fffffffffffffffffffffffffffffffffffffffffffffffffffffffffffffffff0483118215151615614ae857614ae86149bd565b500290565b60007f80000000000000000000000000000000000000000000000000000000000000008203614b1e57614b1e6149bd565b5060000390565b7f4e487b7100000000000000000000000000000000000000000000000000000000600052604160045260246000fd5b604051601f8201601f1916810167ffffffffffffffff81118282101715614b7d57614b7d614b25565b604052919050565b600067ffffffffffffffff821115614b9f57614b9f614b25565b5060051b60200190565b60006020808385031215614bbc57600080fd5b825167ffffffffffffffff811115614bd357600080fd5b8301601f81018513614be457600080fd5b8051614bf7614bf282614b85565b614b54565b81815260059190911b82018301908381019087831115614c1657600080fd5b928401925b82841015614c3d578351614c2e81614634565b82529284019290840190614c1b565b979650505050505050565b7f4e487b7100000000000000000000000000000000000000000000000000000000600052603260045260246000fd5b60008219821115614c8a57614c8a6149bd565b500190565b60007fffffffffffffffffffffffffffffffffffffffffffffffffffffffffffffffff8203614cc057614cc06149bd565b5060010190565b60006020808385031215614cda57600080fd5b825167ffffffffffffffff811115614cf157600080fd5b8301601f81018513614d0257600080fd5b8051614d10614bf282614b85565b81815260059190911b82018301908381019087831115614d2f57600080fd5b928401925b82841015614c3d578351614d4781614634565b82529284019290840190614d34565b600060208284031215614d6857600080fd5b815161267e81614840565b6001600160a01b0383168152604060208201526000610e7560408301846146d3565b7f4e487b7100000000000000000000000000000000000000000000000000000000600052600160045260246000fd5b60006020808385031215614dd757600080fd5b825167ffffffffffffffff811115614dee57600080fd5b8301601f81018513614dff57600080fd5b8051614e0d614bf282614b85565b81815260059190911b82018301908381019087831115614e2c57600080fd5b928401925b82841015614c3d57835182529284019290840190614e31565b600082614e5957614e59614a6d565b500690565b81835260007f07ffffffffffffffffffffffffffffffffffffffffffffffffffffffffffffff831115614e9057600080fd5b8260051b8083602087013760009401602001938452509192915050565b6001600160a01b0384168152604060208201526000613ae2604083018486614e5e565b60008251614ee28184602087016145d5565b9190910192915050565b6000808212827f7fffffffffffffffffffffffffffffffffffffffffffffffffffffffffffffff03841381151615614f2657614f266149bd565b827f8000000000000000000000000000000000000000000000000000000000000000038412811615614f5a57614f5a6149bd565b50500190565b7f4e487b7100000000000000000000000000000000000000000000000000000000600052602160045260246000fdfea164736f6c634300080f000a",
  "linkReferences": {},
  "deployedLinkReferences": {}
}