{
  "_format": "hh-sol-artifact-1",
  "contractName": "IOU2ERC20",
  "sourceName": "contracts/IOU2ERC20.sol",
  "abi": [
    {
      "anonymous": false,
      "inputs": [
        {
          "indexed": true,
          "internalType": "address",
          "name": "previousOwner",
          "type": "address"
        },
        {
          "indexed": true,
          "internalType": "address",
          "name": "newOwner",
          "type": "address"
        }
      ],
      "name": "OwnershipTransferred",
      "type": "event"
    },
    {
      "inputs": [
        {
          "internalType": "uint256",
          "name": "amount",
          "type": "uint256"
        }
      ],
      "name": "claimProjectTokens",
      "outputs": [],
      "stateMutability": "nonpayable",
      "type": "function"
    },
    {
      "inputs": [
        {
          "internalType": "uint256",
          "name": "amount",
          "type": "uint256"
        },
        {
          "internalType": "uint256",
          "name": "deadline",
          "type": "uint256"
        },
        {
          "internalType": "uint8",
          "name": "v",
          "type": "uint8"
        },
        {
          "internalType": "bytes32",
          "name": "r",
          "type": "bytes32"
        },
        {
          "internalType": "bytes32",
          "name": "s",
          "type": "bytes32"
        }
      ],
      "name": "claimProjectTokensWithPermit",
      "outputs": [],
      "stateMutability": "nonpayable",
      "type": "function"
    },
    {
      "inputs": [
        {
          "internalType": "address",
          "name": "_iouToken",
          "type": "address"
        },
        {
          "internalType": "address",
          "name": "_projectToken",
          "type": "address"
        }
      ],
      "name": "initialize",
      "outputs": [],
      "stateMutability": "nonpayable",
      "type": "function"
    },
    {
      "inputs": [],
      "name": "iouToken",
      "outputs": [
        {
          "internalType": "address",
          "name": "",
          "type": "address"
        }
      ],
      "stateMutability": "view",
      "type": "function"
    },
    {
      "inputs": [],
      "name": "owner",
      "outputs": [
        {
          "internalType": "address",
          "name": "",
          "type": "address"
        }
      ],
      "stateMutability": "view",
      "type": "function"
    },
    {
      "inputs": [],
      "name": "projectToken",
      "outputs": [
        {
          "internalType": "address",
          "name": "",
          "type": "address"
        }
      ],
      "stateMutability": "view",
      "type": "function"
    },
    {
      "inputs": [],
      "name": "renounceOwnership",
      "outputs": [],
      "stateMutability": "nonpayable",
      "type": "function"
    },
    {
      "inputs": [
        {
          "internalType": "address",
          "name": "newOwner",
          "type": "address"
        }
      ],
      "name": "transferOwnership",
      "outputs": [],
      "stateMutability": "nonpayable",
      "type": "function"
    }
  ],
  "bytecode": "0x608060405234801561001057600080fd5b5061001a3361001f565b61006f565b600080546001600160a01b038381166001600160a01b0319831681178455604051919092169283917f8be0079c531659141344cd1fd0a4f28419497f9722a3daafe3b4186f6b6457e09190a35050565b610c5d8061007e6000396000f3fe608060405234801561001057600080fd5b50600436106100885760003560e01c80638da5cb5b1161005b5780638da5cb5b146101065780638e34b19414610124578063a3b9f2e614610144578063f2fde38b1461015757600080fd5b8063485cc9551461008d5780634b60ce77146100a257806360ae7c3b146100eb578063715018a6146100fe575b600080fd5b6100a061009b366004610b1d565b61016a565b005b6002546100c29073ffffffffffffffffffffffffffffffffffffffff1681565b60405173ffffffffffffffffffffffffffffffffffffffff909116815260200160405180910390f35b6100a06100f9366004610b50565b6104d9565b6100a0610525565b60005473ffffffffffffffffffffffffffffffffffffffff166100c2565b6001546100c29073ffffffffffffffffffffffffffffffffffffffff1681565b6100a0610152366004610b69565b6105b2565b6100a0610165366004610bb8565b610670565b60005473ffffffffffffffffffffffffffffffffffffffff1633146101f0576040517f08c379a000000000000000000000000000000000000000000000000000000000815260206004820181905260248201527f4f776e61626c653a2063616c6c6572206973206e6f7420746865206f776e657260448201526064015b60405180910390fd5b60015473ffffffffffffffffffffffffffffffffffffffff1615610270576040517f08c379a000000000000000000000000000000000000000000000000000000000815260206004820152601360248201527f416c726561647920696e697469616c697a65640000000000000000000000000060448201526064016101e7565b73ffffffffffffffffffffffffffffffffffffffff8216158015906102aa575073ffffffffffffffffffffffffffffffffffffffff811615155b610310576040517f08c379a000000000000000000000000000000000000000000000000000000000815260206004820152600c60248201527f41646472657373205a65726f000000000000000000000000000000000000000060448201526064016101e7565b6001805473ffffffffffffffffffffffffffffffffffffffff8085167fffffffffffffffffffffffff000000000000000000000000000000000000000092831681179093556002805491851691909216179055604080517fa3220d5a000000000000000000000000000000000000000000000000000000008152905163a3220d5a916004808201926020929091908290030181865afa1580156103b7573d6000803e3d6000fd5b505050506040513d601f19601f820116820180604052508101906103db9190610bda565b6002546040517f70a0823100000000000000000000000000000000000000000000000000000000815230600482015273ffffffffffffffffffffffffffffffffffffffff909116906370a0823190602401602060405180830381865afa158015610449573d6000803e3d6000fd5b505050506040513d601f19601f8201168201806040525081019061046d9190610bda565b10156104d5576040517f08c379a000000000000000000000000000000000000000000000000000000000815260206004820152601160248201527f4e6f7420656e6f75676820746f6b656e7300000000000000000000000000000060448201526064016101e7565b5050565b6001546104fe9073ffffffffffffffffffffffffffffffffffffffff1633308461079d565b6002546105229073ffffffffffffffffffffffffffffffffffffffff163383610916565b50565b60005473ffffffffffffffffffffffffffffffffffffffff1633146105a6576040517f08c379a000000000000000000000000000000000000000000000000000000000815260206004820181905260248201527f4f776e61626c653a2063616c6c6572206973206e6f7420746865206f776e657260448201526064016101e7565b6105b06000610a7f565b565b6001546040517fd505accf000000000000000000000000000000000000000000000000000000008152336004820152306024820152604481018790526064810186905260ff8516608482015260a4810184905260c4810183905273ffffffffffffffffffffffffffffffffffffffff9091169063d505accf9060e401600060405180830381600087803b15801561064857600080fd5b505af115801561065c573d6000803e3d6000fd5b50505050610669856104d9565b5050505050565b60005473ffffffffffffffffffffffffffffffffffffffff1633146106f1576040517f08c379a000000000000000000000000000000000000000000000000000000000815260206004820181905260248201527f4f776e61626c653a2063616c6c6572206973206e6f7420746865206f776e657260448201526064016101e7565b73ffffffffffffffffffffffffffffffffffffffff8116610794576040517f08c379a000000000000000000000000000000000000000000000000000000000815260206004820152602660248201527f4f776e61626c653a206e6577206f776e657220697320746865207a65726f206160448201527f646472657373000000000000000000000000000000000000000000000000000060648201526084016101e7565b61052281610a7f565b6040805173ffffffffffffffffffffffffffffffffffffffff85811660248301528481166044830152606480830185905283518084039091018152608490920183526020820180517bffffffffffffffffffffffffffffffffffffffffffffffffffffffff167f23b872dd00000000000000000000000000000000000000000000000000000000179052915160009283929088169161083c9190610bf3565b6000604051808303816000865af19150503d8060008114610879576040519150601f19603f3d011682016040523d82523d6000602084013e61087e565b606091505b50915091508180156108a85750805115806108a85750808060200190518101906108a89190610c2e565b61090e576040517f08c379a000000000000000000000000000000000000000000000000000000000815260206004820152601360248201527f494f55207472616e73666572206661696c65640000000000000000000000000060448201526064016101e7565b505050505050565b6040805173ffffffffffffffffffffffffffffffffffffffff8481166024830152604480830185905283518084039091018152606490920183526020820180517bffffffffffffffffffffffffffffffffffffffffffffffffffffffff167fa9059cbb0000000000000000000000000000000000000000000000000000000017905291516000928392908716916109ad9190610bf3565b6000604051808303816000865af19150503d80600081146109ea576040519150601f19603f3d011682016040523d82523d6000602084013e6109ef565b606091505b5091509150818015610a19575080511580610a19575080806020019051810190610a199190610c2e565b610669576040517f08c379a000000000000000000000000000000000000000000000000000000000815260206004820152601560248201527f546f6b656e207472616e73666572206661696c6564000000000000000000000060448201526064016101e7565b6000805473ffffffffffffffffffffffffffffffffffffffff8381167fffffffffffffffffffffffff0000000000000000000000000000000000000000831681178455604051919092169283917f8be0079c531659141344cd1fd0a4f28419497f9722a3daafe3b4186f6b6457e09190a35050565b803573ffffffffffffffffffffffffffffffffffffffff81168114610b1857600080fd5b919050565b60008060408385031215610b3057600080fd5b610b3983610af4565b9150610b4760208401610af4565b90509250929050565b600060208284031215610b6257600080fd5b5035919050565b600080600080600060a08688031215610b8157600080fd5b8535945060208601359350604086013560ff81168114610ba057600080fd5b94979396509394606081013594506080013592915050565b600060208284031215610bca57600080fd5b610bd382610af4565b9392505050565b600060208284031215610bec57600080fd5b5051919050565b6000825160005b81811015610c145760208186018101518583015201610bfa565b81811115610c23576000828501525b509190910192915050565b600060208284031215610c4057600080fd5b81518015158114610bd357600080fdfea164736f6c634300080f000a",
  "linkReferences": {},
  "deployedLinkReferences": {}
}