{
  "_format": "hh-sol-artifact-1",
  "contractName": "WNAT",
  "sourceName": "contracts/test/WNAT.sol",
  "abi": [
    {
      "anonymous": false,
      "inputs": [
        {
          "indexed": true,
          "internalType": "address",
          "name": "owner",
          "type": "address"
        },
        {
          "indexed": true,
          "internalType": "address",
          "name": "spender",
          "type": "address"
        },
        {
          "indexed": false,
          "internalType": "uint256",
          "name": "value",
          "type": "uint256"
        }
      ],
      "name": "Approval",
      "type": "event"
    },
    {
      "anonymous": false,
      "inputs": [
        {
          "indexed": true,
          "internalType": "address",
          "name": "dst",
          "type": "address"
        },
        {
          "indexed": false,
          "internalType": "uint256",
          "name": "amount",
          "type": "uint256"
        }
      ],
      "name": "Deposit",
      "type": "event"
    },
    {
      "anonymous": false,
      "inputs": [
        {
          "indexed": true,
          "internalType": "address",
          "name": "from",
          "type": "address"
        },
        {
          "indexed": true,
          "internalType": "address",
          "name": "to",
          "type": "address"
        },
        {
          "indexed": false,
          "internalType": "uint256",
          "name": "value",
          "type": "uint256"
        }
      ],
      "name": "Transfer",
      "type": "event"
    },
    {
      "anonymous": false,
      "inputs": [
        {
          "indexed": true,
          "internalType": "address",
          "name": "src",
          "type": "address"
        },
        {
          "indexed": false,
          "internalType": "uint256",
          "name": "amount",
          "type": "uint256"
        }
      ],
      "name": "Withdrawal",
      "type": "event"
    },
    {
      "inputs": [
        {
          "internalType": "address",
          "name": "",
          "type": "address"
        },
        {
          "internalType": "address",
          "name": "",
          "type": "address"
        }
      ],
      "name": "allowance",
      "outputs": [
        {
          "internalType": "uint256",
          "name": "",
          "type": "uint256"
        }
      ],
      "stateMutability": "view",
      "type": "function"
    },
    {
      "inputs": [
        {
          "internalType": "address",
          "name": "guy",
          "type": "address"
        },
        {
          "internalType": "uint256",
          "name": "wad",
          "type": "uint256"
        }
      ],
      "name": "approve",
      "outputs": [
        {
          "internalType": "bool",
          "name": "",
          "type": "bool"
        }
      ],
      "stateMutability": "nonpayable",
      "type": "function"
    },
    {
      "inputs": [
        {
          "internalType": "address",
          "name": "",
          "type": "address"
        }
      ],
      "name": "balanceOf",
      "outputs": [
        {
          "internalType": "uint256",
          "name": "",
          "type": "uint256"
        }
      ],
      "stateMutability": "view",
      "type": "function"
    },
    {
      "inputs": [
        {
          "internalType": "address",
          "name": "account",
          "type": "address"
        },
        {
          "internalType": "uint256",
          "name": "snapshotId",
          "type": "uint256"
        }
      ],
      "name": "balanceOfAt",
      "outputs": [
        {
          "internalType": "uint256",
          "name": "",
          "type": "uint256"
        }
      ],
      "stateMutability": "view",
      "type": "function"
    },
    {
      "inputs": [],
      "name": "decimals",
      "outputs": [
        {
          "internalType": "uint8",
          "name": "",
          "type": "uint8"
        }
      ],
      "stateMutability": "view",
      "type": "function"
    },
    {
      "inputs": [
        {
          "internalType": "address",
          "name": "to",
          "type": "address"
        },
        {
          "internalType": "uint256",
          "name": "bips",
          "type": "uint256"
        }
      ],
      "name": "delegate",
      "outputs": [],
      "stateMutability": "nonpayable",
      "type": "function"
    },
    {
      "inputs": [
        {
          "internalType": "address",
          "name": "",
          "type": "address"
        }
      ],
      "name": "delegatedBips",
      "outputs": [
        {
          "internalType": "uint256",
          "name": "",
          "type": "uint256"
        }
      ],
      "stateMutability": "view",
      "type": "function"
    },
    {
      "inputs": [
        {
          "internalType": "address",
          "name": "_owner",
          "type": "address"
        }
      ],
      "name": "delegatesOf",
      "outputs": [
        {
          "internalType": "address[]",
          "name": "_delegateAddresses",
          "type": "address[]"
        },
        {
          "internalType": "uint256[]",
          "name": "_bips",
          "type": "uint256[]"
        },
        {
          "internalType": "uint256",
          "name": "_count",
          "type": "uint256"
        },
        {
          "internalType": "uint256",
          "name": "_delegationMode",
          "type": "uint256"
        }
      ],
      "stateMutability": "view",
      "type": "function"
    },
    {
      "inputs": [
        {
          "internalType": "address",
          "name": "",
          "type": "address"
        },
        {
          "internalType": "uint256",
          "name": "",
          "type": "uint256"
        }
      ],
      "name": "delegation",
      "outputs": [
        {
          "internalType": "address",
          "name": "provider",
          "type": "address"
        },
        {
          "internalType": "uint256",
          "name": "bips",
          "type": "uint256"
        }
      ],
      "stateMutability": "view",
      "type": "function"
    },
    {
      "inputs": [],
      "name": "deposit",
      "outputs": [],
      "stateMutability": "payable",
      "type": "function"
    },
    {
      "inputs": [
        {
          "internalType": "address",
          "name": "recipient",
          "type": "address"
        }
      ],
      "name": "depositTo",
      "outputs": [],
      "stateMutability": "payable",
      "type": "function"
    },
    {
      "inputs": [],
      "name": "name",
      "outputs": [
        {
          "internalType": "string",
          "name": "",
          "type": "string"
        }
      ],
      "stateMutability": "view",
      "type": "function"
    },
    {
      "inputs": [],
      "name": "symbol",
      "outputs": [
        {
          "internalType": "string",
          "name": "",
          "type": "string"
        }
      ],
      "stateMutability": "view",
      "type": "function"
    },
    {
      "inputs": [],
      "name": "totalSupply",
      "outputs": [
        {
          "internalType": "uint256",
          "name": "",
          "type": "uint256"
        }
      ],
      "stateMutability": "view",
      "type": "function"
    },
    {
      "inputs": [
        {
          "internalType": "uint256",
          "name": "snapshotId",
          "type": "uint256"
        }
      ],
      "name": "totalSupplyAt",
      "outputs": [
        {
          "internalType": "uint256",
          "name": "",
          "type": "uint256"
        }
      ],
      "stateMutability": "view",
      "type": "function"
    },
    {
      "inputs": [
        {
          "internalType": "address",
          "name": "dst",
          "type": "address"
        },
        {
          "internalType": "uint256",
          "name": "wad",
          "type": "uint256"
        }
      ],
      "name": "transfer",
      "outputs": [
        {
          "internalType": "bool",
          "name": "",
          "type": "bool"
        }
      ],
      "stateMutability": "nonpayable",
      "type": "function"
    },
    {
      "inputs": [
        {
          "internalType": "address",
          "name": "src",
          "type": "address"
        },
        {
          "internalType": "address",
          "name": "dst",
          "type": "address"
        },
        {
          "internalType": "uint256",
          "name": "wad",
          "type": "uint256"
        }
      ],
      "name": "transferFrom",
      "outputs": [
        {
          "internalType": "bool",
          "name": "",
          "type": "bool"
        }
      ],
      "stateMutability": "nonpayable",
      "type": "function"
    },
    {
      "inputs": [],
      "name": "undelegateAll",
      "outputs": [],
      "stateMutability": "nonpayable",
      "type": "function"
    },
    {
      "inputs": [
        {
          "internalType": "uint256",
          "name": "wad",
          "type": "uint256"
        }
      ],
      "name": "withdraw",
      "outputs": [],
      "stateMutability": "nonpayable",
      "type": "function"
    },
    {
      "inputs": [
        {
          "internalType": "address",
          "name": "src",
          "type": "address"
        },
        {
          "internalType": "uint256",
          "name": "wad",
          "type": "uint256"
        }
      ],
      "name": "withdrawFrom",
      "outputs": [],
      "stateMutability": "nonpayable",
      "type": "function"
    }
  ],
  "bytecode": "0x60c0604052601760809081527f57726170706564204e61746976652043757272656e637900000000000000000060a0526000906200003e908262000130565b5060408051808201909152600481526315d3905560e21b602082015260019062000069908262000130565b506002805460ff191660121790553480156200008457600080fd5b50620001fc565b634e487b7160e01b600052604160045260246000fd5b600181811c90821680620000b657607f821691505b602082108103620000d757634e487b7160e01b600052602260045260246000fd5b50919050565b601f8211156200012b57600081815260208120601f850160051c81016020861015620001065750805b601f850160051c820191505b81811015620001275782815560010162000112565b5050505b505050565b81516001600160401b038111156200014c576200014c6200008b565b62000164816200015d8454620000a1565b84620000dd565b602080601f8311600181146200019c5760008415620001835750858301515b600019600386901b1c1916600185901b17855562000127565b600085815260208120601f198616915b82811015620001cd57888601518255948401946001909101908401620001ac565b5085821015620001ec5787850151600019600388901b60f8161c191681555b5050505050600190811b01905550565b611704806200020c6000396000f3fe60806040526004361061015f5760003560e01c80637de5b8ed116100c0578063b302f39311610074578063d0e30db011610059578063d0e30db0146103d0578063d1a113f0146103d8578063dd62ed3e1461040557600080fd5b8063b302f393146103a8578063b760faf9146103bd57600080fd5b806395d89b41116100a557806395d89b4114610353578063981b24d014610368578063a9059cbb1461038857600080fd5b80637de5b8ed146103035780639470b0bd1461033357600080fd5b80632e1a7d4d116101175780634ee2cd7e116100fc5780634ee2cd7e1461026a5780636649764b1461028a57806370a08231146102d657600080fd5b80632e1a7d4d1461021e578063313ce5671461023e57600080fd5b8063095ea7b311610148578063095ea7b3146101b157806318160ddd146101e157806323b872dd146101fe57600080fd5b8063026e402b1461016457806306fdde0314610186575b600080fd5b34801561017057600080fd5b5061018461017f36600461139a565b61043d565b005b34801561019257600080fd5b5061019b610704565b6040516101a891906113c4565b60405180910390f35b3480156101bd57600080fd5b506101d16101cc36600461139a565b610792565b60405190151581526020016101a8565b3480156101ed57600080fd5b50475b6040519081526020016101a8565b34801561020a57600080fd5b506101d1610219366004611437565b61080b565b34801561022a57600080fd5b50610184610239366004611473565b610a9a565b34801561024a57600080fd5b506002546102589060ff1681565b60405160ff90911681526020016101a8565b34801561027657600080fd5b506101f061028536600461139a565b610aa7565b34801561029657600080fd5b506102aa6102a536600461139a565b610b1a565b6040805173ffffffffffffffffffffffffffffffffffffffff90931683526020830191909152016101a8565b3480156102e257600080fd5b506101f06102f136600461148c565b60036020526000908152604090205481565b34801561030f57600080fd5b5061032361031e36600461148c565b610b6d565b6040516101a894939291906114a7565b34801561033f57600080fd5b5061018461034e36600461139a565b610d27565b34801561035f57600080fd5b5061019b610f8c565b34801561037457600080fd5b506101f0610383366004611473565b610f99565b34801561039457600080fd5b506101d16103a336600461139a565b610fc2565b3480156103b457600080fd5b50610184610fd6565b6101846103cb36600461148c565b611000565b610184611093565b3480156103e457600080fd5b506101f06103f336600461148c565b60066020526000908152604090205481565b34801561041157600080fd5b506101f0610420366004611542565b600460209081526000928352604080842090915290825290205481565b73ffffffffffffffffffffffffffffffffffffffff82166104bf576040517f08c379a000000000000000000000000000000000000000000000000000000000815260206004820152600c60248201527f414444524553535f5a45524f000000000000000000000000000000000000000060448201526064015b60405180910390fd5b80600003610529576040517f08c379a000000000000000000000000000000000000000000000000000000000815260206004820152600960248201527f424950535f5a45524f000000000000000000000000000000000000000000000060448201526064016104b6565b3360009081526005602052604081209080805b835481101561060a578573ffffffffffffffffffffffffffffffffffffffff1684828154811061056e5761056e611575565b600091825260209091206002909102015473ffffffffffffffffffffffffffffffffffffffff16036105c757848482815481106105ad576105ad611575565b906000526020600020906002020160010181905550600191505b8381815481106105d9576105d9611575565b906000526020600020906002020160010154836105f691906115d3565b925080610602816115eb565b91505061053c565b508061068f576040805180820190915273ffffffffffffffffffffffffffffffffffffffff868116825260208083018781528654600180820189556000898152939093209451600290910290940180547fffffffffffffffffffffffff0000000000000000000000000000000000000000169490931693909317825591519101558391505b6127108211156106fd576040517f08c379a00000000000000000000000000000000000000000000000000000000081526004016104b69060208082526004908201527f3130302500000000000000000000000000000000000000000000000000000000604082015260600190565b5050505050565b6000805461071190611623565b80601f016020809104026020016040519081016040528092919081815260200182805461073d90611623565b801561078a5780601f1061075f5761010080835404028352916020019161078a565b820191906000526020600020905b81548152906001019060200180831161076d57829003601f168201915b505050505081565b33600081815260046020908152604080832073ffffffffffffffffffffffffffffffffffffffff8716808552925280832085905551919290917f8c5be1e5ebec7d5bd14f71427d1e84f3dd0314c0f7b2291e5b200ac8c7c3b925906107fa9086815260200190565b60405180910390a350600192915050565b73ffffffffffffffffffffffffffffffffffffffff8316600090815260036020526040812054821115610874576040517f08c379a000000000000000000000000000000000000000000000000000000000815260206004820152600060248201526044016104b6565b61087e848461109e565b73ffffffffffffffffffffffffffffffffffffffff841633148015906108f4575073ffffffffffffffffffffffffffffffffffffffff841660009081526004602090815260408083203384529091529020547fffffffffffffffffffffffffffffffffffffffffffffffffffffffffffffffff14155b156109b35773ffffffffffffffffffffffffffffffffffffffff8416600090815260046020908152604080832033845290915290205482111561096d576040517f08c379a000000000000000000000000000000000000000000000000000000000815260206004820152600060248201526044016104b6565b73ffffffffffffffffffffffffffffffffffffffff84166000908152600460209081526040808320338452909152812080548492906109ad908490611676565b90915550505b73ffffffffffffffffffffffffffffffffffffffff8416600090815260036020526040812080548492906109e8908490611676565b909155505073ffffffffffffffffffffffffffffffffffffffff831660009081526003602052604081208054849290610a229084906115d3565b925050819055508273ffffffffffffffffffffffffffffffffffffffff168473ffffffffffffffffffffffffffffffffffffffff167fddf252ad1be2c89b69c2b068fc378daa952ba7f163c4a11628f55a4df523b3ef84604051610a8891815260200190565b60405180910390a35060019392505050565b610aa43382610d27565b50565b73ffffffffffffffffffffffffffffffffffffffff8216600090815260076020526040812081908190610adb908590611104565b9150915081610b0f5773ffffffffffffffffffffffffffffffffffffffff8516600090815260036020526040902054610b11565b805b95945050505050565b60056020528160005260406000208181548110610b3657600080fd5b60009182526020909120600290910201805460019091015473ffffffffffffffffffffffffffffffffffffffff9091169250905082565b73ffffffffffffffffffffffffffffffffffffffff8116600090815260056020526040812080546060928392909182919015610d1f5780549250600191508267ffffffffffffffff811115610bc457610bc461168d565b604051908082528060200260200182016040528015610bed578160200160208202803683370190505b5094508267ffffffffffffffff811115610c0957610c0961168d565b604051908082528060200260200182016040528015610c32578160200160208202803683370190505b50935060005b83811015610d1d57818181548110610c5257610c52611575565b6000918252602090912060029091020154865173ffffffffffffffffffffffffffffffffffffffff90911690879083908110610c9057610c90611575565b602002602001019073ffffffffffffffffffffffffffffffffffffffff16908173ffffffffffffffffffffffffffffffffffffffff1681525050818181548110610cdc57610cdc611575565b906000526020600020906002020160010154858281518110610d0057610d00611575565b602090810291909101015280610d15816115eb565b915050610c38565b505b509193509193565b73ffffffffffffffffffffffffffffffffffffffff8216600090815260036020526040902054811115610d90576040517f08c379a000000000000000000000000000000000000000000000000000000000815260206004820152600060248201526044016104b6565b610d9b82600061109e565b73ffffffffffffffffffffffffffffffffffffffff82163314801590610e11575073ffffffffffffffffffffffffffffffffffffffff821660009081526004602090815260408083203384529091529020547fffffffffffffffffffffffffffffffffffffffffffffffffffffffffffffffff14155b15610ed05773ffffffffffffffffffffffffffffffffffffffff82166000908152600460209081526040808320338452909152902054811115610e8a576040517f08c379a000000000000000000000000000000000000000000000000000000000815260206004820152600060248201526044016104b6565b73ffffffffffffffffffffffffffffffffffffffff8216600090815260046020908152604080832033845290915281208054839290610eca908490611676565b90915550505b73ffffffffffffffffffffffffffffffffffffffff821660009081526003602052604081208054839290610f05908490611676565b9091555050604051339082156108fc029083906000818181858888f19350505050158015610f37573d6000803e3d6000fd5b508173ffffffffffffffffffffffffffffffffffffffff167f7fcf532c15f0a6db0bd6d0e038bea71d30d808c7d98cb3bf7268a95bf5081b6582604051610f8091815260200190565b60405180910390a25050565b6001805461071190611623565b6000806000610fa9846008611104565b9150915081610fb85747610fba565b805b949350505050565b6000610fcf33848461080b565b9392505050565b336000908152600560205260408120610fee91611313565b33600090815260066020526040812055565b61100b60008261109e565b73ffffffffffffffffffffffffffffffffffffffff8116600090815260036020526040812080543492906110409084906115d3565b909155505060405134815273ffffffffffffffffffffffffffffffffffffffff8216907fe1fffcc4923d04b559f4d29a8bfc6cda04eb5b0d3c460751c2402c5c5cc9109c9060200160405180910390a250565b61109c33611000565b565b73ffffffffffffffffffffffffffffffffffffffff82166110ce576110c281611245565b6110ca611280565b5050565b73ffffffffffffffffffffffffffffffffffffffff81166110f2576110c282611245565b6110fb82611245565b6110ca81611245565b6000806000841180156111175750438411155b61117d576040517f08c379a000000000000000000000000000000000000000000000000000000000815260206004820152601e60248201527f426c617a65537761703a20494e56414c49445f534e415053484f545f4944000060448201526064016104b6565b82546000036111915750600090508061123e565b82546000905b8082101561120057600060026111ad83856115d3565b6111b791906116bc565b9050868682815481106111cc576111cc611575565b90600052602060002090600202016000015411156111ec578091506111fa565b6111f78160016115d3565b92505b50611197565b8454821061121057600080611237565b600185838154811061122457611224611575565b9060005260206000209060020201600101545b9350935050505b9250929050565b73ffffffffffffffffffffffffffffffffffffffff81166000908152600760209081526040808320600390925290912054610aa49190611287565b61109c6008475b8154600090156112c857825483906112a190600190611676565b815481106112b1576112b1611575565b9060005260206000209060020201600001546112cb565b60005b90504381101561130e5760408051808201909152438152602080820184815285546001818101885560008881529390932093516002909102909301928355519101555b505050565b5080546000825560020290600052602060002090810190610aa491905b8082111561136d5780547fffffffffffffffffffffffff000000000000000000000000000000000000000016815560006001820155600201611330565b5090565b803573ffffffffffffffffffffffffffffffffffffffff8116811461139557600080fd5b919050565b600080604083850312156113ad57600080fd5b6113b683611371565b946020939093013593505050565b600060208083528351808285015260005b818110156113f1578581018301518582016040015282016113d5565b81811115611403576000604083870101525b50601f017fffffffffffffffffffffffffffffffffffffffffffffffffffffffffffffffe016929092016040019392505050565b60008060006060848603121561144c57600080fd5b61145584611371565b925061146360208501611371565b9150604084013590509250925092565b60006020828403121561148557600080fd5b5035919050565b60006020828403121561149e57600080fd5b610fcf82611371565b6080808252855190820181905260009060209060a0840190828901845b828110156114f657815173ffffffffffffffffffffffffffffffffffffffff16845292840192908401906001016114c4565b5050508381038285015286518082528783019183019060005b8181101561152b5783518352928401929184019160010161150f565b505060408501969096525050506060015292915050565b6000806040838503121561155557600080fd5b61155e83611371565b915061156c60208401611371565b90509250929050565b7f4e487b7100000000000000000000000000000000000000000000000000000000600052603260045260246000fd5b7f4e487b7100000000000000000000000000000000000000000000000000000000600052601160045260246000fd5b600082198211156115e6576115e66115a4565b500190565b60007fffffffffffffffffffffffffffffffffffffffffffffffffffffffffffffffff820361161c5761161c6115a4565b5060010190565b600181811c9082168061163757607f821691505b602082108103611670577f4e487b7100000000000000000000000000000000000000000000000000000000600052602260045260246000fd5b50919050565b600082821015611688576116886115a4565b500390565b7f4e487b7100000000000000000000000000000000000000000000000000000000600052604160045260246000fd5b6000826116f2577f4e487b7100000000000000000000000000000000000000000000000000000000600052601260045260246000fd5b50049056fea164736f6c634300080f000a",
  "linkReferences": {},
  "deployedLinkReferences": {}
}