{
  "_format": "hh-sol-artifact-1",
  "contractName": "DistributionToDelegators",
  "sourceName": "contracts/test/DistributionToDelegators.sol",
  "abi": [
    {
      "inputs": [
        {
          "internalType": "address",
          "name": "_wNat",
          "type": "address"
        }
      ],
      "stateMutability": "nonpayable",
      "type": "constructor"
    },
    {
      "inputs": [
        {
          "internalType": "address",
          "name": "_beneficiary",
          "type": "address"
        },
        {
          "internalType": "uint256",
          "name": "_month",
          "type": "uint256"
        },
        {
          "internalType": "uint256",
          "name": "_amount",
          "type": "uint256"
        }
      ],
      "name": "addAirdrop",
      "outputs": [],
      "stateMutability": "payable",
      "type": "function"
    },
    {
      "inputs": [
        {
          "internalType": "address payable",
          "name": "_recipient",
          "type": "address"
        },
        {
          "internalType": "uint256",
          "name": "_month",
          "type": "uint256"
        }
      ],
      "name": "claim",
      "outputs": [
        {
          "internalType": "uint256",
          "name": "_amountWei",
          "type": "uint256"
        }
      ],
      "stateMutability": "nonpayable",
      "type": "function"
    },
    {
      "inputs": [],
      "name": "getCurrentMonth",
      "outputs": [
        {
          "internalType": "uint256",
          "name": "",
          "type": "uint256"
        }
      ],
      "stateMutability": "view",
      "type": "function"
    },
    {
      "inputs": [],
      "name": "getMonthToExpireNext",
      "outputs": [
        {
          "internalType": "uint256",
          "name": "",
          "type": "uint256"
        }
      ],
      "stateMutability": "view",
      "type": "function"
    },
    {
      "inputs": [
        {
          "internalType": "uint256",
          "name": "_month",
          "type": "uint256"
        },
        {
          "internalType": "uint256[]",
          "name": "_blocks",
          "type": "uint256[]"
        }
      ],
      "name": "setVotePowerBlockNumbers",
      "outputs": [],
      "stateMutability": "nonpayable",
      "type": "function"
    },
    {
      "inputs": [
        {
          "internalType": "uint256",
          "name": "_month",
          "type": "uint256"
        }
      ],
      "name": "votePowerBlockNumbers",
      "outputs": [
        {
          "internalType": "uint256[]",
          "name": "",
          "type": "uint256[]"
        }
      ],
      "stateMutability": "view",
      "type": "function"
    },
    {
      "inputs": [
        {
          "internalType": "uint256",
          "name": "",
          "type": "uint256"
        },
        {
          "internalType": "uint256",
          "name": "",
          "type": "uint256"
        }
      ],
      "name": "votePowerBlocks",
      "outputs": [
        {
          "internalType": "uint256",
          "name": "",
          "type": "uint256"
        }
      ],
      "stateMutability": "view",
      "type": "function"
    },
    {
      "inputs": [],
      "name": "wNat",
      "outputs": [
        {
          "internalType": "address",
          "name": "",
          "type": "address"
        }
      ],
      "stateMutability": "view",
      "type": "function"
    },
    {
      "stateMutability": "payable",
      "type": "receive"
    }
  ],
  "bytecode": "0x60a060405234801561001057600080fd5b506040516108c53803806108c583398101604081905261002f91610040565b6001600160a01b0316608052610070565b60006020828403121561005257600080fd5b81516001600160a01b038116811461006957600080fd5b9392505050565b60805161083b61008a600039600060d3015261083b6000f3fe60806040526004361061007f5760003560e01c8063aad3ec961161004e578063aad3ec96146101e7578063ae44bdce14610207578063d2c8f62b14610227578063ddd1b67e1461024757600080fd5b8063978d80ab1461008b5780639edbf007146100c1578063a2a12e151461011a578063aa7579ac146101c357600080fd5b3661008657005b600080fd5b34801561009757600080fd5b506100ab6100a63660046105c1565b61025d565b6040516100b891906105da565b60405180910390f35b3480156100cd57600080fd5b506100f57f000000000000000000000000000000000000000000000000000000000000000081565b60405173ffffffffffffffffffffffffffffffffffffffff90911681526020016100b8565b6101c1610128366004610643565b73ffffffffffffffffffffffffffffffffffffffff9290921660009081526002602081815260408084208151606081018352958652858301968752908501848152815460018082018455928652929094209451600390920290940190815593519284019290925551910180547fffffffffffffffffffffffffffffffffffffffffffffffffffffffffffffff0016911515919091179055565b005b3480156101cf57600080fd5b506101d960015481565b6040519081526020016100b8565b3480156101f357600080fd5b506101d9610202366004610678565b6102bf565b34801561021357600080fd5b506101c16102223660046106a4565b61041a565b34801561023357600080fd5b506101d9610242366004610723565b610447565b34801561025357600080fd5b506101d960005481565b6000818152600360209081526040918290208054835181840281018401909452808452606093928301828280156102b357602002820191906000526020600020905b81548152602001906001019080831161029f575b50505050509050919050565b6000805b33600090815260026020526040902054811015610394573360009081526002602052604081208054839081106102fb576102fb610745565b906000526020600020906003020190506000548160000154108015610324575060008160010154115b80156103355750600281015460ff16155b15610381578054840361038157600181015461035190846107a3565b6002820180547fffffffffffffffffffffffffffffffffffffffffffffffffffffffffffffff0016600117905592505b508061038c816107bb565b9150506102c3565b508015610414578047101561040a576040517f08c379a000000000000000000000000000000000000000000000000000000000815260206004820152601460248201527f496e73756666696369656e742062616c616e636500000000000000000000000060448201526064015b60405180910390fd5b6104148382610478565b92915050565b6000838152600360205260409020610433908383610561565b5061043f8360016107a3565b600055505050565b6003602052816000526040600020818154811061046357600080fd5b90600052602060002001600091509150505481565b6040805160008082526020820190925273ffffffffffffffffffffffffffffffffffffffff84169083906040516104af91906107f3565b60006040518083038185875af1925050503d80600081146104ec576040519150601f19603f3d011682016040523d82523d6000602084013e6104f1565b606091505b505090508061055c576040517f08c379a000000000000000000000000000000000000000000000000000000000815260206004820152600e60248201527f5472616e73666572206572726f720000000000000000000000000000000000006044820152606401610401565b505050565b82805482825590600052602060002090810192821561059c579160200282015b8281111561059c578235825591602001919060010190610581565b506105a89291506105ac565b5090565b5b808211156105a857600081556001016105ad565b6000602082840312156105d357600080fd5b5035919050565b6020808252825182820181905260009190848201906040850190845b81811015610612578351835292840192918401916001016105f6565b50909695505050505050565b73ffffffffffffffffffffffffffffffffffffffff8116811461064057600080fd5b50565b60008060006060848603121561065857600080fd5b83356106638161061e565b95602085013595506040909401359392505050565b6000806040838503121561068b57600080fd5b82356106968161061e565b946020939093013593505050565b6000806000604084860312156106b957600080fd5b83359250602084013567ffffffffffffffff808211156106d857600080fd5b818601915086601f8301126106ec57600080fd5b8135818111156106fb57600080fd5b8760208260051b850101111561071057600080fd5b6020830194508093505050509250925092565b6000806040838503121561073657600080fd5b50508035926020909101359150565b7f4e487b7100000000000000000000000000000000000000000000000000000000600052603260045260246000fd5b7f4e487b7100000000000000000000000000000000000000000000000000000000600052601160045260246000fd5b600082198211156107b6576107b6610774565b500190565b60007fffffffffffffffffffffffffffffffffffffffffffffffffffffffffffffffff82036107ec576107ec610774565b5060010190565b6000825160005b8181101561081457602081860181015185830152016107fa565b81811115610823576000828501525b50919091019291505056fea164736f6c634300080f000a",
  "linkReferences": {},
  "deployedLinkReferences": {}
}