{
  "_format": "hh-sol-artifact-1",
  "contractName": "PriceSubmitter",
  "sourceName": "contracts/test/PriceSubmitter.sol",
  "abi": [
    {
      "inputs": [],
      "name": "getFtsoManager",
      "outputs": [
        {
          "internalType": "address",
          "name": "",
          "type": "address"
        }
      ],
      "stateMutability": "view",
      "type": "function"
    },
    {
      "inputs": [
        {
          "internalType": "address",
          "name": "_wNat",
          "type": "address"
        }
      ],
      "name": "initialize",
      "outputs": [],
      "stateMutability": "nonpayable",
      "type": "function"
    }
  ],
  "bytecode": "0x608060405234801561001057600080fd5b50612d2c806100206000396000f3fe608060405234801561001057600080fd5b50600436106100365760003560e01c8063b39c68581461003b578063c4d66de814610067575b600080fd5b6000546040805173ffffffffffffffffffffffffffffffffffffffff9092168252519081900360200190f35b61007a610075366004610118565b61007c565b005b806040516100899061010b565b73ffffffffffffffffffffffffffffffffffffffff9091168152602001604051809103906000f0801580156100c2573d6000803e3d6000fd5b50600080547fffffffffffffffffffffffff00000000000000000000000000000000000000001673ffffffffffffffffffffffffffffffffffffffff9290921691909117905550565b612bca8061015683390190565b60006020828403121561012a57600080fd5b813573ffffffffffffffffffffffffffffffffffffffff8116811461014e57600080fd5b939250505056fe608060405234801561001057600080fd5b50604051612bca380380612bca83398101604081905261002f916100a5565b80600060405161003e90610098565b6001600160a01b03928316815291166020820152604001604051809103906000f080158015610071573d6000803e3d6000fd5b50600080546001600160a01b0319166001600160a01b0392909216919091179055506100d5565b6113e8806117e283390190565b6000602082840312156100b757600080fd5b81516001600160a01b03811681146100ce57600080fd5b9392505050565b6116fe806100e46000396000f3fe608060405234801561001057600080fd5b506004361061007d5760003560e01c8063c9a904d91161005b578063c9a904d914610102578063ca6a91d31461010a578063e7c830d41461011d578063f2edab5a1461012557600080fd5b80630f4ef8a61461008257806317a493bd146100cc5780633e7ff857146100f0575b600080fd5b6000546100a29073ffffffffffffffffffffffffffffffffffffffff1681565b60405173ffffffffffffffffffffffffffffffffffffffff90911681526020015b60405180910390f35b6100ee6100da366004610291565b600082815260026020526040902055600155565b005b6003545b6040519081526020016100c3565b6100ee610145565b6100ee6101183660046102b3565b600355565b6001546100f4565b6100f46101333660046102b3565b60009081526002602052604090205490565b60008054906101000a900473ffffffffffffffffffffffffffffffffffffffff1673ffffffffffffffffffffffffffffffffffffffff16639edbf0076040518163ffffffff1660e01b8152600401602060405180830381865afa1580156101b0573d6000803e3d6000fd5b505050506040513d601f19601f820116820180604052508101906101d491906102cc565b60005460405173ffffffffffffffffffffffffffffffffffffffff909116906101fc90610284565b73ffffffffffffffffffffffffffffffffffffffff928316815291166020820152604001604051809103906000f08015801561023c573d6000803e3d6000fd5b50600080547fffffffffffffffffffffffff00000000000000000000000000000000000000001673ffffffffffffffffffffffffffffffffffffffff92909216919091179055565b6113e88061030a83390190565b600080604083850312156102a457600080fd5b50508035926020909101359150565b6000602082840312156102c557600080fd5b5035919050565b6000602082840312156102de57600080fd5b815173ffffffffffffffffffffffffffffffffffffffff8116811461030257600080fd5b939250505056fe60e060405234801561001057600080fd5b506040516113e83803806113e883398101604081905261002f91610073565b6000805460ff19166001179055336080526001600160a01b0391821660a0521660c0526100a6565b80516001600160a01b038116811461006e57600080fd5b919050565b6000806040838503121561008657600080fd5b61008f83610057565b915061009d60208401610057565b90509250929050565b60805160a05160c0516112e3610105600039600060cc0152600081816101610152610c7901526000818161022b015281816102be0152818161052f015281816105c2015281816107f5015281816108880152610ba701526112e36000f3fe60806040526004361061007f5760003560e01c8063a4472c101161004e578063a4472c1014610183578063b2af870a146101b3578063b4a2043d146101e1578063c1aaa53c1461020e57600080fd5b806302fb0c5e1461008b5780630cb72344146100ba57806351b42b00146101135780639edbf0071461014f57600080fd5b3661008657005b600080fd5b34801561009757600080fd5b506000546100a59060ff1681565b60405190151581526020015b60405180910390f35b3480156100c657600080fd5b506100ee7f000000000000000000000000000000000000000000000000000000000000000081565b60405173ffffffffffffffffffffffffffffffffffffffff90911681526020016100b1565b34801561011f57600080fd5b5061014d600080547fffffffffffffffffffffffffffffffffffffffffffffffffffffffffffffff00169055565b005b34801561015b57600080fd5b506100ee7f000000000000000000000000000000000000000000000000000000000000000081565b34801561018f57600080fd5b506101a361019e366004610eb2565b610221565b6040516100b19493929190610f19565b3480156101bf57600080fd5b506101d36101ce366004610fff565b6104b9565b6040519081526020016100b1565b3480156101ed57600080fd5b506102016101fc3660046110f0565b6107ef565b6040516100b19190611114565b61014d61021c366004611127565b610b75565b60608060606000807f000000000000000000000000000000000000000000000000000000000000000073ffffffffffffffffffffffffffffffffffffffff16633e7ff8576040518163ffffffff1660e01b8152600401602060405180830381865afa158015610294573d6000803e3d6000fd5b505050506040513d601f19601f820116820180604052508101906102b8919061115c565b905060007f000000000000000000000000000000000000000000000000000000000000000073ffffffffffffffffffffffffffffffffffffffff1663e7c830d46040518163ffffffff1660e01b8152600401602060405180830381865afa158015610327573d6000803e3d6000fd5b505050506040513d601f19601f8201168201806040525081019061034b919061115c565b905081871061049d5760005b73ffffffffffffffffffffffffffffffffffffffff891660009081526001602052604090205481101561049b5773ffffffffffffffffffffffffffffffffffffffff891660009081526001602052604081208054839081106103bb576103bb611175565b90600052602060002090600302019050888160000154036104885760408051600180825281830190925290602080830190803683375050604080516001808252818301909252929a50905060208083019080368337505060408051600180825281830190925292995090506020808301908036833701905050955080600101548760008151811061044e5761044e611175565b60209081029190910101526002810154865160ff90911690879060009061047757610477611175565b911515602092830291909101909101525b5080610493816111d3565b915050610357565b505b8187101580156104ac57508087105b9250505092959194509250565b6000805460ff1661052b576040517f08c379a000000000000000000000000000000000000000000000000000000000815260206004820152600a60248201527f4e4f54204143544956450000000000000000000000000000000000000000000060448201526064015b60405180910390fd5b60007f000000000000000000000000000000000000000000000000000000000000000073ffffffffffffffffffffffffffffffffffffffff16633e7ff8576040518163ffffffff1660e01b8152600401602060405180830381865afa158015610598573d6000803e3d6000fd5b505050506040513d601f19601f820116820180604052508101906105bc919061115c565b905060007f000000000000000000000000000000000000000000000000000000000000000073ffffffffffffffffffffffffffffffffffffffff1663e7c830d46040518163ffffffff1660e01b8152600401602060405180830381865afa15801561062b573d6000803e3d6000fd5b505050506040513d601f19601f8201168201806040525081019061064f919061115c565b905060005b3360009081526001602052604090205481101561076c5733600090815260016020526040812080548390811061068c5761068c611175565b90600052602060002090600302019050838160000154101580156106b05750805483115b80156106c0575060008160010154115b80156106d15750600281015460ff16155b156107595760005b86518110156107575781600001548782815181106106f9576106f9611175565b602002602001015103610745576001820154610715908761120b565b6002830180547fffffffffffffffffffffffffffffffffffffffffffffffffffffffffffffff0016600117905595505b8061074f816111d3565b9150506106d9565b505b5080610764816111d3565b915050610654565b5082156107e757824710156107dd576040517f08c379a000000000000000000000000000000000000000000000000000000000815260206004820152601460248201527f496e73756666696369656e742062616c616e63650000000000000000000000006044820152606401610522565b6107e78584610da4565b505092915050565b606060007f000000000000000000000000000000000000000000000000000000000000000073ffffffffffffffffffffffffffffffffffffffff16633e7ff8576040518163ffffffff1660e01b8152600401602060405180830381865afa15801561085e573d6000803e3d6000fd5b505050506040513d601f19601f82011682018060405250810190610882919061115c565b905060007f000000000000000000000000000000000000000000000000000000000000000073ffffffffffffffffffffffffffffffffffffffff1663e7c830d46040518163ffffffff1660e01b8152600401602060405180830381865afa1580156108f1573d6000803e3d6000fd5b505050506040513d601f19601f82011682018060405250810190610915919061115c565b90506000805b73ffffffffffffffffffffffffffffffffffffffff86166000908152600160205260409020548110156109ea5773ffffffffffffffffffffffffffffffffffffffff8616600090815260016020526040812080548390811061097f5761097f611175565b90600052602060002090600302019050848160000154101580156109a35750805484115b80156109b3575060008160010154115b80156109c45750600281015460ff16155b156109d757826109d3816111d3565b9350505b50806109e2816111d3565b91505061091b565b508067ffffffffffffffff811115610a0457610a04610fd0565b604051908082528060200260200182016040528015610a2d578160200160208202803683370190505b5093506000905060005b73ffffffffffffffffffffffffffffffffffffffff8616600090815260016020526040902054811015610b6c5773ffffffffffffffffffffffffffffffffffffffff86166000908152600160205260408120805483908110610a9b57610a9b611175565b9060005260206000209060030201905084816000015410158015610abf5750805484115b8015610acf575060008160010154115b8015610ae05750600281015460ff16155b15610b595773ffffffffffffffffffffffffffffffffffffffff87166000908152600160205260409020805483908110610b1c57610b1c611175565b906000526020600020906003020160000154868480610b3a906111d3565b955081518110610b4c57610b4c611175565b6020026020010181815250505b5080610b64816111d3565b915050610a37565b50505050919050565b6040517ff2edab5a000000000000000000000000000000000000000000000000000000008152600481018390526000907f000000000000000000000000000000000000000000000000000000000000000073ffffffffffffffffffffffffffffffffffffffff169063f2edab5a90602401602060405180830381865afa158015610c03573d6000803e3d6000fd5b505050506040513d601f19601f82011682018060405250810190610c27919061115c565b6040517f4ee2cd7e00000000000000000000000000000000000000000000000000000000815273ffffffffffffffffffffffffffffffffffffffff8681166004830152602482018390529192506000917f00000000000000000000000000000000000000000000000000000000000000001690634ee2cd7e90604401602060405180830381865afa158015610cc0573d6000803e3d6000fd5b505050506040513d601f19601f82011682018060405250810190610ce4919061115c565b73ffffffffffffffffffffffffffffffffffffffff86166000908152600160209081526040918290208251606081019093528783529293508101612710610d2b8786611223565b610d359190611260565b815260006020918201819052835460018082018655948252908290208351600390920201908155908201519281019290925560400151600290910180547fffffffffffffffffffffffffffffffffffffffffffffffffffffffffffffff00169115159190911790555050505050565b6040805160008082526020820190925273ffffffffffffffffffffffffffffffffffffffff8416908390604051610ddb919061129b565b60006040518083038185875af1925050503d8060008114610e18576040519150601f19603f3d011682016040523d82523d6000602084013e610e1d565b606091505b5050905080610e88576040517f08c379a000000000000000000000000000000000000000000000000000000000815260206004820152600e60248201527f5472616e73666572206572726f720000000000000000000000000000000000006044820152606401610522565b505050565b73ffffffffffffffffffffffffffffffffffffffff81168114610eaf57600080fd5b50565b60008060408385031215610ec557600080fd5b8235610ed081610e8d565b946020939093013593505050565b600081518084526020808501945080840160005b83811015610f0e57815187529582019590820190600101610ef2565b509495945050505050565b6080808252855190820181905260009060209060a0840190828901845b82811015610f6857815173ffffffffffffffffffffffffffffffffffffffff1684529284019290840190600101610f36565b50505083810382850152610f7c8188610ede565b8481036040860152865180825283880192509083019060005b81811015610fb3578351151583529284019291840191600101610f95565b505085151560608601529250610fc7915050565b95945050505050565b7f4e487b7100000000000000000000000000000000000000000000000000000000600052604160045260246000fd5b6000806040838503121561101257600080fd5b823561101d81610e8d565b915060208381013567ffffffffffffffff8082111561103b57600080fd5b818601915086601f83011261104f57600080fd5b81358181111561106157611061610fd0565b8060051b6040517fffffffffffffffffffffffffffffffffffffffffffffffffffffffffffffffe0603f830116810181811085821117156110a4576110a4610fd0565b6040529182528482019250838101850191898311156110c257600080fd5b938501935b828510156110e0578435845293850193928501926110c7565b8096505050505050509250929050565b60006020828403121561110257600080fd5b813561110d81610e8d565b9392505050565b60208152600061110d6020830184610ede565b60008060006060848603121561113c57600080fd5b833561114781610e8d565b95602085013595506040909401359392505050565b60006020828403121561116e57600080fd5b5051919050565b7f4e487b7100000000000000000000000000000000000000000000000000000000600052603260045260246000fd5b7f4e487b7100000000000000000000000000000000000000000000000000000000600052601160045260246000fd5b60007fffffffffffffffffffffffffffffffffffffffffffffffffffffffffffffffff8203611204576112046111a4565b5060010190565b6000821982111561121e5761121e6111a4565b500190565b6000817fffffffffffffffffffffffffffffffffffffffffffffffffffffffffffffffff048311821515161561125b5761125b6111a4565b500290565b600082611296577f4e487b7100000000000000000000000000000000000000000000000000000000600052601260045260246000fd5b500490565b6000825160005b818110156112bc57602081860181015185830152016112a2565b818111156112cb576000828501525b50919091019291505056fea164736f6c634300080f000aa164736f6c634300080f000a60e060405234801561001057600080fd5b506040516113e83803806113e883398101604081905261002f91610073565b6000805460ff19166001179055336080526001600160a01b0391821660a0521660c0526100a6565b80516001600160a01b038116811461006e57600080fd5b919050565b6000806040838503121561008657600080fd5b61008f83610057565b915061009d60208401610057565b90509250929050565b60805160a05160c0516112e3610105600039600060cc0152600081816101610152610c7901526000818161022b015281816102be0152818161052f015281816105c2015281816107f5015281816108880152610ba701526112e36000f3fe60806040526004361061007f5760003560e01c8063a4472c101161004e578063a4472c1014610183578063b2af870a146101b3578063b4a2043d146101e1578063c1aaa53c1461020e57600080fd5b806302fb0c5e1461008b5780630cb72344146100ba57806351b42b00146101135780639edbf0071461014f57600080fd5b3661008657005b600080fd5b34801561009757600080fd5b506000546100a59060ff1681565b60405190151581526020015b60405180910390f35b3480156100c657600080fd5b506100ee7f000000000000000000000000000000000000000000000000000000000000000081565b60405173ffffffffffffffffffffffffffffffffffffffff90911681526020016100b1565b34801561011f57600080fd5b5061014d600080547fffffffffffffffffffffffffffffffffffffffffffffffffffffffffffffff00169055565b005b34801561015b57600080fd5b506100ee7f000000000000000000000000000000000000000000000000000000000000000081565b34801561018f57600080fd5b506101a361019e366004610eb2565b610221565b6040516100b19493929190610f19565b3480156101bf57600080fd5b506101d36101ce366004610fff565b6104b9565b6040519081526020016100b1565b3480156101ed57600080fd5b506102016101fc3660046110f0565b6107ef565b6040516100b19190611114565b61014d61021c366004611127565b610b75565b60608060606000807f000000000000000000000000000000000000000000000000000000000000000073ffffffffffffffffffffffffffffffffffffffff16633e7ff8576040518163ffffffff1660e01b8152600401602060405180830381865afa158015610294573d6000803e3d6000fd5b505050506040513d601f19601f820116820180604052508101906102b8919061115c565b905060007f000000000000000000000000000000000000000000000000000000000000000073ffffffffffffffffffffffffffffffffffffffff1663e7c830d46040518163ffffffff1660e01b8152600401602060405180830381865afa158015610327573d6000803e3d6000fd5b505050506040513d601f19601f8201168201806040525081019061034b919061115c565b905081871061049d5760005b73ffffffffffffffffffffffffffffffffffffffff891660009081526001602052604090205481101561049b5773ffffffffffffffffffffffffffffffffffffffff891660009081526001602052604081208054839081106103bb576103bb611175565b90600052602060002090600302019050888160000154036104885760408051600180825281830190925290602080830190803683375050604080516001808252818301909252929a50905060208083019080368337505060408051600180825281830190925292995090506020808301908036833701905050955080600101548760008151811061044e5761044e611175565b60209081029190910101526002810154865160ff90911690879060009061047757610477611175565b911515602092830291909101909101525b5080610493816111d3565b915050610357565b505b8187101580156104ac57508087105b9250505092959194509250565b6000805460ff1661052b576040517f08c379a000000000000000000000000000000000000000000000000000000000815260206004820152600a60248201527f4e4f54204143544956450000000000000000000000000000000000000000000060448201526064015b60405180910390fd5b60007f000000000000000000000000000000000000000000000000000000000000000073ffffffffffffffffffffffffffffffffffffffff16633e7ff8576040518163ffffffff1660e01b8152600401602060405180830381865afa158015610598573d6000803e3d6000fd5b505050506040513d601f19601f820116820180604052508101906105bc919061115c565b905060007f000000000000000000000000000000000000000000000000000000000000000073ffffffffffffffffffffffffffffffffffffffff1663e7c830d46040518163ffffffff1660e01b8152600401602060405180830381865afa15801561062b573d6000803e3d6000fd5b505050506040513d601f19601f8201168201806040525081019061064f919061115c565b905060005b3360009081526001602052604090205481101561076c5733600090815260016020526040812080548390811061068c5761068c611175565b90600052602060002090600302019050838160000154101580156106b05750805483115b80156106c0575060008160010154115b80156106d15750600281015460ff16155b156107595760005b86518110156107575781600001548782815181106106f9576106f9611175565b602002602001015103610745576001820154610715908761120b565b6002830180547fffffffffffffffffffffffffffffffffffffffffffffffffffffffffffffff0016600117905595505b8061074f816111d3565b9150506106d9565b505b5080610764816111d3565b915050610654565b5082156107e757824710156107dd576040517f08c379a000000000000000000000000000000000000000000000000000000000815260206004820152601460248201527f496e73756666696369656e742062616c616e63650000000000000000000000006044820152606401610522565b6107e78584610da4565b505092915050565b606060007f000000000000000000000000000000000000000000000000000000000000000073ffffffffffffffffffffffffffffffffffffffff16633e7ff8576040518163ffffffff1660e01b8152600401602060405180830381865afa15801561085e573d6000803e3d6000fd5b505050506040513d601f19601f82011682018060405250810190610882919061115c565b905060007f000000000000000000000000000000000000000000000000000000000000000073ffffffffffffffffffffffffffffffffffffffff1663e7c830d46040518163ffffffff1660e01b8152600401602060405180830381865afa1580156108f1573d6000803e3d6000fd5b505050506040513d601f19601f82011682018060405250810190610915919061115c565b90506000805b73ffffffffffffffffffffffffffffffffffffffff86166000908152600160205260409020548110156109ea5773ffffffffffffffffffffffffffffffffffffffff8616600090815260016020526040812080548390811061097f5761097f611175565b90600052602060002090600302019050848160000154101580156109a35750805484115b80156109b3575060008160010154115b80156109c45750600281015460ff16155b156109d757826109d3816111d3565b9350505b50806109e2816111d3565b91505061091b565b508067ffffffffffffffff811115610a0457610a04610fd0565b604051908082528060200260200182016040528015610a2d578160200160208202803683370190505b5093506000905060005b73ffffffffffffffffffffffffffffffffffffffff8616600090815260016020526040902054811015610b6c5773ffffffffffffffffffffffffffffffffffffffff86166000908152600160205260408120805483908110610a9b57610a9b611175565b9060005260206000209060030201905084816000015410158015610abf5750805484115b8015610acf575060008160010154115b8015610ae05750600281015460ff16155b15610b595773ffffffffffffffffffffffffffffffffffffffff87166000908152600160205260409020805483908110610b1c57610b1c611175565b906000526020600020906003020160000154868480610b3a906111d3565b955081518110610b4c57610b4c611175565b6020026020010181815250505b5080610b64816111d3565b915050610a37565b50505050919050565b6040517ff2edab5a000000000000000000000000000000000000000000000000000000008152600481018390526000907f000000000000000000000000000000000000000000000000000000000000000073ffffffffffffffffffffffffffffffffffffffff169063f2edab5a90602401602060405180830381865afa158015610c03573d6000803e3d6000fd5b505050506040513d601f19601f82011682018060405250810190610c27919061115c565b6040517f4ee2cd7e00000000000000000000000000000000000000000000000000000000815273ffffffffffffffffffffffffffffffffffffffff8681166004830152602482018390529192506000917f00000000000000000000000000000000000000000000000000000000000000001690634ee2cd7e90604401602060405180830381865afa158015610cc0573d6000803e3d6000fd5b505050506040513d601f19601f82011682018060405250810190610ce4919061115c565b73ffffffffffffffffffffffffffffffffffffffff86166000908152600160209081526040918290208251606081019093528783529293508101612710610d2b8786611223565b610d359190611260565b815260006020918201819052835460018082018655948252908290208351600390920201908155908201519281019290925560400151600290910180547fffffffffffffffffffffffffffffffffffffffffffffffffffffffffffffff00169115159190911790555050505050565b6040805160008082526020820190925273ffffffffffffffffffffffffffffffffffffffff8416908390604051610ddb919061129b565b60006040518083038185875af1925050503d8060008114610e18576040519150601f19603f3d011682016040523d82523d6000602084013e610e1d565b606091505b5050905080610e88576040517f08c379a000000000000000000000000000000000000000000000000000000000815260206004820152600e60248201527f5472616e73666572206572726f720000000000000000000000000000000000006044820152606401610522565b505050565b73ffffffffffffffffffffffffffffffffffffffff81168114610eaf57600080fd5b50565b60008060408385031215610ec557600080fd5b8235610ed081610e8d565b946020939093013593505050565b600081518084526020808501945080840160005b83811015610f0e57815187529582019590820190600101610ef2565b509495945050505050565b6080808252855190820181905260009060209060a0840190828901845b82811015610f6857815173ffffffffffffffffffffffffffffffffffffffff1684529284019290840190600101610f36565b50505083810382850152610f7c8188610ede565b8481036040860152865180825283880192509083019060005b81811015610fb3578351151583529284019291840191600101610f95565b505085151560608601529250610fc7915050565b95945050505050565b7f4e487b7100000000000000000000000000000000000000000000000000000000600052604160045260246000fd5b6000806040838503121561101257600080fd5b823561101d81610e8d565b915060208381013567ffffffffffffffff8082111561103b57600080fd5b818601915086601f83011261104f57600080fd5b81358181111561106157611061610fd0565b8060051b6040517fffffffffffffffffffffffffffffffffffffffffffffffffffffffffffffffe0603f830116810181811085821117156110a4576110a4610fd0565b6040529182528482019250838101850191898311156110c257600080fd5b938501935b828510156110e0578435845293850193928501926110c7565b8096505050505050509250929050565b60006020828403121561110257600080fd5b813561110d81610e8d565b9392505050565b60208152600061110d6020830184610ede565b60008060006060848603121561113c57600080fd5b833561114781610e8d565b95602085013595506040909401359392505050565b60006020828403121561116e57600080fd5b5051919050565b7f4e487b7100000000000000000000000000000000000000000000000000000000600052603260045260246000fd5b7f4e487b7100000000000000000000000000000000000000000000000000000000600052601160045260246000fd5b60007fffffffffffffffffffffffffffffffffffffffffffffffffffffffffffffffff8203611204576112046111a4565b5060010190565b6000821982111561121e5761121e6111a4565b500190565b6000817fffffffffffffffffffffffffffffffffffffffffffffffffffffffffffffffff048311821515161561125b5761125b6111a4565b500290565b600082611296577f4e487b7100000000000000000000000000000000000000000000000000000000600052601260045260246000fd5b500490565b6000825160005b818110156112bc57602081860181015185830152016112a2565b818111156112cb576000828501525b50919091019291505056fea164736f6c634300080f000aa164736f6c634300080f000a",
  "linkReferences": {},
  "deployedLinkReferences": {}
}