{
  "_format": "hh-sol-artifact-1",
  "contractName": "Manager",
  "sourceName": "contracts/Manager.sol",
  "abi": [
    {
      "inputs": [],
      "stateMutability": "nonpayable",
      "type": "constructor"
    },
    {
      "anonymous": false,
      "inputs": [
        {
          "indexed": false,
          "internalType": "address",
          "name": "ftsoRewardManager",
          "type": "address"
        }
      ],
      "name": "AddFtsoRewardManager",
      "type": "event"
    },
    {
      "anonymous": false,
      "inputs": [
        {
          "indexed": true,
          "internalType": "address",
          "name": "previousOwner",
          "type": "address"
        },
        {
          "indexed": true,
          "internalType": "address",
          "name": "newOwner",
          "type": "address"
        }
      ],
      "name": "OwnershipTransferred",
      "type": "event"
    },
    {
      "inputs": [
        {
          "internalType": "address",
          "name": "distribution",
          "type": "address"
        }
      ],
      "name": "addDistribution",
      "outputs": [],
      "stateMutability": "nonpayable",
      "type": "function"
    },
    {
      "inputs": [],
      "name": "getDistributions",
      "outputs": [
        {
          "internalType": "contract IDistributionToDelegators[]",
          "name": "",
          "type": "address[]"
        }
      ],
      "stateMutability": "view",
      "type": "function"
    },
    {
      "inputs": [],
      "name": "getFtsoRewardManagers",
      "outputs": [
        {
          "internalType": "contract IFtsoRewardManager[]",
          "name": "managers",
          "type": "address[]"
        }
      ],
      "stateMutability": "view",
      "type": "function"
    },
    {
      "inputs": [],
      "name": "owner",
      "outputs": [
        {
          "internalType": "address",
          "name": "",
          "type": "address"
        }
      ],
      "stateMutability": "view",
      "type": "function"
    },
    {
      "inputs": [],
      "name": "platformFeeAccount",
      "outputs": [
        {
          "internalType": "address",
          "name": "",
          "type": "address"
        }
      ],
      "stateMutability": "view",
      "type": "function"
    },
    {
      "inputs": [],
      "name": "platformFeeBips",
      "outputs": [
        {
          "internalType": "uint256",
          "name": "",
          "type": "uint256"
        }
      ],
      "stateMutability": "view",
      "type": "function"
    },
    {
      "inputs": [],
      "name": "renounceOwnership",
      "outputs": [],
      "stateMutability": "nonpayable",
      "type": "function"
    },
    {
      "inputs": [
        {
          "internalType": "address",
          "name": "account",
          "type": "address"
        }
      ],
      "name": "setPlatformFeeAccount",
      "outputs": [],
      "stateMutability": "nonpayable",
      "type": "function"
    },
    {
      "inputs": [
        {
          "internalType": "uint256",
          "name": "bips",
          "type": "uint256"
        }
      ],
      "name": "setPlatformFeeBips",
      "outputs": [],
      "stateMutability": "nonpayable",
      "type": "function"
    },
    {
      "inputs": [
        {
          "internalType": "address",
          "name": "newOwner",
          "type": "address"
        }
      ],
      "name": "transferOwnership",
      "outputs": [],
      "stateMutability": "nonpayable",
      "type": "function"
    },
    {
      "inputs": [],
      "name": "updateFtsoRewardManagers",
      "outputs": [],
      "stateMutability": "nonpayable",
      "type": "function"
    },
    {
      "inputs": [],
      "name": "wNat",
      "outputs": [
        {
          "internalType": "address",
          "name": "",
          "type": "address"
        }
      ],
      "stateMutability": "view",
      "type": "function"
    }
  ],
  "bytecode": "0x60a06040523480156200001157600080fd5b506200001d336200010c565b600062000049620000386200015c60201b62000f311760201c565b620001dc60201b62000fbb1760201c565b9050806001600160a01b0316639edbf0076040518163ffffffff1660e01b8152600401602060405180830381865afa1580156200008a573d6000803e3d6000fd5b505050506040513d601f19601f82011682018060405250810190620000b0919062000249565b6001600160a01b03908116608052600380546001810182556000919091527fc2575a0e9e593c00f959f8c92f12db2869c3395a3b0502d05e2516446f71f85b0180546001600160a01b031916929091169190911790556200027b565b600080546001600160a01b038381166001600160a01b0319831681178455604051919092169283917f8be0079c531659141344cd1fd0a4f28419497f9722a3daafe3b4186f6b6457e09190a35050565b60007310000000000000000000000000000000000000036001600160a01b031663b39c68586040518163ffffffff1660e01b8152600401602060405180830381865afa158015620001b1573d6000803e3d6000fd5b505050506040513d601f19601f82011682018060405250810190620001d7919062000249565b905090565b6000816001600160a01b0316630f4ef8a66040518163ffffffff1660e01b8152600401602060405180830381865afa1580156200021d573d6000803e3d6000fd5b505050506040513d601f19601f8201168201806040525081019062000243919062000249565b92915050565b6000602082840312156200025c57600080fd5b81516001600160a01b03811681146200027457600080fd5b9392505050565b6080516113756200029760003960006101aa01526113756000f3fe608060405234801561001057600080fd5b50600436106100d45760003560e01c80638af2c04811610081578063cc4248f71161005b578063cc4248f7146101cc578063db4826ad146101e3578063f2fde38b146101eb57600080fd5b80638af2c048146101425780638da5cb5b146101875780639edbf007146101a557600080fd5b806347dd8832116100b257806347dd88321461011f578063715018a61461013257806377fb67491461013a57600080fd5b806302aa6318146100d95780632d0abf28146100f7578063388d9e5a1461010c575b600080fd5b6100e16101fe565b6040516100ee919061113a565b60405180910390f35b61010a610105366004611194565b61026d565b005b61010a61011a3660046111cf565b6103e5565b61010a61012d3660046111cf565b61052a565b61010a610622565b6100e16106af565b6002546101629073ffffffffffffffffffffffffffffffffffffffff1681565b60405173ffffffffffffffffffffffffffffffffffffffff90911681526020016100ee565b60005473ffffffffffffffffffffffffffffffffffffffff16610162565b6101627f000000000000000000000000000000000000000000000000000000000000000081565b6101d560015481565b6040519081526020016100ee565b61010a610b28565b61010a6101f93660046111cf565b610e01565b6060600580548060200260200160405190810160405280929190818152602001828054801561026357602002820191906000526020600020905b815473ffffffffffffffffffffffffffffffffffffffff168152600190910190602001808311610238575b5050505050905090565b60005473ffffffffffffffffffffffffffffffffffffffff1633146102f3576040517f08c379a000000000000000000000000000000000000000000000000000000000815260206004820181905260248201527f4f776e61626c653a2063616c6c6572206973206e6f7420746865206f776e657260448201526064015b60405180910390fd5b60025473ffffffffffffffffffffffffffffffffffffffff16610372576040517f08c379a000000000000000000000000000000000000000000000000000000000815260206004820152600b60248201527f466565204163636f756e7400000000000000000000000000000000000000000060448201526064016102ea565b6127108111156103e0576040517f08c379a00000000000000000000000000000000000000000000000000000000081526004016102ea9060208082526004908201527f4249505300000000000000000000000000000000000000000000000000000000604082015260600190565b600155565b60005473ffffffffffffffffffffffffffffffffffffffff163314610466576040517f08c379a000000000000000000000000000000000000000000000000000000000815260206004820181905260248201527f4f776e61626c653a2063616c6c6572206973206e6f7420746865206f776e657260448201526064016102ea565b73ffffffffffffffffffffffffffffffffffffffff81166104e3576040517f08c379a000000000000000000000000000000000000000000000000000000000815260206004820152600b60248201527f466565204163636f756e7400000000000000000000000000000000000000000060448201526064016102ea565b600280547fffffffffffffffffffffffff00000000000000000000000000000000000000001673ffffffffffffffffffffffffffffffffffffffff92909216919091179055565b60005473ffffffffffffffffffffffffffffffffffffffff1633146105ab576040517f08c379a000000000000000000000000000000000000000000000000000000000815260206004820181905260248201527f4f776e61626c653a2063616c6c6572206973206e6f7420746865206f776e657260448201526064016102ea565b600580546001810182556000919091527f036b6384b5eca791c62761152d0c79bb0604c104a5fb6f4eb0703f3154bb3db00180547fffffffffffffffffffffffff00000000000000000000000000000000000000001673ffffffffffffffffffffffffffffffffffffffff92909216919091179055565b60005473ffffffffffffffffffffffffffffffffffffffff1633146106a3576040517f08c379a000000000000000000000000000000000000000000000000000000000815260206004820181905260248201527f4f776e61626c653a2063616c6c6572206973206e6f7420746865206f776e657260448201526064016102ea565b6106ad6000611032565b565b600380546060916000916106c590600190611222565b815481106106d5576106d5611239565b600091825260208220015473ffffffffffffffffffffffffffffffffffffffff169150610708610703610f31565b610fbb565b90508173ffffffffffffffffffffffffffffffffffffffff168173ffffffffffffffffffffffffffffffffffffffff16036107ac5760038054806020026020016040519081016040528092919081815260200182805480156107a057602002820191906000526020600020905b815473ffffffffffffffffffffffffffffffffffffffff168152600190910190602001808311610775575b50505050509250505090565b60408051600380825260808201909252600091602082016060803683370190505090506000828282815181106107e4576107e4611239565b602002602001019073ffffffffffffffffffffffffffffffffffffffff16908173ffffffffffffffffffffffffffffffffffffffff16815250505b8061082981611297565b91505081518110610896576040517f08c379a000000000000000000000000000000000000000000000000000000000815260206004820152601860248201527f557064617465204674736f5265776172644d616e61676572000000000000000060448201526064016102ea565b6108c2826108a5600184611222565b815181106108b5576108b5611239565b60200260200101516110a7565b8282815181106108d4576108d4611239565b602002602001019073ffffffffffffffffffffffffffffffffffffffff16908173ffffffffffffffffffffffffffffffffffffffff16815250508373ffffffffffffffffffffffffffffffffffffffff1682828151811061093757610937611239565b602002602001015173ffffffffffffffffffffffffffffffffffffffff16141580156109a95750600073ffffffffffffffffffffffffffffffffffffffff1682828151811061098857610988611239565b602002602001015173ffffffffffffffffffffffffffffffffffffffff1614155b61081f576003546109ba82826112cf565b67ffffffffffffffff8111156109d2576109d2611268565b6040519080825280602002602001820160405280156109fb578160200160208202803683370190505b50955060005b81811015610a905760038181548110610a1c57610a1c611239565b9060005260206000200160009054906101000a900473ffffffffffffffffffffffffffffffffffffffff16878281518110610a5957610a59611239565b73ffffffffffffffffffffffffffffffffffffffff9092166020928302919091019091015280610a8881611297565b915050610a01565b5060005b82811015610b1f57836001610aa98386611222565b610ab39190611222565b81518110610ac357610ac3611239565b6020026020010151878284610ad891906112cf565b81518110610ae857610ae8611239565b73ffffffffffffffffffffffffffffffffffffffff9092166020928302919091019091015280610b1781611297565b915050610a94565b50505050505090565b6003805460009190610b3c90600190611222565b81548110610b4c57610b4c611239565b600091825260208220015473ffffffffffffffffffffffffffffffffffffffff169150610b7a610703610f31565b90508173ffffffffffffffffffffffffffffffffffffffff168173ffffffffffffffffffffffffffffffffffffffff1614610dfd575b6004805460018101825560009182527f8a35acfbc15ff81a39ae7d344fd709f28e8600b4aa8c65c6b64bfe7fe36bd19b0180547fffffffffffffffffffffffff00000000000000000000000000000000000000001673ffffffffffffffffffffffffffffffffffffffff8416179055610c28826110a7565b90508273ffffffffffffffffffffffffffffffffffffffff168173ffffffffffffffffffffffffffffffffffffffff161480610c78575073ffffffffffffffffffffffffffffffffffffffff8116155b15610c835750610c8a565b9050610bb0565b6004545b8015610dfb5760006004610ca3600184611222565b81548110610cb357610cb3611239565b60009182526020822001546003805460018101825592527fc2575a0e9e593c00f959f8c92f12db2869c3395a3b0502d05e2516446f71f85b90910180547fffffffffffffffffffffffff00000000000000000000000000000000000000001673ffffffffffffffffffffffffffffffffffffffff9092169182179055600480549192509080610d4457610d446112e7565b60008281526020908190207fffffffffffffffffffffffffffffffffffffffffffffffffffffffffffffffff908301810180547fffffffffffffffffffffffff000000000000000000000000000000000000000016905590910190915560405173ffffffffffffffffffffffffffffffffffffffff831681527f0f88753cbdcddf20b30c5cad302c6bf12e4c030e9a0f1f70ae06462d30b90e7a910160405180910390a15080610df381611316565b915050610c8e565b505b5050565b60005473ffffffffffffffffffffffffffffffffffffffff163314610e82576040517f08c379a000000000000000000000000000000000000000000000000000000000815260206004820181905260248201527f4f776e61626c653a2063616c6c6572206973206e6f7420746865206f776e657260448201526064016102ea565b73ffffffffffffffffffffffffffffffffffffffff8116610f25576040517f08c379a000000000000000000000000000000000000000000000000000000000815260206004820152602660248201527f4f776e61626c653a206e6577206f776e657220697320746865207a65726f206160448201527f646472657373000000000000000000000000000000000000000000000000000060648201526084016102ea565b610f2e81611032565b50565b600073100000000000000000000000000000000000000373ffffffffffffffffffffffffffffffffffffffff1663b39c68586040518163ffffffff1660e01b8152600401602060405180830381865afa158015610f92573d6000803e3d6000fd5b505050506040513d601f19601f82011682018060405250810190610fb6919061134b565b905090565b60008173ffffffffffffffffffffffffffffffffffffffff16630f4ef8a66040518163ffffffff1660e01b8152600401602060405180830381865afa158015611008573d6000803e3d6000fd5b505050506040513d601f19601f8201168201806040525081019061102c919061134b565b92915050565b6000805473ffffffffffffffffffffffffffffffffffffffff8381167fffffffffffffffffffffffff0000000000000000000000000000000000000000831681178455604051919092169283917f8be0079c531659141344cd1fd0a4f28419497f9722a3daafe3b4186f6b6457e09190a35050565b60008173ffffffffffffffffffffffffffffffffffffffff16630cb723446040518163ffffffff1660e01b8152600401602060405180830381865afa92505050801561112e575060408051601f3d9081017fffffffffffffffffffffffffffffffffffffffffffffffffffffffffffffffe016820190925261112b9181019061134b565b60015b61102c57506000919050565b6020808252825182820181905260009190848201906040850190845b8181101561118857835173ffffffffffffffffffffffffffffffffffffffff1683529284019291840191600101611156565b50909695505050505050565b6000602082840312156111a657600080fd5b5035919050565b73ffffffffffffffffffffffffffffffffffffffff81168114610f2e57600080fd5b6000602082840312156111e157600080fd5b81356111ec816111ad565b9392505050565b7f4e487b7100000000000000000000000000000000000000000000000000000000600052601160045260246000fd5b600082821015611234576112346111f3565b500390565b7f4e487b7100000000000000000000000000000000000000000000000000000000600052603260045260246000fd5b7f4e487b7100000000000000000000000000000000000000000000000000000000600052604160045260246000fd5b60007fffffffffffffffffffffffffffffffffffffffffffffffffffffffffffffffff82036112c8576112c86111f3565b5060010190565b600082198211156112e2576112e26111f3565b500190565b7f4e487b7100000000000000000000000000000000000000000000000000000000600052603160045260246000fd5b600081611325576113256111f3565b507fffffffffffffffffffffffffffffffffffffffffffffffffffffffffffffffff0190565b60006020828403121561135d57600080fd5b81516111ec816111ad56fea164736f6c634300080f000a",
  "linkReferences": {},
  "deployedLinkReferences": {}
}